:020000040800F2
:100000000000032089AF00087D2100087F2100083F
:1000100081210008832100088521000800000000DC
:100020000000000000000000000000008721000820
:1000300089210008000000008B2100088D210008A4
:10004000E1AF0008E1AF0008E1AF0008952100082A
:10005000E1AF0008E1AF0008E1AF0008E1AF000840
:10006000E1AF0008E1AF0008E1AF00089D21000802
:10007000AD210008BD210008E1AF0008E1AF000894
:10008000E1AF0008E1AF0008E1AF0008E1AF000810
:10009000CD210008E1AF0008E1AF0008E1AF0008A2
:1000A000E1AF0008E1AF0008E1AF0008E1AF0008F0
:1000B000E1AF0008E1AF0008E1AF0008E1AF0008E0
:1000C000E1AF0008E1AF0008E1AF0008E1AF0008D0
:1000D000DD210008E1AF0008E1AF0008E1AF000852
:1000E000E1AF0008E1AF0008E1AF0008E1AF0008B0
:1000F000ED210008F5210008FD210008E1AF00080E
:10010000E1AF0008E1AF0008E1AF0008E1AF00088F
:10011000E1AF0008E1AF0008E1AF0008E1AF00087F
:10012000E1AF0008E1AF0008E1AF0008E1AF00086F
:0C013000E1AF0008E1AF0008E1AF0008FB
:1001400010B5054C237833B9044B13B10448AFF311
:1001500000800123237010BDCC01002000000000AE
:1001600048C4000808B5034B1BB103490348AFF36B
:10017000008008BD00000000D001002048C4000835
:1001800001F0FF01102A2BDB10F0070F08D010F848
:10019000013B013A8B422DD010F0070F42B3F6D14C
:1001A000F0B441EA012141EA014122F007047FF065
:1001B00000070023F0E80256083C85EA010586EABC
:1001C000010685FA47F5A3FA87F586FA47F6A5FAF8
:1001D00087F68EB9EED1F0BC01F0FF0102F0070204
:1001E00032B110F8013B013A83EA010313B1F8D1AF
:1001F0000020704701387047002D06BF3546033890
:10020000073815F0010F07D1013015F4807F02BFC8
:10021000013015F4C03F0130F0BC0138704700BF19
:1002200070B54FF0FF0C4CF4E06C1CEA11541DBF8C
:100230001CEA135594EA0C0F95EA0C0F00F0DEF857
:100240002C4481EA030621EA4C5123EA4C5350EA3C
:10025000013518BF52EA033541F4801143F480138D
:1002600038D0A0FB02CE4FF00005E1FB02E506F01E
:100270000042E0FB03E54FF00006E1FB03569CF073
:10028000000F18BF4EF0010EA4F1FF04B6F5007F79
:1002900064F5407404D25FEA4E0E6D4146EB0606EB
:1002A00042EAC62141EA55514FEAC52040EA5E5074
:1002B0004FEACE2EB4F1FD0C88BFBCF5E06F1ED81E
:1002C000BEF1004F08BF5FEA500E50F1000041EB55
:1002D000045170BD06F0004646EA010140EA020002
:1002E00081EA0301B4EB5C04C2BFD4EB0C0541EA24
:1002F000045170BD41F480114FF0000E013C00F339
:10030000AB8014F1360FDEBF002001F0004170BD5C
:10031000C4F10004203C35DA0C341BDC04F1140475
:10032000C4F1200500FA05F320FA04F001FA05F201
:1003300040EA020001F0004221F0004110EBD370CE
:1003400021FA04F642EB06015EEA430E08BF20EAFA
:10035000D37070BDC4F10C04C4F1200500FA04F39D
:1003600020FA05F001FA04F240EA020001F000412F
:1003700010EBD37041F100015EEA430E08BF20EAA2
:10038000D37070BDC4F1200500FA05F24EEA020EEA
:1003900020FA04F301FA05F243EA020321FA04F019
:1003A00001F0004121FA04F220EA020000EBD370D0
:1003B0005EEA430E08BF20EAD37070BD94F0000FD0
:1003C0000FD101F00046400041EB010111F4801F04
:1003D00008BF013CF7D041EA060195F0000F18BFB5
:1003E000704703F00046520043EB030313F4801FF1
:1003F00008BF013DF7D043EA0603704794EA0C0FAB
:100400000CEA135518BF95EA0C0F0CD050EA4106C0
:1004100018BF52EA4306D1D181EA030101F000413D
:100420004FF0000070BD50EA410606BF1046194665
:1004300052EA430619D094EA0C0F02D150EA013671
:1004400013D195EA0C0F05D152EA03361CBF1046B2
:1004500019460AD181EA030101F0004141F0FE4151
:1004600041F470014FF0000070BD41F0FE4141F4D5
:10047000780170BD81F0004102E000BF83F00043CD
:1004800030B54FEA41044FEA430594EA050F08BF2F
:1004900090EA020F1FBF54EA000C55EA020C7FEAF3
:1004A000645C7FEA655C00F0E2804FEA5454D4EB70
:1004B0005555B8BF6D420CDD2C4480EA020281EA3A
:1004C000030382EA000083EA010180EA020281EA72
:1004D0000303362D88BF30BD11F0004F4FEA0131C4
:1004E0004FF4801C4CEA113102D0404261EB4101D3
:1004F00013F0004F4FEA03334CEA133302D0524259
:1005000063EB430394EA050F00F0A780A4F1010414
:10051000D5F1200E0DDB02FA0EFC22FA05F280184E
:1005200041F1000103FA0EF2801843FA05F3594134
:100530000EE0A5F120050EF1200E012A03FA0EFCB3
:1005400028BF4CF0020C43FA05F3C01851EBE371DD
:1005500001F0004507D54FF0000EDCF1000C7EEBFA
:1005600000006EEB0101B1F5801F1BD3B1F5001F38
:100570000CD349085FEA30004FEA3C0C04F1010457
:100580004FEA445212F5800F80F09A80BCF1004F80
:1005900008BF5FEA500C50F1000041EB045141EA02
:1005A000050130BD5FEA4C0C404141EB0101013CCB
:1005B00028BFB1F5801FE9D291F0000F04BF0146BA
:1005C0000020B1FA81F308BF2033A3F10B03B3F18C
:1005D00020020CDA0C3208DD02F1140CC2F10C021C
:1005E00001FA0CF021FA02F10CE002F11402D8BF7A
:1005F000C2F1200C01FA02F120FA0CFCDCBF41EA46
:100600000C019040E41AA2BF01EB0451294330BD14
:100610006FEA04041F3C1CDA0C340EDC04F11404F1
:10062000C4F1200220FA04F001FA02F340EA0300C8
:1006300021FA04F345EA030130BDC4F10C04C4F10E
:10064000200220FA02F001FA04F340EA03002946EE
:1006500030BD21FA04F0294630BD94F0000F83F438
:10066000801306BF81F480110134013D4EE77FEA1B
:10067000645C18BF7FEA655C29D094EA050F08BF67
:1006800090EA020F05D054EA000C04BF1946104648
:1006900030BD91EA030F1EBF0021002030BD5FEA8C
:1006A000545C05D14000494128BF41F0004130BDB4
:1006B00014F580043CBF01F5801130BD01F0004508
:1006C00045F0FE4141F470014FF0000030BD7FEA7B
:1006D000645C1ABF194610467FEA655C1CBF0B4676
:1006E000024650EA013406BF52EA033591EA030F8D
:1006F00041F4002130BD00BF90F0000F04BF002185
:10070000704730B54FF4806404F132044FF00005B7
:100710004FF0000150E700BF90F0000F04BF002130
:10072000704730B54FF4806404F1320410F0004596
:1007300048BF40424FF000013EE700BF42004FEA91
:10074000E2014FEA31014FEA02701FBF12F07F430E
:1007500093F07F4F81F06051704732F07F4208BFC5
:10076000704793F07F4F04BF41F40021704730B5CC
:100770004FF4607401F0004521F000411CE700BF18
:1007800050EA010208BF704730B54FF000050AE09B
:1007900050EA010208BF704730B511F0004502D59C
:1007A000404261EB41014FF4806404F132045FEA9E
:1007B000915C3FF4D8AE4FF003025FEADC0C18BF47
:1007C00003325FEADC0C18BF033202EBDC02C2F139
:1007D000200300FA03FC20FA02F001FA03FE40EACB
:1007E0000E0021FA02F11444BDE600BF53B94AB924
:1007F000002908BF00281CBF4FF0FF314FF0FF3029
:1008000000F074B9ADF1080C6DE904CE00F006F803
:10081000DDF804E0DDE9022304B070472DE9F0477C
:10082000089D04468E46002B4DD18A42944669D9D4
:10083000B2FA82F252B101FA02F3C2F1200120FAB7
:1008400001F10CFA02FC41EA030E94404FEA1C4805
:10085000210CBEFBF8F61FFA8CF708FB16E341EA01
:10086000034306FB07F199420AD91CEB030306F187
:10087000FF3080F01F81994240F21C81023E6344A8
:100880005B1AA4B2B3FBF8F008FB103344EA03444C
:1008900000FB07F7A7420AD91CEB040400F1FF3361
:1008A00080F00A81A74240F207816444023840EA9E
:1008B0000640E41B00261DB1D4400023C5E90043D7
:1008C0003146BDE8F0878B4209D9002D00F0EF805A
:1008D0000026C5E9000130463146BDE8F087B3FA8D
:1008E00083F6002E4AD18B4202D3824200F2F98075
:1008F000841A61EB030301209E46002DE0D0C5E978
:10090000004EDDE702B9FFDEB2FA82F2002A40F0C3
:100910009280A1EB0C014FEA1C471FFA8CFE0126C6
:10092000200CB1FBF7F307FB131140EA01410EFB6A
:1009300003F0884208D91CEB010103F1FF3802D211
:10094000884200F2CB804346091AA4B2B1FBF7F00B
:1009500007FB101144EA01440EFB00FEA64508D92E
:100960001CEB040400F1FF3102D2A64500F2BB806B
:100970000846A4EB0E0440EA03409CE7C6F12007BA
:10098000B34022FA07FC4CEA030C20FA07F401FA00
:1009900006F31C43F9404FEA1C4900FA06F3B1FB89
:1009A000F9F8200C1FFA8CFE09FB181140EA0141EE
:1009B00008FB0EF0884202FA06F20BD91CEB01018B
:1009C00008F1FF3A80F08880884240F28580A8F1E3
:1009D00002086144091AA4B2B1FBF9F009FB101135
:1009E00044EA014100FB0EFE8E4508D91CEB0101D3
:1009F00000F1FF346CD28E456AD90238614440EA76
:100A00000840A0FB0294A1EB0E01A142C846A646F5
:100A100056D353D05DB1B3EB080261EB0E0101FA7E
:100A200007F722FA06F3F1401F43C5E900710026DB
:100A30003146BDE8F087C2F12003D8400CFA02FC31
:100A400021FA03F3914001434FEA1C471FFA8CFE41
:100A5000B3FBF7F007FB10360B0C43EA064300FB31
:100A60000EF69E4204FA02F408D91CEB030300F1CF
:100A7000FF382FD29E422DD9023863449B1B89B286
:100A8000B3FBF7F607FB163341EA034106FB0EF30F
:100A90008B4208D91CEB010106F1FF3816D28B42BC
:100AA00014D9023E6144C91A46EA004638E72E4688
:100AB000284605E70646E3E61846F8E64B45A9D280
:100AC000B9EB020864EB0C0E0138A3E74646EAE7EF
:100AD000204694E74046D1E7D0467BE7023B61449D
:100AE00032E7304609E76444023842E7704700BF06
:100AF00072B6FEE700B59BB04822002108A80AF0B4
:100B0000A9FA002301930293039304930593069398
:100B1000079306F079F84FF0B042D2F8903023F006
:100B2000180343F01003C2F8903002F58062136896
:100B300023F4C06343F400731360136803F4C063C9
:100B40000093009B472308934FF4803309930123BC
:100B50000A934FF480720B92129340230C9302235A
:100B600013930323149310231593082316934FF420
:100B7000003317934FF0005319934FF000731893FD
:100B800008A804F019FE88B96F230193032102918C
:100B9000002303930493059380220692079301A8F0
:100BA00005F096F920B91BB05DF804FBFFF7A0FF34
:100BB000FFF79EFF00B595B05022002168460AF06D
:100BC00049FA4FF4405300934FF4804311930223AA
:100BD000129310231393684605F0A5FB10B915B0C6
:100BE0005DF804FBFFF784FF70B58EB006F0E6F801
:100BF00000F084FCFFF77EFFFFF7DCFF00F0A4F9B4
:100C000000F086F800F06EF900F0D8F901F09AFCD7
:100C100000F0B8F800F0D0F9314BD3F89430314CF3
:100C20007F21204606F0AEFD01222F49204606F026
:100C3000FFFC4FF4FA6000F0BBFC2C480AF098FA75
:100C400000F0A6FC00240AE001221021284805F04B
:100C5000D7FD23E000221021254805F0D1FD00F04A
:100C6000C1FC06F0CDF8A042F9D300F5FA74214D8D
:100C7000214E00222946304606F0CBFF00221F49B4
:100C8000304606F0EEFFAB781D4A12789342E1D071
:100C90001B4A13701B4B1B78002BD5D1174A917838
:100CA000144B18785D789B780F4E36880496039322
:100CB0000295019000915378D278134906A80AF062
:100CC0005FFA81B206A801F029FD104B1B78002BBA
:100CD000C5D006A94FF6426008F00AFDBFE700BF85
:100CE0000014005804020020EA010020E4C40008B7
:100CF00000100048F001002004030020EC01002057
:100D0000E80100207E000020FCC400088A1F0020AB
:100D100030B589B000240394049405940694079494
:100D20004FF0B043DA6C42F00402DA64DA6C02F09D
:100D300004020292029ADA6C42F00102DA64DA6C7E
:100D400002F001020192019ADA6C42F01002DA64B8
:100D5000DB6C03F010030093009B094D2246102129
:100D6000284605F04DFD10230393012304930594B9
:100D7000069403A9284605F069FC09B030BD00BF00
:100D80000010004800B587B0002300930193029340
:100D90000393049305931948194A026043608360E2
:100DA000C360036104224261037601224276C2617C
:100DB00080F820308362C36280F83020436380F87B
:100DC000383006F03FF898B90E4B00930623019394
:100DD000072302937F2303930423049300230593A3
:100DE0006946064806F076F928B907B05DF804FBB5
:100DF000FFF77EFEE8E7FFF77BFEF6E70402002040
:100E0000000004502000F01430B59DB004460021CD
:100E10001791189119911A911B91502203A80AF069
:100E200019F922682C4B9A4201D01DB030BD4FF405
:100E300080630393082304934FF4003305934FF02A
:100E4000007306934FF0005307934FF080530893BD
:100E5000129303A805F067FA002837D14FF0B0438A
:100E6000DA6C42F40052DA64DA6C02F40052029254
:100E7000029ADA6C42F00102DA64DB6C03F00103DF
:100E80000193019B012317930323189300251995C0
:100E900017A94FF0904005F0D9FB1048104B0360A4
:100EA000052343608560C560802303614FF4807330
:100EB00043614FF4806383612023C361056205F0C1
:100EC00015FD30B9054BE3649C62AEE7FFF710FEF9
:100ED000C4E7FFF70DFEF5E70000045068020020AC
:100EE0003000024000B583B04FF0B0439A6C42F03E
:100EF00004029A649A6C02F004020192019A9A6CBC
:100F000042F001029A649B6C03F001030093009B82
:100F1000002202210B2005F0A1FE0B2005F0D6FED9
:100F2000002202210C2005F099FE0C2005F0CEFED7
:100F3000002211460D2005F091FE0D2005F0C6FEA1
:100F400003B05DF804FB000008B50548054B0360DD
:100F500006F084FC00B908BDFFF7CAFDFBE700BF3F
:100F6000C8020020000C00580268124B9A4200D0C0
:100F7000704700B583B04FF0B0431A6D42F4801251
:100F80001A651B6D03F480130193019B002202215B
:100F90002C2005F063FE2C2005F098FE0022022193
:100FA0002D2005F05BFE2D2005F090FE03B05DF8CE
:100FB00004FB00BF000C00587047000000B587B06C
:100FC0000023019302930393049305930093224813
:100FD000224A026043607F228260FF22C260036176
:100FE0008361C361436106F08FFC48BB00238DF829
:100FF00004308DF805308DF8063002930493059384
:10100000012201A9144806F0FCFCE0B905238DF883
:10101000003003238DF8013001228DF802202423B3
:101020008DF8033069460C4806F074FD70B9002253
:101030001146094806F034FE58B907B05DF804FBC4
:10104000FFF756FDD2E7FFF753FDDFE7FFF750FD4F
:10105000EDE7FFF74DFDF0E7040300200028004016
:1010600010B596B004465022002102A809F0F2FF04
:101070002268164B9A4201D016B010BD4FF400639F
:1010800002934FF48073129302A805F04CF9C8B98B
:101090004FF0B043D3F8902042F40042C3F89020C0
:1010A0009A6D42F480629A659B6D03F480630193AC
:1010B000019B00220221032005F0D0FD032005F052
:1010C00005FED9E7FFF714FDE2E700BF0028004066
:1010D000054BCA225A6253225A629A6822F00702CA
:1010E0009A60FF225A627047002800407047000053
:1010F00008B5002007F084FD68B181794FF0B04257
:10110000054BC2F89C30D2F89C3023F47C5343EA60
:101110000123C2F89C3008BDFECAFECA08B54FF0D4
:10112000B042936843F40043936009F099FD054A87
:10113000D2F8803023F0070343F00403C2F8803074
:1011400008BD00BF0004005810B588B007F084FB4C
:101150000F4A0021042009F0BBFE0E4C00940E4BF8
:10116000019369460D4808F035FC04F58673029337
:1011700004F50673039304F54974049440F23C5358
:10118000059302A807F032FC07F062FB08B010BD1F
:10119000F9990008E4010320ED1000082D13000860
:1011A00010B54468154807F0EDFC01464FF4D373C1
:1011B000134A144809F056FF617B134809F052FFA7
:1011C000637B6BB90D4807F0DDFC014640F2AB13C1
:1011D0000B4A0C4809F046FF0C4809F0C9FF10BD46
:1011E000064807F0CFFC014640F2AF13044A054819
:1011F00009F038FF064809F0BBFFF0E724C50008F6
:1012000090C800083CC5000850C5000880C500080B
:10121000BCC500082DE9F04184B000230093019380
:101220000293039343685B7B93B10446012B5AD02E
:10123000354807F0A7FC01464FF4FB73334A3448A6
:1012400009F010FF334809F00DFF04B0BDE8F0814C
:101250002D4F384607F096FC01462C4E2C4D40F29F
:10126000C5133246284609F0FDFE2B4809F080FFE1
:1012700000F098FA0F238DF800307F238DF80230AC
:10128000DFF8A480D8F80040240C384607F07AFC38
:10129000014640F2DD133246284609F0E3FE2146BE
:1012A0001E4809F0DFFEADF80C40D8F80040C4F34A
:1012B0000B04384607F066FC01464FF4F1733246E2
:1012C000284609F0CFFE2146154809F0CBFEADF8BF
:1012D0000E40684607F000FC01F00CFE00210120E2
:1012E00009F0C8FCB1E7084807F04CFC014640F2A1
:1012F000EF13064A064809F0B5FE0A4809F0B2FEA7
:1013000000232370A1E700BF24C50008A4C800087B
:101310003CC5000888C60008F4C5000810C60008CF
:1013200034C6000854C60008002004E0F0B585B0BB
:1013300004464568B5F80B30A3F51243072B50D887
:10134000DFE803F00451624F8494A2B2684607F0CC
:10135000D1FB5C4F384607F015FC01465A4E5B4DF9
:1013600040F26B133246284609F07CFE9DF80230AD
:101370009DF801209DF80010554809F073FE38468D
:1013800007F000FC01464FF4B6733246284609F0D8
:1013900069FE9DF804104F4809F064FE384607F0D6
:1013A000F1FB014640F26D133246284609F05AFE21
:1013B0009DF80C309DF80B209DF80A10464809F066
:1013C00051FE384607F0DEFB014640F26F1332460D
:1013D000284609F047FE414809F044FE2046FFF741
:1013E00019FF05B0F0BD374807F0CCFB01464FF4BC
:1013F000BA73354A354809F035FE394809F032FEEE
:101400002046FFF7CDFEECE72E4F384607F0BAFB3B
:1014100001462D4E2D4C40F279133246204609F0FC
:1014200021FE304809F0A4FE384607F0ABFB014628
:101430004FF4BD733246204609F014FED5F8112052
:10144000D5F80D10284809F00DFECAE71D4807F031
:1014500099FB01464FF4C0731B4A1C4809F002FE79
:10146000D5F80D10214809F0FDFDBAE7154807F041
:1014700089FB014640F28513134A144809F0F2FD36
:101480001B4809F0EFFDACE70E4807F07BFB014677
:1014900040F289130C4A0D4809F0E4FDD5F80D100F
:1014A000144809F0DFFD9CE7064807F06BFB014696
:1014B0004FF4C773044A054809F0D4FD0E4809F0FB
:1014C000D1FD8EE724C50008C0C800083CC500084F
:1014D000BCC60008E0C60008FCC6000814C7000827
:1014E00034C7000858C70008A8C70008D0C70008BC
:1014F0000CC8000830C800086CC8000808B5034BC9
:101500004FF400421A61FFF7F3FD08BD0040005898
:1015100082B0144AD36923F07003D361124BD3F81D
:101520005835C3F303230193019B63B9D36923F0B7
:101530000F0343F00403D3610A4AD36943F4004321
:10154000D36102B07047019B023B03D40F2B02DD35
:101550000F2300E000230349CA6922F00F0213435E
:10156000CB61E9E7000400580070FF1F034AD2F87E
:10157000903043F05003C2F8903070470008005894
:1015800008B5FFF7C5FFFFF7F1FFFFF7A1FD08BDA5
:1015900008B5FFF7F5FFFFF7C1FD0449002000F093
:1015A0001FFB00F0EBF8FFF7CFFD08BD04030020A0
:1015B00038B5044605F024FC0546B4F1FF3F09D0D8
:1015C00005F02AFC044405E0054A136923F00403EE
:1015D000136130BF05F014FC401BA042F4D338BDAA
:1015E00000ED00E008B54FF0FF3009F0B3FB08BD97
:1015F000704708B54FF0FF3009F0ACFB08BD08B5E7
:101600000021042009F04CFB08BD08B5022009F0B8
:1016100075FB08BD08B5022009F02EFC08BD0000CE
:1016200070B58CB000230793089309930A930B932A
:101630001C461D461E4606E04D4A02EBC3018A8841
:1016400015430133DBB2252B1ED8494A02EBC302F6
:101650009279002AF5D0464A52F833204548824212
:10166000EAD000F58060824208D0B2F1904FE8D114
:101670003F4A02EBC3018A881643E2E73C4A02EB89
:10168000C3018A881443DCE70123089303230A93E8
:1016900026B93DBB002C48D10CB070BD07964FF069
:1016A000B043DA6C42F00102DA64DA6C02F0010253
:1016B0000292029AD3F84C2142F00102C3F84C2165
:1016C000D3F84C3103F001030193019B07A94FF0BC
:1016D000904004F0BBFF002231464FF0904005F0EF
:1016E0008FF8D6E707954FF0B043DA6C42F002026C
:1016F000DA64DA6C02F002020492049AD3F84C2104
:1017000042F00202C3F84C21D3F84C3103F002033B
:101710000393039B174E07A9304604F097FF00225E
:101720002946304605F06CF8B4E707944FF0B04313
:10173000DA6C42F00402DA64DA6C02F00402069217
:10174000069AD3F84C2142F00402C3F84C21D3F896
:101750004C3103F004030593059B074D07A9284668
:1017600004F074FF00222146284605F049F893E76B
:10177000D4C80008000400480008004808B505F077
:1017800051FB05F057FB064AD2F8903043F4803302
:10179000C2F8903007F008FAFFF742FF08BD00BF1B
:1017A0000008005810B588B00DF1040C094C0FCC9E
:1017B000ACE80F0094E80700ACE803002CF8022B1B
:1017C000120C8CF8002007F043F901A807F075F916
:1017D00008B010BD60C4000808B500F017FC08BDD3
:1017E000064A936A9BB2906A80B203E0034B9A6AFE
:1017F000034690B28342F9D1704700BF00280040F1
:1018000010B401EB41020F4B03EBC2035B7DDBB273
:10181000062B05D003EB43020A4C04EBC202107501
:10182000084A00EB400C02EBCC0C8CF815308CF81D
:10183000141001EB410102EBC10148755DF8044B46
:10184000704700BF38030020174B1B78DBB28B4278
:101850001DD0164B01EB410203EBC202127D5FFA71
:1018600082FC02EB420203EBC202507500EB400225
:1018700003EBC202517500EB400203EBC20282F897
:1018800014C001EB410103EBC10318757047074B0E
:1018900000EB400203EBC202517501EB410103EB87
:1018A000C1010875704700BF2903002038030020DC
:1018B00010B4234B1B78DBB283422CD0214C00EBBD
:1018C000400204EBC20292F814C0537DDBB2527D99
:1018D000D2B20CEB4C0C04EBCC046275062B0BD093
:1018E000184A00EB400402EBC404247DE4B203EB8D
:1018F000430302EBC3031C7500EB4000114B03EBE9
:10190000C000012303730E4B1B78DBB2062B10D0F3
:101910005DF8044B70470A4C2378DBB20A4A137017
:1019200000EB4003074A02EBC3035B7DDBB223708D
:10193000E2E70029ECD1054B4FF0FF321A60E7E7F0
:1019400029030020380300202C030020300300204E
:1019500008B5104B1B68B3F1FF3F02D1002080B2E5
:1019600008BDFFF73DFF0B4B1B6883420AD3094BB1
:101970001B681B1A084A107803FB00F0074B1B7802
:10198000D840ECE7064B1B881B1A024A1068034438
:10199000F0E700BF300300202803002036030020BA
:1019A0003403002070B50446314B1B78DBB2062BA4
:1019B00013D12F4A1378DBB22E490B70107000EB55
:1019C00040042D4B03EBC404062363752B4B4FF0EF
:1019D000FF321A600025284670BDFFF7B9FF0546A3
:1019E000254B04EB440203EBC20291680144916071
:1019F00004EB440203EBC20290681D4A127802EB2A
:101A0000420203EBC2039B68834225D8184B1B7824
:101A1000D9B203EB4303184A02EBC3035B7DDBB28D
:101A20000CE0154A01EB410102EBC1014B7DD9B23B
:101A300003EB430302EBC3035B7DDBB2062B07D052
:101A400003EB43030C4A02EBC3039B688342E8D9D0
:101A50002046FFF7D5FEBEE7054E31782046FFF75A
:101A6000F3FE3378DBB2034A13703470B3E700BF80
:101A7000290300202C03002038030020300300201D
:101A800010B548B3044601282ED9013CA4B2194B25
:101A90001B68DA6812F0040FF9D0DA68D2B262F487
:101AA0009062DA60144B4FF40022DA60032005F0F4
:101AB0004FF9124A53691B0C1B041C435461FFF776
:101AC0008FFE0F4B18600B4B1A68936843F48063CA
:101AD0009360AFF3008010BDFFF782FE084B1860E3
:101AE000032005F027F9F6E7064B1B78012BCCD134
:101AF000CDE700BF04030020000800580028004084
:101B0000300300203603002038B52F4B9B6813F4B8
:101B1000806F05D02D4B1B68DB6813F0040FF9D1E3
:101B20002A4B1A68936823F480639360284B1B78D0
:101B3000DCB203EB4303274A02EBC3039D68FFF7C4
:101B400007FF8446A84204D9234B01221A700020C3
:101B500024E0224B1B8810FA83F3AB4206D21F4BC2
:101B6000188880B21C4B00221A7017E0A8B2A0EBB4
:101B70000C0080B2184B01221A700FE004EB4404F1
:101B8000144A02EBC404A268A2EB0C02A26003EBAD
:101B90004303104A02EBC3035C7DE4B2062C0FD072
:101BA000234604EB44020B4901EBC20292689445C0
:101BB000E4D904EB440401EBC4040022A260E6E78C
:101BC000FFF75EFF38BD00BF00280040040300207F
:101BD0002903002038030020370300202A030020B7
:101BE00010B5484B1B68CA225A6253225A624649B2
:101BF0008B6843F020038B608B6803F00703C3F10D
:101C00000403DAB2414B1A700B6903F4FE034FF47C
:101C1000FE0191FAA1F1002931D0B1FA81F1CB4056
:101C2000DBB20133DBB23A490B7037490969C1F3C2
:101C30000E010131374C2180013901FB03F3A3F57B
:101C4000A073D3404FF6FE7293421AD9324B4FF62F
:101C5000FF721A80314B1A6842F400221A60D3F8DE
:101C6000802042F40022C3F8802000283FD12C4B72
:101C700001221A702B4B4FF0FF321A600EE0202128
:101C8000CDE79BB2244A1380E4E700EB4002264BE9
:101C900003EBC20300221A730130C0B20528F4D945
:101CA000224B06221A70174C2268936823F4806333
:101CB0009360D368DBB263F49063D360174B4FF447
:101CC0000022DA60032005F043F82268936843F4A9
:101CD000804393600B4B1B68FF225A620022032152
:101CE000084604F0BBFF032004F0F0FF10BD054BD5
:101CF0001B68DB6813F4806FECD0032005F01AF842
:101D0000E8E700BF0403002000280040360300205D
:101D100028030020340300202A0300200008005874
:101D2000370300203003002038030020290300205F
:101D3000F0B5EFF3108572B64FF0000CBCF1050F53
:101D40000CD80CEB4C0E154C04EBCE0E9EF80C4050
:101D500024B10CF1010C5FFA8CFCEFE7BCF1060F2B
:101D600017D00E4E4FEA4C040CEB4C0E06EBCE0E89
:101D700001278EF80C7085F31088CEF810008EF8CD
:101D80000D2004EB0C02D200B35081F800C00020FB
:101D9000F0BD85F310880120FAE700BF380300206A
:101DA00038B50446EFF3108572B6032004F09CFFAB
:101DB000254B1B68CA225A6253225A6204EB440222
:101DC000224B03EBC2031B7BDBB2022B09D01E4B61
:101DD0001B68FF225A62032004F078FF85F3108805
:101DE00038BD00212046FFF763FD194B1B78DBB29D
:101DF000062B07D0174A1278D2B29A42E7D0FFF7E3
:101E000083FEE4E7144B9B6813F4806F05D00E4B00
:101E10001B68DB6813F0040FF9D10B4B1A68936849
:101E200023F480639360D36813F0040FFBD0D3686E
:101E3000DBB263F49063D360084B4FF40022DA60A6
:101E4000032004F085FFC2E70403002038030020CC
:101E5000290300202C03002000280040000800581F
:101E600070B504460D4600EB4002214B03EBC20364
:101E70001B7BDBB2022B35D0EFF3108672B603204A
:101E800004F032FF1B4B1B68CA225A6253225A626B
:101E900004EB4403164A02EBC30302221A739D604B
:101EA0005D602046FFF77EFD134B1B78DBB2134AC3
:101EB0001278D2B29A4218D10D4B04EB440203EBD4
:101EC000C2029268101A04EB440403EBC404A0603D
:101ED000084B1B68FF225A62032004F0F7FE86F3CA
:101EE000108870BDFFF75CFFC6E7FFF70DFEEFE758
:101EF0003803002004030020290300202C030020C5
:101F000008B5904708BD0000F8B5EFF3108472B62D
:101F1000314B1B68CA225A6253225A629A6822F4D1
:101F200080629A602D4A1278D5B202EB4202D1004B
:101F30002B4A0A44127BD2B2022A13D0DA6812F07A
:101F4000040FFBD0DA68D2B262F49062DA60254BFB
:101F50004FF40022DA6084F310881F4B1B68FF22C5
:101F60005A62F8BD1E4A05EB4501CB00D118D7587F
:101F70000E691D4B1B7853B34B7BDBB2012B10D08A
:101F800084F310882846FFF70BFF134B1B68CA2207
:101F90005A6253225A623A4629463046FFF7B0FF4A
:101FA000DBE701212846FFF783FC84F3108805EB6B
:101FB0004503DA000A4B134459682846FFF750FFDF
:101FC000054B1B68CA225A6253225A62E3E7FFF7A5
:101FD0009BFD84F31088C0E7040300202903002040
:101FE00038030020000800583703002008B50268B5
:101FF000044B9A4200D008BD034B1B68002BFAD05B
:102000009847F8E700380140C803002008B5184891
:10201000184B03604FF4E133436000238360C360D7
:1020200003610C22426183614FF40042C26103628A
:102030004362836206F0FBFA70B900210C4806F097
:1020400071FB60B900210A4806F091FB50B90848BD
:1020500006F049FB48B908BDFEF74AFDEDE7FEF77B
:1020600047FDEFE7FEF744FDF1E7FEF741FDF2E73C
:102070008C0400200038014030B59DB0044600219A
:102080001791189119911A911B91502203A808F0E9
:10209000E1FF2268344B9A4201D01DB030BD0123CC
:1020A000039303A804F03FF9002854D14FF0B04344
:1020B0001A6E42F480421A661A6E02F4804202924C
:1020C000029ADA6C42F00102DA64DB6C03F001037D
:1020D0000193019B4FF4C0631793022318930025CB
:1020E00019951A9507231B9317A94FF0904004F0F8
:1020F000ADFA1E481E4B03600E2343608560C56029
:102100008023036145618561C561056204F0EEFBD2
:1021100020BB164BC4F880309C621648164B0360F7
:102120000F234360102383600023C3608022026179
:1021300043618361C361036204F0D8FB88B90D4B2E
:10214000E3679C6200220221242004F087FD242002
:1021500004F0BCFDA1E7FEF7CBFCA7E7FEF7C8FC47
:10216000D7E7FEF7C5FCEAE700380140CC030020C2
:10217000080002402C0400201C000240FEE7FEE79D
:10218000FEE7FEE7FEE770477047704708B504F0CA
:102190002BFE08BD08B5FFF7B7FE08BD08B502481D
:1021A00004F0CFFC08BD00BFCC03002008B50248F6
:1021B00004F0C7FC08BD00BF2C04002008B502488D
:1021C00004F0BFFC08BD00BF6802002008B502484B
:1021D00002F020F808BD00BF2005002008B5024825
:1021E00005F02AFE08BD00BF8C04002008B501F0F0
:1021F00035FA08BD08B501F0D1F908BD08B504F0FD
:1022000005FB08BD00B583B04FF0B0431A6D42F432
:1022100000221A651B6D03F400230193019B002229
:1022200002212E2004F01AFD2E2004F04FFD03B0F1
:102230005DF804FB032805D8DFE800F0050402057B
:10224000012070470320704708B5FEF753FC08BD16
:1022500030B59DB0044600211791189119911A913B
:102260001B91502203A808F0F5FE22681D4B9A42EC
:1022700001D01DB030BD4FF48073039303A804F068
:1022800052F858BB4FF0B044E36C43F00103E364F1
:10229000E36C03F001030293029B4FF4C0531793C6
:1022A00002231893002519951A950A231B9317A941
:1022B0004FF0904004F0CAF9A36D43F08063A3652A
:1022C000A36D03F080630193019B2A460121142032
:1022D00004F0C4FC142004F0F9FCCAE7FEF708FC83
:1022E000D0E700BF0068004008B500F52671D0F8BF
:1022F000D80207F0C4FC08BD08B501EB810300EB70
:10230000C303D3F86421D0F8D80207F04AFD08BD12
:1023100008B501EB810300EBC3035A6AD0F8D80279
:1023200007F0A2FD08BD08B5D0F8D80207F024FDDB
:1023300008BD10B504464379022B09D10121D4F818
:10234000D80207F0FAFCD4F8D80207F0C4FC10BD9C
:10235000FEF7CEFBF2E7000010B50446D0F8D80235
:1023600007F0EEFC637A23B1024A136943F00603D7
:10237000136110BD00ED00E010B50446437A23B9A7
:10238000D4F8D80207F0EBFC10BD044A136923F01F
:1023900006031361FFF758FFF2E700BF00ED00E00E
:1023A00038B50546204CC4F8D802C0F8C84204F03D
:1023B0003BFC1E4B23600823237102236371E371EE
:1023C000002323726372A372E372204601F0FEF9C8
:1023D00030BB182300221146D5F8C80202F02FF9AD
:1023E000582300228021D5F8C80202F028F9C02322
:1023F00000228121D5F8C80202F021F94FF4887338
:1024000000220121D5F8C80202F019F94FF48073B7
:1024100000228221D5F8C80202F011F9002038BD4F
:10242000FEF766FBD5E700BF2005002000680040EE
:1024300008B5D0F8C80201F024FAFFF7FBFE08BD8A
:1024400008B594461A466346D0F8C80201F0BBFFAF
:10245000FFF7F0FE08BD08B5D0F8C80201F0F5FF9F
:10246000FFF7E8FE08BD08B5D0F8C80202F06FF823
:10247000FFF7E0FE08BD08B5D0F8C80202F0A0F8EA
:10248000FFF7D8FE08BDD0F8C83211F0800F08D190
:1024900001F07F0101EB810103EBC10191F85201D1
:1024A000704701F07F0101EB810103EBC101887CE2
:1024B000704708B5D0F8C80201F099FEFFF7BAFEE0
:1024C00008BD08B5D0F8C80202F01BF8FFF7B2FE4D
:1024D00008BD08B5D0F8C80201F0EDFFFFF7AAFE6D
:1024E00008BD08B5D0F8C80202F002F808BD000027
:1024F00010B5044611B101290FD010BD437A23B99C
:10250000D4F8D80207F02BFCF7E7FFF79DFE094A45
:10251000136923F006031361F2E7D0F8D80207F03D
:102520000FFC637A002BE8D0024A136943F00603DC
:102530001361E2E700ED00E000487047FC0700206F
:102540007047000008B500220F49104807F050FB03
:1025500070B90F490D4807F062FB60B90D490B488F
:1025600008F020FB50B9094807F073FB48B908BDD3
:10257000FEF7BEFAEDE7FEF7BBFAEFE7FEF7B8FAB3
:10258000F1E7FEF7B5FAF2E7080000201C0A002088
:10259000880000205C00002012230B800048704758
:1025A0002800002004230B80004870473C000020D6
:1025B000002393421ED200B510E00CF1370C01F855
:1025C00013C000014FEA430C0CF1010C4FF0000E58
:1025D00001F80CE00133DBB2934209D24FEA107CE0
:1025E000B0F1204FE9D20CF1300C01F813C0E8E74C
:1025F0005DF804FB7047000038B50B4BD3F890052D
:10260000D3F89445D3F89835C01800D138BD074D9C
:102610000822A91CFFF7CCFF042205F11201204675
:10262000FFF7C6FFF2E700BF0070FF1F4000002069
:1026300008B51A230B80FFF7DFFF014808BD00BF74
:102640004000002008B50A4628B90549054808F0A9
:1026500022F8034808BD0249024808F01CF8F8E7D0
:10266000F80C002004CA000810B50A46034C2146A5
:10267000034808F010F8204610BD00BFF80C0020F9
:102680001CCA000808B50A4628B90549054808F0DB
:1026900002F8034808BD0249024807F0FCFFF8E7CA
:1026A000F80C002030CA000808B50A4628B90549C8
:1026B000054807F0F0FF034808BD0249024807F04B
:1026C000EAFFF8E7F80C00203CCA00080020704739
:1026D000002070470020704710B50146044C20468A
:1026E00008F079FA204608F09FFA002010BD00BFDC
:1026F0001C0A002010B5064C00220649204608F0AE
:102700005CFA0549204608F066FA002010BD00BFBB
:102710001C0A0020F8160020F80E0020094BD3F800
:10272000BC32D3F814320BB10120704710B5054C00
:102730000A460146204608F040FA204608F057FABB
:1027400010BD00BF1C0A0020704708B50021012001
:1027500008F0A6FA08BD00001C4B93F88030052B4A
:1027600000D1704770B506F0BDFA184B002283F80F
:10277000802068B1164806F005FA014640F2E143B0
:10278000144A154808F06EFC144808F06BFC70BD44
:102790000F4E304606F0F6F901460E4D0E4C40F253
:1027A000E5432A46204608F05DFC0D4808F05AFC37
:1027B000304606F0E7F9014640F2E6432A46204655
:1027C00008F050FC074808F04DFCE0E7FC1E002034
:1027D0004CCA0008D8D500083CC5000868CA0008E3
:1027E0008CCA000894CA000800B583B0054B00935A
:1027F000054B01936946054806F0D8FF03B05DF824
:1028000004FB00BF280003202B2800081128000823
:1028100010B504464068083007F0C0F910B1012334
:10282000237010BD00232370FBE708B510B1012809
:1028300004D008BD032008F047FAFAE7032008F0A7
:1028400051FAF6E708B50F4BD3F88025B2F1FF3FF8
:1028500010D0D3F884350C480270C2F307224270BE
:102860008370C3F30722C270C3F3074202711B0EC9
:10287000437108BD002006F0C3F90028F9D10348D0
:10288000F7E700BF0070FF1F841F00201CD6000860
:10289000F0B589B00023ADF81830BF4806F072F9E2
:1028A000014640F23933BD4ABD4808F0DBFBBD4864
:1028B00008F05EFC06F05DFD002800F0298104466A
:1028C000B54806F05FF9014640F24233B34AB448D6
:1028D00008F0C8FB2146B44808F0C4FBFFF7B2FF7C
:1028E000044602460621002006F0C3FC05460028E7
:1028F00000F01C81A84806F045F901464FF45473D6
:10290000A64AA74808F0AEFB2946A84808F0AAFB4B
:102910006279A74B1A7222795A72E2789A72A27877
:10292000DA7262781A7322785A73A24A1021182038
:1029300006F09FFC0446002800F01F81964806F030
:1029400021F901464FF46273944A954808F08AFBD6
:102950002146994808F086FB984A1021082006F085
:1029600088FC0446002800F049818B4806F00AF9EB
:10297000014640F29533894A894808F073FB2146A5
:102980008F4808F06FFB1921012006F0A2FC0446D5
:10299000002800F04181804806F0F4F8014640F23A
:1029A000A2337E4A7E4808F05DFB2146854808F048
:1029B00059FB06F005FB0446002800F03B817648F1
:1029C00006F0E0F8014640F2AF33744A744808F06C
:1029D00049FB21467C4808F045FB0DF11A030193A1
:1029E00007AB00930DF11E0307220021012006F022
:1029F0005AFA0446002800F02B81674806F0C2F816
:102A0000014640F2D333654A654808F02BFB214666
:102A10006E4808F027FB6E4B009305230022BDF89B
:102A20001C10BDF81E0006F09DFB06AB00930223B0
:102A30000022BDF81A10BDF81E0006F093FB02221A
:102A40001146002006F01AFD0446002800F00E8111
:102A5000514806F097F8014640F2F9334F4A504882
:102A600008F000FB21465B4808F0FCFA01205A4BB5
:102A7000187006F0B2F90446002800F005814648B7
:102A800006F080F8014640F20743444A444808F003
:102A9000E9FA2146514808F0E5FA4F4C01206070F0
:102AA00008222271102161710023E3704C4DA56052
:102AB000A07004930395029301910092024601468F
:102AC00006F0B1F90446002800F0EC80324806F028
:102AD00059F8014640F22643304A314808F0C2FA1C
:102AE0002146404808F0BEFA3B4B9B78002B40F053
:102AF000E780294806F046F8014640F23C43274A61
:102B0000274808F0AFFA384808F0ACFA09B0F0BD31
:102B1000214806F037F8014640F246331F4A204864
:102B200008F0A0FA314808F023FBD7E61A4F3846E0
:102B300006F028F80146194E194D4FF455733246E8
:102B4000284608F08FFA2A4808F012FB384606F0AB
:102B500019F8014640F255333246284608F082FA09
:102B600061792279E378A0786578267802960195D4
:102B70000090204808F076FACAE6074806F002F806
:102B800001464FF46373054A054808F06BFA1A488A
:102B900008F0EEFAE0E600BF4CCA0008C0D5000815
:102BA0003CC50008B0CA0008DCCA00082CCB0008ED
:102BB0007000002004D6000810CC0008F4D50008EE
:102BC000B0CC000850CD0008C0CD000818CE0008D9
:102BD00068CE000870CE0008FC1E0020D8CE000889
:102BE00007B2010048CF000840D000080CCB000815
:102BF00088CB0008D4CB000868CC0008414805F019
:102C0000C1FF014640F299333F4A404808F02AFA92
:102C10003F4808F0ADFAB6E63A4805F0B3FF014682
:102C200040F2A633384A394808F01CFA394808F00F
:102C30009FFABEE6334805F0A5FF014640F2B333E4
:102C4000314A324808F00EFA334808F091FAC4E6E7
:102C50002C4805F097FF014640F2D7332A4A2B480B
:102C600008F000FA2D4808F083FAD4E6254805F06C
:102C700089FF014640F2FD33234A244808F0F2F967
:102C8000274808F075FAF1E61E4805F07BFF01467B
:102C900040F20B431C4A1D4808F0E4F9214808F0B3
:102CA00067FAFAE6174805F06DFF014640F22A433D
:102CB000154A164808F0D6F91B4808F059FA13E7E8
:102CC00006F05DF9044670B10E4805F05BFF014661
:102CD00040F235430C4A0D4808F0C4F92146134828
:102CE00008F0C0F905E7074805F04CFF014640F23F
:102CF0003943054A054808F0B5F90D4808F038FA97
:102D0000F7E600BF4CCA0008C0D500083CC5000863
:102D100008CD000890CD0008F4CD000848CE00088A
:102D2000ACCE000818CF000894CF0008D0CF000820
:102D300010D00008F0B589B00446012849D04FF4FE
:102D40007A664FF4C8655A4B93F88100FFF728F86C
:102D5000022C43D0564B83F880400020069005900B
:102D600003F1190204921B7E0393524B0293062334
:102D70000193009003463246294605F0D4FF0546EC
:102D8000002853D04C4805F0FDFE014640F2744344
:102D90004A4A4B4808F066F929464A4808F062F961
:102DA00049490E2006F0BEF8054600285BD0012CEC
:102DB0004AD0414805F0E6FE014640F285433F4ACD
:102DC0003F4808F04FF92946404808F04BF909B050
:102DD000F0BD3F4B1D883F4B1E88B4E7344B93F842
:102DE0008030013BDBB2012BB4D805F07BFF0746F6
:102DF00070B1314805F0C6FE014640F25D432F4AEE
:102E00002F4808F02FF93946334808F02BF9A1E78D
:102E1000294805F0B7FE014640F26143274A284899
:102E200008F020F92D4808F0A3F993E7224805F0AF
:102E3000A9FE01464FF48F63204A214808F012F999
:102E4000274808F095F9ABE71B4805F09BFE0146C3
:102E500040F28143194A1A4808F004F929462148EA
:102E600008F000F9B3E7012C0DD0134805F08AFEF5
:102E7000014640F29243114A114808F0F3F81A480B
:102E800008F0F0F8A3E70C4805F07CFE014640F29C
:102E90008C430A4A0A4808F0E5F8144808F0E2F8BA
:102EA0001349034B93F88100FEF7DAFF8FE700BF69
:102EB000FC1E002014D600084CCA0008B4D5000837
:102EC0003CC5000800D100087000002094D1000823
:102ED000FA1E0020F81E00206CD00008B8D00008B0
:102EE00038D1000860D10008F4D10008CCD1000826
:102EF00046E0010010B590B00DF1040C474C0FCC2A
:102F0000ACE80F000FCCACE80F000FCCACE80F0022
:102F100094E80700ACE80300ACF80020FFF764FC7D
:102F20000121022007F0A6FE3D4A0021022007F001
:102F3000CFFF01A805F0B2FD002852D00446394861
:102F400005F020FE01464FF4E073374A374808F099
:102F500089F82146364808F085F8FDF7C9FDFFF7E6
:102F600097FC06F005FE334B002183F880104FF6E6
:102F7000FF72DA82304A012007F0AAFF062006F02D
:102F8000D1F9044600283AD0264805F0FBFD014659
:102F90004FF4F673244A254808F064F82146274880
:102FA00008F060F800F057FA224C254B002204F19B
:102FB00081011046FEF7BCFE224B002204F1820183
:102FC0001046FEF7B5FE0023637623761E4B802263
:102FD0001A801E4BA0221A800120FFF7ABFE10B012
:102FE00010BD104805F0CEFD01464FF4E3730E4AC4
:102FF0000E4808F037F8164808F034F8AFE70948EB
:1030000005F0C0FD01464FF4F873074A074808F081
:1030100029F8104808F026F8C4E700BF7CC400086F
:10302000D19700084CCA0008E4D500083CC5000848
:1030300024D20008FC1E00205927000884D2000872
:103040004B27000849270008FA1E0020F81E002020
:103050005CD20008C8D200082DE9F04186B00446D1
:1030600043783E2B3ED0FF2B00F05F81052B03D031
:10307000012006B0BDE8F0818288C14BDB8A9A420C
:103080000BD00120FFF756FEBE4801230370BC4B56
:10309000DB8A438000F0DEF9EAE7B94B0022DA82EE
:1030A00083F88020B84F384605F06CFD0146B74ED6
:1030B000B74D40F23F233246284607F0D3FFB548CC
:1030C00008F056F8384605F05DFD01464FF41073E0
:1030D0003246284607F0C6FFA279A188AE4807F01D
:1030E000C1FFCEE7C378032B70D00C2B00F09F807C
:1030F000012BBDD1DFF8888298F88100FEF750FEE1
:10310000A14F384605F03EFD0146A04EA04D40F2CD
:103110009F233246284607F0A5FFB4F805109F48C4
:1031200007F0A0FF384605F02DFD01464FF4287347
:103130003246284607F096FFE37AA27A617A029136
:1031400001920093237B627BA17B954807F08AFF65
:10315000384605F017FD014640F2A72332462846BF
:1031600007F080FFB4F81160B4F81350B4F80F0002
:10317000FDF7D2FA00228B4BFDF752F802460B46C0
:1031800005EB85056D0001950096874807F06AFFFD
:1031900098F88030042B00F0C480794B052283F826
:1031A0008020B4F80530764AD382764C0022227013
:1031B0006380204600F04EF9608806F008F840F67B
:1031C00048029C21608806F0F4F851E76E4F3846BB
:1031D00005F0D8FC01466D4E6D4D40F26723324636
:1031E000284607F03FFF714807F0C2FF384605F058
:1031F000C9FC01464FF41A733246284607F032FFE5
:10320000B4F80960B4F80B50B4F80700FDF784FA7D
:103210000022644BFDF704F802460B4605EB8505DA
:103220006D0001950096604807F01CFF20E75648A6
:1032300005F0A8FC014640F27523544A544807F0B3
:1032400011FF5B4807F00EFF23791BBB4E4805F0CA
:1032500099FC01464FF41E734C4A4D4807F002FF9B
:10326000544807F085FF0DF116020DF11701444B8C
:10327000D88A06F0D1F8D8B1434805F083FC01465E
:1032800040F28223414A424807F0ECFE4A4807F0E8
:10329000E9FEEDE63C4805F075FC01464FF41F736E
:1032A0003A4A3B4807F0DEFE444807F061FFDAE7A0
:1032B000354805F067FC014640F28623334A34481E
:1032C00007F0D0FE3E4807F053FF9DF81730022B61
:1032D00003D19DF81630022B11D02B4805F052FC7B
:1032E000014640F28E23294A294807F0BBFE9DF88B
:1032F00016209DF81710334807F0B4FEB8E62248B0
:1033000005F040FC014640F28A23204A204807F09D
:10331000A9FE9DF816209DF817102A4807F0A2FE76
:10332000A6E6062288F880203BE7B0F8033040F29A
:103330000742934216D040F60E4293427FF498AE75
:10334000114805F01FFC01464FF43F730F4A104827
:1033500007F088FE1C4807F085FE094BD88A05F067
:1033600060FF85E6084805F00DFC01464FF43B730D
:10337000064A074807F076FE144807F073FE77E622
:10338000FC1E0020801F00204CCA00089CD50008AD
:103390003CC5000800D300082CD30008B4D40008B2
:1033A000FCD400080000F43F9CD3000868D3000858
:1033B00008D4000838D4000850D4000844D40008C9
:1033C00070D4000890D4000874D500084CD50008CB
:1033D00008B50021022007F063FC08BD08B50120F4
:1033E00007F08CFC08BD08B5012007F045FD08BDBD
:1033F0000378012B09D010B50446032B09D003B183
:1034000010BD0E4B01221A70FAE70C4B00221A7005
:10341000704743681A780A4B1A700A4805F0B2FBE5
:1034200001465723084A094807F01CFE63685A788A
:103430001978074807F016FEE2E700BF8A1F002050
:103440007E00002024D6000850D600083CC50008A5
:1034500044D600087047704710B5064C636843F4C3
:1034600000236360044B1B6898474FF40023A3605C
:1034700010BD00BF000C00588C1F002082B04FF020
:10348000B043D3F8502142F48012C3F85021D3F84E
:10349000503103F480130193019B0A4B1A6A42F4E2
:1034A00000721A62D3F8D42042F40072C3F8D42018
:1034B00040BF20BF044AD36843F40043D36002B046
:1034C000704700BF000800580004005800B583B0E2
:1034D0004FF0B0431A6D42F480121A651B6D03F46D
:1034E00080130193019B094B1A6842F001021A6094
:1034F0001A6842F480321A602C2003F0E7FB2D207A
:1035000003F0E4FB03B05DF804FB00BF000C0058BF
:10351000024A536823F0010353607047000C0058BF
:10352000024B4FF480329A60704700BF000C005885
:1035300008B5044A536843F40013536005F0FCF9DE
:1035400008BD00BF000C005808B505F0DDF9024BBE
:1035500001229A6008BD00BF000C0058024A53685F
:1035600023F0020353607047000C0058044B4FF4E3
:1035700000329A605A6822F400325A60704700BFE5
:10358000000C005808B5044A536843F400335360F4
:1035900005F006FA08BD00BF000C005808B5144B32
:1035A000DB6813F0020F04D1114B5B6813F4003F8A
:1035B00014D00F4BDB6813F0080F04D10C4B5B6881
:1035C00013F4002F0DD00A4BDB6813F0200F04D149
:1035D000074B5B6813F4001F06D008BDFFF7D2FF4E
:1035E000FBE7FFF739FFF8E7FFF7A2FFF5E700BFBA
:1035F000000C005808B505F0E1F9024B02229A6070
:1036000008BD00BF000C005808B5094BDB6813F07B
:10361000080F05D18047064B4FF400229A6008BD81
:10362000044B1860024A536823F400235360F6E702
:10363000000C00588C1F0020024A536823F0080336
:1036400053607047000C005808B505F013FA024BA0
:1036500008229A6008BD00BF000C005808B5144B42
:10366000DB6913F0020F0AD1114BDB6913F0010F74
:103670000DD10F4BDB6913F0080F10D108BD0C4BB7
:103680005B6813F0020FEFD1FFF7B4FFF6E7084BCA
:103690005B6813F0010FECD1FFF756FFEEE7044B28
:1036A0005B6813F0080FE9D1FFF7CEFFE6E700BF34
:1036B000000C005838B512F4804F43D00468B4F8B9
:1036C000503091F800C04FEACC0E1EFA83F3234429
:1036D000B3F80244C4F309048B69A34228D31B1B2B
:1036E0008B618B697BB9056835F82C309BB223F46C
:1036F000804323F0700383F4005343F4004343F00A
:10370000800325F82C3012F0400F0ED002680D789F
:1037100032F825309BB223F4E04323F0700343F4E6
:10372000004343F0C00322F8253024B9204638BDB9
:1037300000238B61D5E723460A894969006801F0B7
:103740002CFFF3E70468B4F8503091F800C04FEA5A
:10375000CC0E1EFA83F32344B3F80644C4F30904E1
:103760008B69A3422FD31B1B8B618B697BB90568C7
:1037700035F82C309BB223F4804323F0700383F49C
:10378000005343F4004343F0800325F82C3012F03B
:10379000400F0FD1026891F800C032F82C309BB274
:1037A00023F4E04323F0700343F4004343F0C003E9
:1037B00022F82C30002CB9D023464A894969006888
:1037C00001F0EBFEB2E700238B61CEE7002856D074
:1037D00010B5044690F891323BB1032384F891323E
:1037E000206800F067FF002315E080F89032FEF7B4
:1037F0002FFDF2E703EB830204EBC20201215174B7
:1038000013740021D17411625162013303EB8302FE
:10381000D200A150DBB220799842EBD8002316E009
:1038200003EB830204EBC202002182F8511182F8FB
:10383000503182F85311C2F86011C2F8641103EBE1
:10384000830204EBC202C2F868110133DBB2984272
:10385000E6D8234653F8040B93E8060000F034FF43
:1038600000232373012384F89132A37A012B01D022
:10387000002010BD204600F0FEFE0020F9E70120E8
:10388000704790F89032012B0ED010B504460123FA
:1038900080F89032006800F004FF206801F073FAAD
:1038A000002084F8900210BD0220704770B50546D4
:1038B0000C46164612F0400F00F00A810268B2F87A
:1038C00050300978C80010FA83F31344B3F8022487
:1038D000C2F30902A36993424DD99B1AA361A3695C
:1038E000002B64D16378002B48D12A68B2F850309D
:1038F00012FA83F30344B3F80224C2F30902A3F8D3
:103900000224B3F802246FEA42426FEA524292B2B2
:10391000A3F8022429686278002A3BD1B1F850301C
:1039200011FA83F3227803EBC203B3F80624C2F33F
:103930000902A3F80624B3F806246FEA42426FEAAC
:10394000524292B2A3F8062421782846FEF7E0FC02
:1039500016F4804F40D02A68217832F821309BB28B
:1039600023F4E04323F0700343F4404343F0800327
:1039700022F8213030E00023A361B0E7012BC9D148
:103980002A68B2F8503012FA83F303440022A3F8F5
:103990000224BFE7012AD7D1B1F8503011FA83F3DE
:1039A000217803EBC1030022A3F80624CCE716F428
:1039B000804F0DD0286830F821309BB223F4E043CB
:1039C00023F0700343F4404343F0800320F8213098
:1039D00094F82430012B12D02A68217832F8213053
:1039E0009BB223F4E04323F0400383F0300343F41D
:1039F000004343F0800322F82130002070BD63694A
:103A000013446361E3691344E361216A23699942C2
:103A100024D3C91A21626278002A44D12968B1F8F6
:103A2000502011FA82F2217802EBC102B2F802149E
:103A3000C1F30901A2F802143E2B1BD9580913F057
:103A40001F0F00D10138B2F8021489B2800280B28F
:103A5000014341F40041A2F8021426E021B90023F9
:103A600084F824301346D6E7002384F824302362F8
:103A70000B46D0E74BB9B2F802146FEA41416FEA46
:103A8000514189B2A2F802140FE0590813F0010F56
:103A900000D00131B2F8020480B2890289B2014338
:103AA000A2F8021401E0012A06D09BB222896169C2
:103AB000286801F077F98FE72968B1F8502011FAEA
:103AC00082F2217802EBC10299B2A2F80214ECE76B
:103AD0000268B2F850300978C80010FA83F3134432
:103AE000B3F80624C2F30902A36993424ED39B1A8A
:103AF000A361A369002B65D16378002B49D12A68A3
:103B0000B2F8503012FA83F31844B0F80234C3F319
:103B10000903A0F80234B0F802346FEA43436FEAB5
:103B200053439BB2A0F8023429686278002A3CD142
:103B3000B1F8503011FA83F3227803EBC203B3F8E3
:103B40000624C2F30902A3F80624B3F806246FEA98
:103B500042426FEA524292B2A3F8062421782846E4
:103B6000FEF7D6FB16F4804F7FF436AF2A68217833
:103B700032F821309BB223F4E04323F0700343F486
:103B8000404343F0800322F8213025E70023A3615E
:103B9000AFE7012BC8D12A68B2F8503012FA83F38C
:103BA00018440023A0F80234BEE7012AD6D1B1F8A8
:103BB000503011FA83F3217803EBC1030022A3F8FC
:103BC0000624CBE716F4804F0DD1286830F8213059
:103BD0009BB223F4E04323F0700343F4404343F0EB
:103BE000800320F8213094F82430012B7FF4F4AEC8
:103BF000636913446361E3691344E361216A2369E0
:103C0000994224D3C91A216229686278002A43D1D3
:103C1000B1F8502011FA82F2217802EBC102B2F819
:103C20000614C1F30901A2F806143E2B1BD958094A
:103C300013F01F0F00D10138B2F8061489B28002C8
:103C400080B2014341F40041A2F8061426E021B9F4
:103C5000002384F824301346D6E70023236284F837
:103C600024300B46D0E74BB9B2F806146FEA414155
:103C70006FEA514189B2A2F806140FE0590813F017
:103C8000010F00D00131B2F8060480B2890289B276
:103C90000143A2F8061401E0012A06D09BB2628912
:103CA0006169286801F07EF896E6B1F8502011FAB3
:103CB00082F2217802EBC10299B2A2F80614EDE774
:103CC0002DE9F04105462868B0F8443013F4004F60
:103CD00000F08A82B0F84440A3B214F00F0440F020
:103CE000D88013F0100F69D003889AB213F4006FD4
:103CF00040F0958012F4004FE5D0038823F0700364
:103D00001B051B0D43F0800303802868B0F850307A
:103D100095F85021D20012FA83F30344B3F8063425
:103D2000C3F30903C5F86C318BB1D5F8641171B1D7
:103D3000B5F8562101F031FCD5F86C21D5F8643185
:103D40001344C5F8643100212846FEF7D5FA2A68E5
:103D5000138899B213F4006FB5D101F44051B1F555
:103D6000405FB0D0B2F8503012FA83F2B2F80634A5
:103D7000C3F30903A2F80634D5F860313E2B6FD99E
:103D8000590913F01F0F00D10139B2F806349BB264
:103D9000890289B20B4343F40043A2F806342A682F
:103DA00013889BB223F4804323F0700383F44053C1
:103DB00043F4004343F08003138084E703889BB2FD
:103DC00023F4E14323F070036FEA43436FEA534364
:103DD0009BB203802968B1F850302A7CD20012FAD5
:103DE00083F30B44B3F80234C3F30903EB626A6A4A
:103DF00013446B6200212846FEF78AFA2B7B002BC6
:103E00003FF461AFAB6A002B7FF45DAF2B7B2A6878
:103E100043F08003A2F84C3000232B7353E7B0F833
:103E2000503095F85021D20012FA83F30344B3F8CE
:103E30000634C3F30903C5F86C31B5F8562105F50E
:103E4000267101F0AAFB2A68138823F070031B0572
:103E50001B0D43F0800313802846FEF745FA32E736
:103E60004BB9B2F806346FEA43436FEA53439BB24F
:103E7000A2F8063493E7590813F0010F00D001317E
:103E8000B2F8063498B28B029BB20343A2F8063410
:103E900085E730F824309EB213F4004F4ED116F06F
:103EA000800F3FF410AF04EB8401C90010312944A6
:103EB0002A6832F824309BB223F4E14323F07003E4
:103EC0006FEA43436FEA53439BB222F8243004EB7A
:103ED000840305EBC303DB7C012B00F0E98016F4BF
:103EE000807F40F07C812868B0F8503004EB840279
:103EF00005EBC202167CF20012FA83F30344B3F816
:103F00000234C3F30903621C02EB820255F832202B
:103F10009A4240F24B81671C07EB8707D21A45F89B
:103F20003720621C02EB820255F83220002A40F052
:103F3000448131462846FEF7EBF9C4E630F82430D8
:103F400023F070031B051B0D43F0800320F8243081
:103F500004EB8401C90001F5A87105EB010804EB2D
:103F6000840305EBC30393F85C31002B40D1286830
:103F7000B0F8503004EB840205EBC20292F85021F5
:103F8000D20012FA83F30344B3F80674C7F30907A7
:103F900017BB04EB840305EBC303D3F86C213A444D
:103FA000C3F86C21D3F864213A44C3F86421D3F8F0
:103FB00068313BB104EB840305EBC303D3F86031F4
:103FC0009F4270D204EB840305EBC30393F85011B6
:103FD0002846FEF791F962E704EB840105EBC10185
:103FE0003B46B1F85621D1F8641101F0D6FAD0E77A
:103FF00004EB840305EBC30393F85331022B33D056
:10400000296804EB840205EBC20292F8500131F8F2
:1040100020309BB223F4E04323F0700343F40043C9
:1040200043F0C00321F82030286892F8503130F86E
:10403000232012F4804F1ED0B0F85020DB0013FA7A
:1040400082F30344B3F80274C7F30907002FA0D02A
:1040500004EB840105EBC1013B46B1F85821D1F8CE
:10406000641101F09AFA94E7324641462846FFF778
:1040700021FB07468DE7B0F85020DB0013FA82F3EE
:104080000344B3F80674C7F30907002F81D004EB8B
:10409000840105EBC1013B46B1F85A21D1F8641106
:1040A00001F07BFA75E74146286800F08FFEF6E6DE
:1040B000631C03EB8303DB000022EA5004EB840360
:1040C00005EBC3031B7F1BB316F0400F3BD004EB83
:1040D000840305EBC3035B7C1BBB2A68B2F850303A
:1040E00012FA83F304EB840205EBC202127C03EBA9
:1040F000C203B3F80224C2F30902A3F80224B3F8FE
:1041000002246FEA42426FEA524292B2A3F80224BA
:1041100004EB840405EBC404217C2846FEF7F8F880
:10412000D1E5012BF4D12A68B2F8503012FA83F3AA
:1041300004EB840205EBC202127C03EBC2030022F3
:10414000A3F80224E4E72A6804EB840305EBC30325
:104150005B7CD3B9B2F8503012FA83F304EB8402DB
:1041600005EBC202127C03EBC203B3F80624C2F3D0
:104170000902A3F80624B3F806246FEA42426FEA64
:10418000524292B2A3F80624C2E7012BC0D1B2F882
:10419000503012FA83F304EB840205EBC202127C66
:1041A00003EBC2030022A3F80624B1E7621C02EB72
:1041B0008202D2000027AF50B3E604EB840205EB85
:1041C000C202566A1E445662013404EB840205EBB7
:1041D000C20254682344536000F0F8FD73E5324690
:1041E0002846FFF763FB6EE50020BDE8F08190F8FC
:1041F0009032012B0CD010B50446012380F8903288
:104200000173006800F0B9FD002084F8900210BD31
:104210000220704710B50446006800F0BFFD10F49E
:10422000004F23D110F4806F24D110F4804F32D18D
:1042300010F4005F39D110F4805F40D110F4006FAA
:1042400067D110F0800F40F0818010F4007F40F0C3
:10425000AD8010F4807F27D02268B2F844309BB242
:1042600023F480739BB2A2F844301DE02046FFF790
:1042700027FD19E02268B2F844309BB223F4806332
:104280009BB2A2F844302046FEF753F800212046A6
:10429000FFF7ADFF08E02268B2F844309BB223F488
:1042A00080439BB2A2F8443010BD2268B2F844307B
:1042B0009BB223F400539BB2A2F84430F4E7226887
:1042C000B2F840309BB223F004039BB2A2F8403016
:1042D0002268B2F840309BB223F008039BB2A2F8E8
:1042E000403094F8C832012B0CD02046FEF744F839
:1042F0002268B2F844309BB223F480539BB2A2F8F8
:104300004430D1E7002184F8C8122046FEF7F0F8C7
:10431000EBE72268B2F840309BB243F00803A2F802
:1043200040302268B2F844309BB223F400639BB261
:10433000A2F844302268B2F840309BB243F0040344
:10434000A2F840302046FEF707F8ADE72268B2F841
:1043500044309BB223F080039BB2A2F8443094F81F
:10436000C832FBB92268B2F840309BB243F0040374
:10437000A2F840302268B2F840309BB243F0080304
:10438000A2F84030012184F8C8122368B3F85430F1
:10439000C3F38D0303F03C03C4F8CC322046FEF790
:1043A000A7F881E72046FDF7D7FF7DE72268B2F83E
:1043B00044309BB223F400739BB2A2F844302046F1
:1043C000FDF7B1FF70E710B50446084611F0800F05
:1043D00026D101F0070C0CEB8C0E4FEACE0E0EF539
:1043E000A87E04EB0E010CEB8C0C04EBCC0C4FF014
:1043F000000E8CF851E100F0070008700A61CB70E4
:10440000022B1DD094F89032012B1CD0012384F88C
:104410009032206800F069F9002084F8900210BD05
:1044200001F0070C0CEB8C01C900103121440CEB9E
:104430008C0C04EBCC0C4FF0010E8CF811E0DAE799
:1044400000230B71DEE70220E9E710B504460A46B7
:1044500011F0800F1FD101F0070000EB8003DB009B
:1044600003F5A873E11800EB800004EBC000002303
:1044700080F8513102F007020A7094F89032012B53
:1044800017D0012384F89032206800F015FB00203B
:1044900084F8900210BD01F0070000EB8003DB0000
:1044A0001033E11800EB800004EBC00001234374DB
:1044B000E0E70220EEE710B501F0070C0CEB8C01F1
:1044C000C90001F5A8710CEB8C0E00EBCE0ECEF8F6
:1044D0006421CEF868310024CEF86C418EF8514149
:1044E0008EF850C10144006800F070FC204610BDF9
:1044F00001F0070101EB810100EBC101D1F86C0172
:10450000704738B501F0070C0CEB8C01C900103175
:104510000CEB8C0E00EBCE0ECEF824200CF1010239
:1045200002EB820440F8343001258EF83450CEF886
:10453000303000EBC402002454608EF811508EF825
:1045400010C00144006800F041FC204638BD0B4615
:1045500001F00702017991422ED310B5044613F001
:10456000800F1DD103EB8301C90001F5A87101443F
:1045700003EB830300EBC303002083F85101012305
:104580008B700A7094F89032012B17D0012384F8B5
:104590009032206800F07BFB002084F8900210BD70
:1045A00002EB8201C9001031014402EB820300EBEF
:1045B000C30301205874E2E7012070470220EEE7B0
:1045C0000B46017903F00F02914234D310B5044633
:1045D00013F0800F21D103F0070202EB8201C90022
:1045E00001F5A871014402EB820200EBC202002037
:1045F00082F8510100228A7003F007030B7094F8CF
:104600009032012B19D0012384F89032206800F0F9
:1046100063FB002084F8900210BD03F0070202EB58
:104620008201C9001031014402EB820200EBC20298
:1046300001205074DEE7012070470220ECE711F002
:10464000800F0BD001F0070101EB8101C90010318F
:10465000014452B90A73CB800020704701EB8101FD
:10466000C90001F5A8710144F3E701220A730B8127
:104670001B0C4B81F0E7034602680121C0F8D01201
:10468000002083F8C802B2F854309BB20B43A2F862
:104690005430B2F854309BB243F00203A2F85430C5
:1046A000704703460020A3F844004BF68072A3F83D
:1046B00040207047B0F8403023F47E535B045B0C1D
:1046C000A0F840300020704782B0034602A800E9FD
:1046D00006000122A3F840200020A3F84000A3F820
:1046E0004400A3F8500002B0704710B503460A78A2
:1046F00030F822C01FFA8CFC2CF4EC4C2CF0700C1F
:104700001FFA8CFCC878032862D8DFE800F0565DF9
:104710000259002048F2800E4CEA0E0C23F822C009
:1047200091F800C033F82C2012B222F4E04222F0BB
:1047300070024CEA020292B242EA0E0223F82C20E6
:104740000A7B002A40F0DC804A78002A51D0B3F876
:10475000502013FA82F20C7802EBC402B1F806C0C2
:104760004FEA5C0C4FEA4C0CA2F800C40C7833F80A
:10477000242012F0400F0CD033F8242092B222F4FF
:10478000E04222F0700242F4004242F0C00223F8FC
:104790002420CA78012A1DD0097833F8212092B24A
:1047A00022F4E04222F0400282F0200242F4004271
:1047B00042F0800223F8212017E14CF4007CA9E7A5
:1047C0004CF4C06C0020A5E74CF4806C0020A1E7FD
:1047D00001209FE7097833F8212092B222F4E042C9
:1047E00022F0400242F4004242F0800223F82120ED
:1047F000FBE0B3F8502013FA82F20C7802EBC4020B
:10480000B1F806C04FEA5C0C4FEA4C0CA2F804C4A5
:10481000B3F8502013FA82F20C7802EBC402B2F81B
:1048200006C4CCF3090CA2F806C40C693E2C39D995
:104830004FEA541E14F01F0F01D10EF1FF3EB2F8E3
:1048400006C41FFA8CFC4FEA8E2E1FFA8EFE4CEA2D
:104850000E0C4CF4004CA2F806C40C7833F824205B
:1048600012F4804F0CD033F8242092B222F4E042AC
:1048700022F0700242F4404242F0800223F82420E9
:10488000097869BB33F8212092B222F4804222F0E9
:10489000700282F4405242F4004242F0800223F857
:1048A0002120A2E04CB9B2F806446FEA44446FEA12
:1048B0005444A4B2A2F80644CFE74FEA540C14F0D3
:1048C000010F01D00CF1010CB2F80644A4B24FEA7A
:1048D0008C2C1FFA8CFC44EA0C0CA2F806C4BCE732
:1048E00033F8212092B222F4804222F0700282F446
:1048F000005242F4004242F0800223F8212074E08A
:10490000CA78022A72D00C7833F8242092B222F4AA
:10491000E24222F0700242F4004242F0800223F8A8
:104920002420B3F8502013FA82F291F800C002EB71
:10493000CC02B1F808C04FEA5C0C4FEA4C0CA2F86C
:1049400000C4B3F8502013FA82F291F800C002EBD1
:10495000CC02B1F80AC04FEA5C0C4FEA4C0CA2F84A
:1049600004C44A78002A50D10C7833F8242012F479
:10497000804F0CD033F8242092B222F4E04222F08F
:10498000700242F4404242F0800223F824200C7866
:1049900033F8242012F0400F0CD033F8242092B2C8
:1049A00022F4E04222F0700242F4004242F0C002DF
:1049B00023F8242091F800C033F82C2092B222F47E
:1049C000804222F0700282F4405248F28004224376
:1049D00023F82C20097833F8212092B222F4E04207
:1049E00022F04002224323F8212010BD0C7833F836
:1049F000242092B222F4E04222F0700242F40142FA
:104A000042F0800223F824208BE70C7833F824202E
:104A100012F4804F0CD033F8242092B222F4E042FA
:104A200022F0700242F4404242F0800223F8242037
:104A30000C7833F8242012F0400F0CD033F82420E7
:104A400092B222F4E04222F0700242F4004242F0BC
:104A5000C00223F82420CA78012A1ED00C7833F82B
:104A6000242092B222F4E04222F0400282F020029E
:104A700042F4004242F0800223F82420097833F8FF
:104A8000212092B222F4804222F0700242F40042CD
:104A900042F0800223F82120A7E70C7833F8242085
:104AA00092B222F4E04222F0400242F4004242F08C
:104AB000800223F82420E1E70B7B002B46D14B78C2
:104AC00013B30A7830F8223013F0400F0CD030F8CE
:104AD00022309BB223F4E04323F0700343F40043FD
:104AE00043F0C00320F822300A7830F822309BB21D
:104AF00023F4E04323F0400343F4004343F08003F6
:104B000020F82230002070470A7830F8223013F461
:104B1000804F0CD030F822309BB223F4E04323F0D6
:104B2000700343F4404343F0800320F822300A78B6
:104B300030F822309BB223F4804323F0700343F417
:104B4000004343F0800320F82230DBE74B78002B52
:104B50004ED10A7830F8223013F4804F0CD030F860
:104B600022309BB223F4E04323F0700343F440432C
:104B700043F0800320F822300A7830F8223013F016
:104B8000400F0CD030F822309BB223F4E04323F0E6
:104B9000700343F4004343F0C00320F822300A7846
:104BA00030F822309BB223F4E04323F0700343F447
:104BB000004343F0C00320F822300B7830F8232064
:104BC00092B222F4804222F0700248F2800C42EA53
:104BD0000C0220F823200A7830F822309BB223F40C
:104BE000E04323F0400343EA0C0320F8223089E736
:104BF0000A7830F8223013F4804F0CD030F822308D
:104C00009BB223F4E04323F0700343F4404343F0AA
:104C1000800320F822300A7830F8223013F0400F59
:104C20000CD030F822309BB223F4E04323F0700321
:104C300043F4004343F0C00320F822300A7830F8F0
:104C400022309BB223F4E04323F0700343F440434B
:104C500043F0800320F822300B7830F8232092B202
:104C600022F4E04222F0400248F2800C42EA0C02B8
:104C700020F823200A7830F822309BB223F48043B6
:104C800023F0700343EA0C0320F822303AE74B7814
:104C90008BB10A7830F822309BB223F4E04323F042
:104CA000400383F0100343F4004343F0800320F8F3
:104CB0002230002070470A7830F822309BB223F46B
:104CC000804323F0700383F4805343F4004343F0A4
:104CD000800320F82230ECE70B7B002B4BD14B7884
:104CE00033B30A7830F8223013F0400F0CD030F88C
:104CF00022309BB223F4E04323F0700343F40043DB
:104D000043F0C00320F82230CB78012B33D00A784F
:104D100030F822309BB223F4E04323F0400383F0C9
:104D2000200343F4004343F0800320F8223022E0C4
:104D30000A7830F8223013F4804F0CD030F822304B
:104D40009BB223F4E04323F0700343F4404343F069
:104D5000800320F822300A7830F822309BB223F406
:104D6000804323F0700383F4405343F4004343F043
:104D7000800320F822300020704711B98023A0F86A
:104D80004C3000207047B0F858306FEA43436FEA68
:104D900053439BB2A0F8583000207047B0F844004D
:104DA00080B2704710B45C1C6408024402F5806253
:104DB00007E00B78487843EA002322F8023B0231EF
:104DC000013C002CF5D15DF8044B704770B50546E9
:104DD0000C464A78012A3BD00B7B002B40F0A68280
:104DE0008B690A69934240F284829B1A8B61B5F801
:104DF000503015FA83F3217803EBC103B3F806149E
:104E0000C1F30901A3F806143E2A40F27682510943
:104E100012F01F0F00D10139B3F8062492B28902B3
:104E200089B20A4342F40042A3F80624227835F8F6
:104E300022309BB223F4804323F0700383F4405369
:104E400043F4004343F0800325F82230002070BD76
:104E50008E6909698E4200D90E46237B73B3E378CD
:104E6000022B4DD0236A9B1B2362237835F8231035
:104E700011F0400F00F0F581002A40F0E281B5F812
:104E8000502015FA82F202EBC303B3F80624C2F3F2
:104E90000902A3F806243E2E40F2BA81710916F0E9
:104EA0001F0F00D10139B3F8062492B2890289B2EA
:104EB0000A4342F40042A3F80624CBE1B6B23346DB
:104EC000E28861692846FFF76DFFB5F8503015FAA2
:104ED00083F3227803EBC203A3F80264227835F847
:104EE00022309BB223F4E04323F0400383F03003ED
:104EF00043F4004343F0800325F822300020A6E766
:104F0000236A994280F06681227835F822309BB27C
:104F100023F4E04323F0700343F4014343F08003A0
:104F200025F82230236A9B1B2362237835F823203F
:104F300012F0400F00F0A7806278B2BBB5F85020A5
:104F400015FA82F202EBC303B3F80624C2F3090296
:104F5000A3F806243E2E0FD9710916F01F0F00D1B9
:104F60000139B3F8062492B2890289B20A4342F4A5
:104F70000042A3F806241AE04EB9B3F806246FEAFB
:104F800042426FEA524292B2A3F806240FE072083E
:104F900016F0010F00D00132B3F8061489B2920264
:104FA00092B20A43A3F8062401E0012A30D0B3B23A
:104FB000628961692846FFF7F5FE636933446361DE
:104FC000236A226993422DD99B1B23626378002BAD
:104FD00045D1B5F8503015FA83F3227803EBC203BC
:104FE000B3F80224C2F30902A3F802243E2E1DD90D
:104FF000710916F01F0F00D10139B3F8022492B2E3
:10500000890289B20A4342F40042A3F8022428E04C
:10501000B5F8502015FA82F202EBC303B2B2A3F83E
:105020000624C4E7002222621E46CFE74EB9B3F839
:1050300002246FEA42426FEA524292B2A3F802247B
:105040000FE0720816F0010F00D00132B3F802141D
:1050500089B2920292B20A43A3F8022401E0012B22
:1050600006D0B3B2228961692846FFF79BFE35E777
:10507000B5F8503015FA83F3227803EBC203B2B2CD
:10508000A3F80224EDE76278B2BBB5F8502015FA18
:1050900082F202EBC303B3F80224C2F30902A3F8BD
:1050A00002243E2E0FD9710916F01F0F00D10139CD
:1050B000B3F8022492B2890289B20A4342F4004250
:1050C000A3F802241AE04EB9B3F802246FEA424270
:1050D0006FEA524292B2A3F802240FE0720816F06F
:1050E000010F00D00132B3F8021489B2920292B2D9
:1050F0000A43A3F8022401E0012A30D0B3B2228986
:1051000061692846FFF74EFE636933446361236A91
:10511000226993422DD99B1B23626378002B45D1D2
:10512000B5F8503015FA83F3227803EBC203B3F8D5
:105130000624C2F30902A3F806243E2E1DD97109E4
:1051400016F01F0F00D10139B3F8062492B289027C
:1051500089B20A4342F40042A3F8062428E0B5F8D5
:10516000502015FA82F202EBC303B2B2A3F8022474
:10517000C4E7002222621E46CFE74EB9B3F80624E8
:105180006FEA42426FEA524292B2A3F806240FE05D
:10519000720816F0010F00D00132B3F8061489B27C
:1051A000920292B20A43A3F8062401E0012B06D032
:1051B000B3B2628961692846FFF7F4FD8EE6B5F85F
:1051C000503015FA83F3227803EBC203B2B2A3F88E
:1051D0000624EDE7217835F8212092B222F4E2424C
:1051E00022F0700242F4004242F0800225F82120B1
:1051F000B5F8502015FA82F2217802EBC1029BB279
:10520000A2F80234228961692846FFF7CBFD65E6E2
:105210004EB9B3F806246FEA42426FEA524292B2A4
:10522000A3F8062416E0720816F0010F00D0013230
:10523000B3F8061489B2920292B20A43A3F8062484
:1052400008E0B5F8502015FA82F202EBC303B2B2BF
:10525000A3F80624B3B2628961692846FFF7A2FD6C
:105260003CE6B2BBB5F8502015FA82F202EBC3035C
:10527000B3F80224C2F30902A3F802243E2E0FD988
:10528000710916F01F0F00D10139B3F8022492B250
:10529000890289B20A4342F40042A3F8022421E0C1
:1052A0004EB9B3F802246FEA42426FEA524292B218
:1052B000A3F8022416E0720816F0010F00D00132A4
:1052C000B3F8021489B2920292B20A43A3F80224FC
:1052D00008E0B5F8502015FA82F202EBC303B2B22F
:1052E000A3F80224B3B2228961692846FFF75AFD68
:1052F000F4E500228A611A4679E54AB9B3F8062432
:105300006FEA42426FEA524292B2A3F806248DE558
:10531000510812F0010F00D00131B3F8062492B207
:10532000890289B21143A3F806147FE5CB78022BDA
:105330004DD0012B40F02F8189692369994240F2B9
:10534000E680C91AA161F2B9B5F8502015FA82F2C7
:10535000217802EBC102B2F80214C1F30901A2F8EC
:1053600002143E2B40F2D780580913F01F0F00D1D2
:105370000138B2F8021489B2800280B2014341F4CC
:105380000041A2F802146278002A40F0F680B5F8D5
:10539000502015FA82F2217802EBC102B2F806140D
:1053A000C1F30901A2F806143E2B40F2CD80590941
:1053B00013F01F0F00D10139B2F806349BB28902F5
:1053C00089B20B4343F40043A2F806342EE5F2B948
:1053D000B0F8503010FA83F30A7803EBC203B3F845
:1053E0000224C2F30902A3F802240A693E2A31D931
:1053F000510912F01F0F00D10139B3F8022492B203
:10540000890289B20A4342F40042A3F80224637875
:10541000002B51D1B5F8503015FA83F3227803EB05
:10542000C203B3F80624C2F30902A3F806242269D2
:105430003E2A28D9510912F01F0F00D10139B3F8C3
:10544000062492B2890289B20A4342F40042A3F8C8
:10545000062433E04AB9B3F802246FEA42426FEA05
:10546000524292B2A3F80224D1E7510812F0010F80
:1054700000D00131B3F8022490B28A0292B2024302
:10548000A3F80224C3E74AB9B3F806246FEA4242FC
:105490006FEA524292B2A3F806240FE0510812F0CC
:1054A000010F00D00131B3F8062490B28A0292B203
:1054B0000243A3F8062401E0012B1DD0E369002B71
:1054C0003FF4B4AC227835F8221044F2400303EAEA
:1054D00001008B4302D000287FF4A8AC35F82230BD
:1054E0009BB223F4E04323F0700343F4004343F002
:1054F000C00325F8223099E4B5F8503015FA83F34B
:10550000227803EBC203228AA3F80624D6E70023FD
:10551000A3610B4617E74BB9B2F802146FEA414199
:105520006FEA514189B2A2F802142CE7590813F02E
:10553000010F00D00131B2F8020480B2890289B2B1
:105540000143A2F802141EE74BB9B2F806346FEA21
:1055500043436FEA53439BB2A2F8063466E459080A
:1055600013F0010F00D00131B2F8063498B28B026B
:105570009BB20343A2F8063458E4012A7FF456ACE8
:10558000B5F8502015FA82F2217802EBC1029BB2E5
:10559000A2F806344AE4012059E410B45C0810442F
:1055A00000F5806007E030F8022B0A70C2F3072292
:1055B0004A700231013C002CF5D113F0010F01D0EB
:1055C00003880B705DF8044B7047000030B58DB058
:1055D00005468E462B4C94E80F000DF1300C0CE97B
:1055E0000F0005AB04F1100207CA83E807000DF1B4
:1055F000040C1C3494E80F008CE80F00BEF5007F0B
:1056000007D0002314E00CAA02EB830353F82C5CB0
:105610001EE00023032B08D80CAA02EB830252F8E9
:10562000102CAA42EFD20133F4E7002510E0013339
:10563000022B0CD80CAA02EB830252F81C2CAA42B3
:10564000F5D30CAA02EB830353F82C5C00E0002591
:105650000D4A136823F007032B43136001F0D0FBBE
:105660000446094B1B6803F00703AB4206D001F068
:10567000C7FB001B0228F4D9032000E000200DB076
:1056800030BD00BFB8C400080040005810B5B028B5
:1056900016D90E4BDC6A4FF0B043D3F8083103F053
:1056A0000F030B4A52F82300B4FBF0F401F0B4FAF4
:1056B00001460848A0FB0430800CFFF787FF10BDAF
:1056C000C0F30310014B53F82040E4E7F4D6000880
:1056D00094D6000883DE1B434FF0B0439B6813F061
:1056E0000C030DD14FF0B0431B6803F0F003B02B57
:1056F00004D81B09254A52F823007047B023F8E765
:10570000042B3ED0082B10D04FF0B043DB6803F0E1
:105710000303022B31D0032B0FD14FF0B0431B6892
:1057200013F4801F2BD11A4812E04FF0B0431B68CE
:1057300013F4801F27D0174870474FF0B0431B6801
:1057400003F0F003B02B16D81B09104A52F82300BF
:105750004FF0B042D368C3F3062303FB00F0D368D5
:10576000C3F302130133B0FBF3F0D3685B0F0133D3
:10577000B0FBF3F07047B023E6E70648E8E70548DA
:10578000E6E7044870470248704700BFF4D60008B7
:105790000048E8010024F40008B5FFF79DFF4FF032
:1057A000B0439B68C3F30313024A52F82330B0FBA3
:1057B000F3F008BD94D60008002800F0728338B5D5
:1057C0000446036813F0200F2DD04FF0B0429368C9
:1057D000D26802F0030213F00C0358D00C2B54D003
:1057E000E369002B00F0A0804FF0B042136843F053
:1057F0000103136001F004FB05464FF0B0431B6842
:1058000013F0020F00F08880636A4FF0B042116815
:1058100021F0F0010B431360216A536823F47F43A6
:1058200043EA01235360236813F0010F00F09A80CC
:105830004FF0B042936803F00C03D26802F0030209
:10584000082B00F08B800C2B00F085806368B3F58B
:10585000803F00F0B0804FF0B042136823F48033F3
:1058600013606368002B00F0AD8001F0C9FA0546B3
:105870004FF0B0431B6813F4003F73D101F0C0FA3E
:10588000401B6428F4D9032016E3012AA8D1E36958
:10589000002B00F00883606A4FF0B0431B6803F0F0
:1058A000F003B02B21D8984221D9FFF7EFFE002852
:1058B00040F0FB82636A4FF0B042116821F0F001C2
:1058C0000B431360216A536823F47F4343EA0123A7
:1058D0005360FFF761FFBF4B1860BF4B186801F0C2
:1058E00045FA00289FD00120E6E2B023DBE74FF025
:1058F000B042136823F0F00318431060216A536824
:1059000023F47F4343EA01235360606AFFF7BEFE3E
:105910000028DED00120CFE201F072FA401B0228FD
:105920007FF66BAF0320C7E24FF0B042136823F05D
:105930000103136001F064FA05464FF0B0431B68A1
:1059400013F0020F3FF46FAF01F05AFA401B022828
:10595000F3D90320B0E2032A7FF478AF6368002B09
:1059600000F0A582236813F0020F54D04FF0B0422C
:10597000936803F00C03D26802F00302042B33D0C7
:105980000C2B2FD0E368002B71D04FF0B04213687E
:1059900043F48073136001F033FA05464FF0B043CF
:1059A0001B6813F4806F2DD101F02AFA401B0228E6
:1059B000F4D9032080E24FF0B042136843F48033FF
:1059C00013604EE701F01CFA05464FF0B0431B6828
:1059D00013F4003FC6D001F013FA401B6428F4D939
:1059E000032069E2022ACDD1E368002B00F0618236
:1059F00021694FF0B042536823F0FE4343EA01634C
:105A0000536008E021694FF0B042536823F0FE4331
:105A100043EA01635360236813F0180F00F0DE803F
:105A20006269002A00F0A38013F0100F70D04FF0CD
:105A3000B043D3F8943013F0020F2ED14FF0B042A0
:105A4000D2F8943043F00103C2F8943001F0D8F951
:105A500005464FF0B043D3F8943013F0020F1CD139
:105A600001F0CEF9401B0228F3D9032024E24FF0C5
:105A7000B042136823F48073136001F0C1F9054646
:105A80004FF0B0431B6813F4806FC4D001F0B8F935
:105A9000401B0228F4D903200EE24FF0B042D2F8A6
:105AA000943043F00403C2F8943001F0A9F905469C
:105AB0004FF0B043D3F8943013F0080F06D101F043
:105AC0009FF9401B0328F3D90320F5E1A1694FF0AA
:105AD000B042D2F8943023F4706343EA0123C2F851
