:020000040800F2
:1000000000000320D1890008691400086B1400085F
:100010006D1400086F14000871140008000000003F
:100020000000000000000000000000007314000841
:100030007514000800000000771400087914000807
:10004000298A0008298A0008298A000881140008E2
:10005000298A0008298A0008298A0008298A0008B4
:10006000298A0008298A0008298A0008298A0008A4
:10007000298A0008298A0008298A0008298A000894
:10008000298A0008298A0008298A0008298A000884
:1000900089140008298A0008298A0008298A00088A
:1000A000298A0008298A0008298A0008298A000864
:1000B000298A0008298A0008298A0008298A000854
:1000C000298A0008298A0008298A0008298A000844
:1000D000298A0008298A0008298A0008298A000834
:1000E000298A0008298A0008298A0008298A000824
:1000F00099140008A1140008A9140008298A00080E
:10010000298A0008298A0008298A0008298A000803
:10011000298A0008298A0008298A0008298A0008F3
:10012000298A0008298A0008298A0008298A0008E3
:0C013000298A0008298A0008298A000892
:1001400010B5054C237833B9044B13B10448AFF311
:1001500000800123237010BDCC01002000000000AE
:10016000E09B000808B5034B1BB103490348AFF3FC
:10017000008008BD00000000D0010020E09B0008C6
:1001800001F0FF01102A2BDB10F0070F08D010F848
:10019000013B013A8B422DD010F0070F42B3F6D14C
:1001A000F0B441EA012141EA014122F007047FF065
:1001B00000070023F0E80256083C85EA010586EABC
:1001C000010685FA47F5A3FA87F586FA47F6A5FAF8
:1001D00087F68EB9EED1F0BC01F0FF0102F0070204
:1001E00032B110F8013B013A83EA010313B1F8D1AF
:1001F0000020704701387047002D06BF3546033890
:10020000073815F0010F07D1013015F4807F02BFC8
:10021000013015F4C03F0130F0BC0138704700BF19
:1002200084460022FF200DE04000C0B20133072BBE
:1002300007DC10F0800FF7D0400080F03100C0B232
:10024000F4E701328A4204DA1CF8023058400023F5
:10025000EDE7704710B584B04BF69423ADF80C3041
:1002600064230093022303AA882108F0BBF9044603
:1002700010B1204604B010BD012000F0DDFBF8E70E
:1002800008B5FFF7E7FF08BDF0B585B004460F4697
:100290001646FD238DF80F306423009301230DF1E2
:1002A0000F02882108F09EF9054610B1284605B0D6
:1002B000F0BD0A2000F0C0FB64230093062302AACD
:1002C0008821204608F060FA05460028EED1022178
:1002D00002A8FFF7A5FF9DF80A30834217D102213B
:1002E0000DF10B00FFF79CFF9DF80D30834210D1FC
:1002F0009DF808209DF8093043EA02233B809DF8D1
:100300000B209DF80C3043EA02233380CEE7012511
:10031000CCE70125CAE7000007EE900AF8EEE77A7D
:100320009FED060A67EE807A9FED050A67EE807AF8
:100330009FED040A37EEC00A704700BF0000803707
:1003400000002F430000344207EE900AF8EEE77AEF
:100350009FED060A67EE807A9FED050A67EE807AC8
:10036000B1EE080A37EEC00A704700BF00008037C0
:100370000000FA4230B583B0B1B10D4601AA0DF1CB
:100380000601FFF781FF044658B9BDF80600FFF7E4
:10039000C3FF85ED000ABDF80400FFF7D5FF85ED2A
:1003A000010A204603B030BD0124FAE70FB430B58E
:1003B000A3B026AB53F8042B0193802102A808F0C8
:1003C00037FC051E0FDD802D00DD8025002400E0B8
:1003D0000134A9B202A801F0F7FA012803D141F2D1
:1003E00087339C42F4D923B0BDE8304004B0704755
:1003F00072B6FEE700B59BB04822002108A808F0BD
:100400004DFB0023019302930393049305930693FA
:10041000079304F0F1FE4FF0B042D2F8903023F091
:10042000180343F01003C2F8903002F5806213689D
:1004300023F4C06343F400731360136803F4C063D0
:100440000093009B472308934FF4803309930123C3
:100450000A934FF480720B92129340230C93022361
:1004600013930323149310231593082316934FF427
:10047000003317934FF0005319934FF00073189304
:1004800008A803F0A5FE88B96F2301930321029108
:10049000002303930493059380220692079301A8F7
:1004A00004F022FA20B91BB05DF804FBFFF7A0FFAF
:1004B000FFF79EFF00B595B050220021684608F076
:1004C000EDFA4FF4405300934FF48043119302230D
:1004D000129310231393684604F00DFC10B915B065
:1004E0005DF804FBFFF784FFF0B59BB004F05EFFFE
:1004F00000F078FAFFF77EFFFFF7DCFF00F002F96B
:1005000000F0C6F800F038F901F072F907F0E8FDE4
:1005100000F030F9504BD3F894204FF480625A61C8
:10052000642000F089FA4D48FFF7AAFE4FF4FA6004
:1005300000F082FA4A4808F027FB00F06DFA002428
:1005400029E001224FF480614FF0904004F040FE1A
:1005500038E044490BA808F01FFB0546A9B20BA8D8
:1005600001F032FA404E31784048FFF71FFF3378F0
:1005700053B1EAB20BA94FF6426006F063F90146A7
:100580000BAA3B48FFF712FF00224FF480614FF0A7
:10059000904004F01DFE00F069FA04F029FFA0422B
:1005A000F9D300F6B834334D00223349284605F01C
:1005B0003AF900223149284605F05DF9304B1B78A5
:1005C000002BBED109A92548FFF7D4FE024600281A
:1005D000BFD1F2EE046A9DED097A27EE267ABDEED0
:1005E000C77A17EE103A1BB2DDED0A7A67EEA67AEB
:1005F000FCEEE77A17EE902A92B2204988781E4FD7
:100600003D787E78BF78DFF884C0ACFB02EC4FEA1F
:10061000DC0C0CEB8C0EA2EB4E0292B20792CDF8E2
:1006200018C0184A82FB032CDA17C2EBAC0202EBAB
:10063000820CA3EB4C031BB2059312B204920397F6
:100640000296019500904B78CA780F490BA808F0E4
:10065000A3FA054682E700BF00140058981E002048
:100660007C9C0008C89C00086A1D0020D89C0008DB
:10067000F49C00083C020020EC010020E80100206E
:100680007E00002067666666949C0008CDCCCCCCCA
:1006900010B588B00024039404940594069407943C
:1006A0004FF0B043DA6C42F00402DA64DA6C02F024
:1006B00004020292029ADA6C42F00202DA64DA6C04
:1006C00002F002020192019ADA6C42F00102DA644D
:1006D000DB6C03F001030093009B22464FF4806122
:1006E0004FF0904004F074FD4FF4806303930123B6
:1006F00004930594069403A94FF0904004F08EFCF7
:1007000008B010BD08B50548054B036004F0B0FE05
:1007100000B908BDFFF76CFEFBE700BF0002002038
:10072000000C00580268124B9A4200D0704700B586
:1007300083B04FF0B0431A6D42F480121A651B6DFE
:1007400003F480130193019B002202212C2004F06A
:100750007DFD2C2004F0B2FD002202212D2004F0AA
:1007600075FD2D2004F0AAFD03B05DF804FB00BF69
:10077000000C00587047000000B587B000230193BB
:10078000029303930493059300932348234A026042
:1007900043600F22826047F6FF72C260036183618B
:1007A000C361436104F0BAFE48BB00238DF80430F6
:1007B0008DF805308DF806300293049305930122DD
:1007C00001A9154804F027FFE0B905238DF8003092
:1007D00003238DF8013001228DF8022024238DF8A7
:1007E000033069460C4804F09FFF70B9002211469F
:1007F000094805F05FF858B907B05DF804FBFFF74A
:10080000F7FDD2E7FFF7F4FDDFE7FFF7F1FDEDE7D6
:10081000FFF7EEFDF0E700BF3C020020002800409B
:1008200010B596B004465022002102A808F036F90F
:100830002268164B9A4201D016B010BD4FF40063E7
:1008400002934FF48073129302A804F054FAC8B9CB
:100850004FF0B043D3F8902042F40042C3F8902008
:100860009A6D42F480629A659B6D03F480630193F4
:10087000019B00220221032004F0E8FC032004F085
:100880001DFDD9E7FFF7B4FDE2E700BF00280040F7
:10089000054BCA225A6253225A629A6822F0070212
:1008A0009A60FF225A62704700280040704700009B
:1008B00008B5002005F066FA68B181794FF0B042C2
:1008C000054BC2F89C30D2F89C3023F47C5343EAA9
:1008D0000123C2F89C3008BDFECAFECA08B54FF01D
:1008E000B042936843F40043936007F063FA054A0B
:1008F000D2F8803023F0070343F00403C2F88030BD
:1009000008BD00BF0004005810B588B005F0A4F879
:100910000F4A0021042007F085FB0E4C00940E4B7B
:10092000019369460D4806F0FFF804F586730293BB
:1009300004F50673039304F54974049440F23C53A0
:10094000059302A805F052F905F082F808B010BD31
:100950004D6B0008E4010320AD080008C109000840
:1009600000B585B00023009301930293039343687D
:100970005B7B23B1012B1ED005B05DF804FB00F0BA
:1009800053F90F238DF800307F238DF802300B4A86
:1009900013681B0CADF80C301368C3F30B03ADF8F0
:1009A0000E30684605F098F901F05EF9002101204B
:1009B00007F00AFAE0E700230370DDE7002004E017
:1009C0004368B3F80B30B3F5124F00D0704710B541
:1009D00084B00446684605F08DF92046FFF7C0FF55
:1009E00004B010BD08B5034B4FF400421A61FFF785
:1009F0005FFF08BD00400058034AD2F8903043F032
:100A00005003C2F8903070470008005808B5FFF74F
:100A1000F3FFFFF73DFF08BD08B5FFF7F7FFFFF74E
:100A20005DFF0449002000F019FB00F0EBF8FFF730
:100A30006BFF08BD3C02002038B5044604F0D8FC2A
:100A40000546B4F1FF3F09D004F0DEFC044405E0A4
:100A5000054A136923F00403136130BF04F0C8FC96
:100A6000401BA042F4D338BD00ED00E008B54FF0C4
:100A7000FF3007F019FA08BD704708B54FF0FF3096
:100A800007F012FA08BD08B50021042007F0B2F9FA
:100A900008BD08B5022007F0DBF908BD08B5022043
:100AA00007F094FA08BD000070B58CB000230793DE
:100AB000089309930A930B931C461D461E4606E0B5
:100AC0004D4A02EBC3018A8815430133DBB2252B63
:100AD0001ED8494A02EBC3029279002AF5D0464A51
:100AE00052F8332045488242EAD000F580608242C5
:100AF00008D0B2F1904FE8D13F4A02EBC3018A8897
:100B00001643E2E73C4A02EBC3018A881443DCE760
:100B10000123089303230A9326B93DBB002C48D137
:100B20000CB070BD07964FF0B043DA6C42F0010292
:100B3000DA64DA6C02F001020292029AD3F84C21D4
:100B400042F00102C3F84C21D3F84C3103F0010309
:100B50000193019B07A94FF0904004F05FFA002237
:100B600031464FF0904004F033FBD6E707954FF045
:100B7000B043DA6C42F00202DA64DA6C02F002028C
:100B80000492049AD3F84C2142F00202C3F84C219B
:100B9000D3F84C3103F002030393039B174E07A9CC
:100BA000304604F03BFA00222946304604F010FBA0
:100BB000B4E707944FF0B043DA6C42F00402DA6411
:100BC000DA6C02F004020692069AD3F84C2142F045
:100BD0000402C3F84C21D3F84C3103F0040305930D
:100BE000059B074D07A9284604F018FA0022214664
:100BF000284604F0EDFA93E70C9D00080004004835
:100C00000008004808B504F005FC04F00BFC054A98
:100C1000D2F8903043F48033C2F89030FFF744FFAD
:100C200008BD00BF0008005810B588B00DF1040CD5
:100C3000094C0FCCACE80F0094E80700ACE80300C7
:100C40002CF8022B120C8CF8002005F001F801A8FA
:100C500005F033F808B010BDF89B0008064A936A07
:100C60009BB2906A80B203E0034B9A6A034690B24B
:100C70008342F9D1704700BF0028004010B401EB57
:100C800041020F4B03EBC2035B7DDBB2062B05D0A9
:100C900003EB43020A4C04EBC2021075084A00EB56
:100CA000400C02EBCC0C8CF815308CF8141001EBD6
:100CB000410102EBC10148755DF8044B704700BF6C
:100CC00070020020174B1B78DBB28B421DD0164BF5
:100CD00001EB410203EBC202127D5FFA82FC02EBE0
:100CE000420203EBC202507500EB400203EBC2026A
:100CF000517500EB400203EBC20282F814C001EB15
:100D0000410103EBC10318757047074B00EB40022C
:100D100003EBC202517501EB410103EBC101087500
:100D2000704700BF610200207002002010B4234B06
:100D30001B78DBB283422CD0214C00EB400204EB49
:100D4000C20292F814C0537DDBB2527DD2B20CEBDA
:100D50004C0C04EBCC046275062B0BD0184A00EB4C
:100D6000400402EBC404247DE4B203EB430302EB32
:100D7000C3031C7500EB4000114B03EBC0000123C3
:100D800003730E4B1B78DBB2062B10D05DF8044BBF
:100D900070470A4C2378DBB20A4A137000EB400319
:100DA000074A02EBC3035B7DDBB22370E2E7002955
:100DB000ECD1054B4FF0FF321A60E7E761020020EB
:100DC00070020020640200206802002008B5104B69
:100DD0001B68B3F1FF3F02D1002080B208BDFFF7CE
:100DE0003DFF0B4B1B6883420AD3094B1B681B1A40
:100DF000084A107803FB00F0074B1B78D840ECE75B
:100E0000064B1B881B1A024A10680344F0E700BF18
:100E100068020020600200206E0200206C020020A8
:100E200070B50446314B1B78DBB2062B13D12F4A29
:100E30001378DBB22E490B70107000EB40042D4B81
:100E400003EBC404062363752B4B4FF0FF321A608B
:100E50000025284670BDFFF7B9FF0546254B04EB7A
:100E6000440203EBC20291680144916004EB440226
:100E700003EBC20290681D4A127802EB420203EBB8
:100E8000C2039B68834225D8184B1B78D9B203EB69
:100E90004303184A02EBC3035B7DDBB20CE0154A47
:100EA00001EB410102EBC1014B7DD9B203EB4303DE
:100EB00002EBC3035B7DDBB2062B07D003EB4303DE
:100EC0000C4A02EBC3039B688342E8D92046FFF734
:100ED000D5FEBEE7054E31782046FFF7F3FE3378A6
:100EE000DBB2034A13703470B3E700BF6102002025
:100EF00064020020700200206802002010B548B390
:100F0000044601282ED9013CA4B2194B1B68DA68AB
:100F100012F0040FF9D0DA68D2B262F49062DA60AB
:100F2000144B4FF40022DA60032004F009FA124A4D
:100F300053691B0C1B041C435461FFF78FFE0F4BBE
:100F400018600B4B1A68936843F480639360AFF3A7
:100F5000008010BDFFF782FE084B1860032004F0EC
:100F6000E1F9F6E7064B1B78012BCCD1CDE700BFAA
:100F70003C020020000800580028004068020020C1
:100F80006E02002038B52F4B9B6813F4806F05D09C
:100F90002D4B1B68DB6813F0040FF9D12A4B1A683C
:100FA000936823F480639360284B1B78DCB203EBD7
:100FB0004303274A02EBC3039D68FFF707FF8446FC
:100FC000A84204D9234B01221A70002024E0224BAE
:100FD0001B8810FA83F3AB4206D21F4B188880B2ED
:100FE0001C4B00221A7017E0A8B2A0EB0C0080B2D4
:100FF000184B01221A700FE004EB4404144A02EB70
:10100000C404A268A2EB0C02A26003EB4303104AE3
:1010100002EBC3035C7DE4B2062C0FD0234604EB45
:1010200044020B4901EBC20292689445E4D904EBF7
:10103000440401EBC4040022A260E6E7FFF75EFF70
:1010400038BD00BF002800403C02002061020020A3
:10105000700200206F0200206202002010B5484B91
:101060001B68CA225A6253225A6246498B6843F06F
:1010700020038B608B6803F00703C3F10403DAB22B
:10108000414B1A700B6903F4FE034FF4FE0191FA11
:10109000A1F1002931D0B1FA81F1CB40DBB20133AB
:1010A000DBB23A490B7037490969C1F30E010131CE
:1010B000374C2180013901FB03F3A3F5A073D34022
:1010C0004FF6FE7293421AD9324B4FF6FF721A80D6
:1010D000314B1A6842F400221A60D3F8802042F49F
:1010E0000022C3F8802000283FD12C4B01221A7027
:1010F0002B4B4FF0FF321A600EE02021CDE79BB260
:10110000244A1380E4E700EB4002264B03EBC203C2
:1011100000221A730130C0B20528F4D9224B0622EE
:101120001A70174C2268936823F480639360D36825
:10113000DBB263F49063D360174B4FF40022DA60A4
:10114000032004F0FDF82268936843F48043936021
:101150000B4B1B68FF225A6200220321084604F051
:1011600075F8032004F0AAF810BD054B1B68DB6876
:1011700013F4806FECD0032004F0D4F8E8E700BF4C
:101180003C020020002800406E0200206002002087
:101190006C02002062020020000800586F0200204C
:1011A000680200207002002061020020F0B5EFF319
:1011B000108572B64FF0000CBCF1050F0CD80CEB8B
:1011C0004C0E154C04EBCE0E9EF80C4024B10CF1E5
:1011D000010C5FFA8CFCEFE7BCF1060F17D00E4E46
:1011E0004FEA4C040CEB4C0E06EBCE0E01278EF8AA
:1011F0000C7085F31088CEF810008EF80D2004EBEB
:101200000C02D200B35081F800C00020F0BD85F37D
:1012100010880120FAE700BF7002002038B50446AC
:10122000EFF3108572B6032004F056F8254B1B68C7
:10123000CA225A6253225A6204EB4402224B03EB45
:10124000C2031B7BDBB2022B09D01E4B1B68FF22A3
:101250005A62032004F032F885F3108838BD00216B
:101260002046FFF763FD194B1B78DBB2062B07D036
:10127000174A1278D2B29A42E7D0FFF783FEE4E72A
:10128000144B9B6813F4806F05D00E4B1B68DB6812
:1012900013F0040FF9D10B4B1A68936823F48063A1
:1012A0009360D36813F0040FFBD0D368DBB263F410
:1012B0009063D360084B4FF40022DA60032004F0FF
:1012C0003FF8C2E73C0200207002002061020020CB
:1012D00064020020002800400008005870B5044651
:1012E0000D4600EB4002214B03EBC2031B7BDBB23C
:1012F000022B35D0EFF3108672B6032003F0ECFF1B
:101300001B4B1B68CA225A6253225A6204EB4403E5
:10131000164A02EBC30302221A739D605D602046E9
:10132000FFF77EFD134B1B78DBB2134A1278D2B263
:101330009A4218D10D4B04EB440203EBC2029268AF
:10134000101A04EB440403EBC404A060084B1B68B0
:10135000FF225A62032003F0B1FF86F3108870BDAC
:10136000FFF75CFFC6E7FFF70DFEEFE77002002016
:101370003C020020610200206402002008B5904772
:1013800008BD0000F8B5EFF3108472B6314B1B684E
:10139000CA225A6253225A629A6822F480629A6080
:1013A0002D4A1278D5B202EB4202D1002B4A0A44F0
:1013B000127BD2B2022A13D0DA6812F0040FFBD0EB
:1013C000DA68D2B262F49062DA60254B4FF4002200
:1013D000DA6084F310881F4B1B68FF225A62F8BD45
:1013E0001E4A05EB4501CB00D118D7580E691D4B9D
:1013F0001B7853B34B7BDBB2012B10D084F31088E6
:101400002846FFF70BFF134B1B68CA225A62532270
:101410005A623A4629463046FFF7B0FFDBE7012122
:101420002846FFF783FC84F3108805EB4503DA00B8
:101430000A4B134459682846FFF750FF054B1B68B9
:10144000CA225A6253225A62E3E7FFF79BFD84F3F4
:101450001088C0E73C0200206102002070020020DA
:10146000000800586F020020FEE7FEE7FEE7FEE7F7
:10147000FEE770477047704708B503F0ADFF08BD41
:1014800008B5FFF77FFF08BD08B5024801F0CEFBA5
:1014900008BD00BF0003002008B500F0EBFD08BD4B
:1014A00008B500F087FD08BD08B503F097FE08BD3C
:1014B00000B583B04FF0B0431A6D42F400221A65B4
:1014C0001B6D03F400230193019B002202212E20B7
:1014D00003F0BCFE2E2003F0F1FE03B05DF804FB28
:1014E000032805D8DFE800F0050402050120704755
:1014F0000320704708B5FEF77DFF08BD30B59DB0ED
:10150000044600211791189119911A911B915022AC
:1015100003A807F0C3FA22681D4B9A4201D01DB000
:1015200030BD4FF48073039303A803F0E4FB58BB72
:101530004FF0B044E36C43F00103E364E36C03F069
:1015400001030293029B4FF4C05317930223189395
:10155000002519951A950A231B9317A94FF090405F
:1015600003F05CFDA36D43F08063A365A36D03F0FE
:1015700080630193019B2A460121142003F066FE3B
:10158000142003F09BFECAE7FEF732FFD0E700BF4E
:101590000068004008B500F52671D0F8D80205F0C3
:1015A00018FC08BD08B501EB810300EBC303D3F8B9
:1015B0006421D0F8D80205F09EFC08BD08B501EB07
:1015C000810300EBC3035A6AD0F8D80205F0F6FC99
:1015D00008BD08B5D0F8D80205F078FC08BD10B5F4
:1015E00004464379022B09D10121D4F8D80205F031
:1015F0004EFCD4F8D80205F018FC10BDFEF7F8FE3A
:10160000F2E7000010B50446D0F8D80205F042FC1D
:10161000637A23B1024A136943F00603136110BDD4
:1016200000ED00E010B50446437A23B9D4F8D8029F
:1016300005F03FFC10BD044A136923F00603136153
:10164000FFF758FFF2E700BF00ED00E038B50546B0
:10165000204CC4F8D802C0F8C84203F0DDFD1E4B90
:1016600023600823237102236371E3710023237233
:101670006372A372E372204600F0B4FD30BB1823FE
:1016800000221146D5F8C80201F0E5FC58230022DB
:101690008021D5F8C80201F0DEFCC02300228121A0
:1016A000D5F8C80201F0D7FC4FF48873002201215D
:1016B000D5F8C80201F0CFFC4FF4807300228221DC
:1016C000D5F8C80201F0C7FC002038BDFEF790FE37
:1016D000D5E700BF000300200068004008B5D0F83F
:1016E000C80200F0DAFDFFF7FBFE08BD08B594461E
:1016F0001A466346D0F8C80201F071FBFFF7F0FE0E
:1017000008BD08B5D0F8C80201F0ABFBFFF7E8FE52
:1017100008BD08B5D0F8C80201F025FCFFF7E0FECF
:1017200008BD08B5D0F8C80201F056FCFFF7D8FE96
:1017300008BDD0F8C83211F0800F08D101F07F0148
:1017400001EB810103EBC10191F85201704701F0F7
:101750007F0101EB810103EBC101887C704708B573
:10176000D0F8C80201F04FFAFFF7BAFE08BD08B57D
:10177000D0F8C80201F0D1FBFFF7B2FE08BD08B5F2
:10178000D0F8C80201F0A3FBFFF7AAFE08BD08B518
:10179000D0F8C80201F0B8FB08BD000010B504463F
:1017A00011B101290FD010BD437A23B9D4F8D80262
:1017B00005F07FFBF7E7FFF79DFE094A136923F069
:1017C00006031361F2E7D0F8D80205F063FB637AF1
:1017D000002BE8D0024A136943F006031361E2E7E5
:1017E00000ED00E000487047DC0500207047000075
:1017F00008B500220F49104805F0A4FA70B90F4946
:101800000D4805F0B6FA60B90D490B4806F074FAB8
:1018100050B9094805F0C7FA48B908BDFEF7E8FD18
:10182000EDE7FEF7E5FDEFE7FEF7E2FDF1E7FEF796
:10183000DFFDF2E708000020FC0700208800002000
:101840005C00002012230B80004870472800002015
:1018500004230B80004870473C0000200023934283
:101860001ED200B510E00CF1370C01F813C00001D6
:101870004FEA430C0CF1010C4FF0000E01F80CE0A4
:101880000133DBB2934209D24FEA107CB0F1204F12
:10189000E9D20CF1300C01F813C0E8E75DF804FB65
:1018A0007047000038B50B4BD3F89005D3F894453A
:1018B000D3F89835C01800D138BD074D0822A91CAF
:1018C000FFF7CCFF042205F112012046FFF7C6FF07
:1018D000F2E700BF0070FF1F4000002008B51A2388
:1018E0000B80FFF7DFFF014808BD00BF400000206C
:1018F00008B50A4628B90549054805F076FF0348AA
:1019000008BD0249024805F070FFF8E7D80A002038
:101910003C9E000810B50A46034C2146034805F0DA
:1019200064FF204610BD00BFD80A0020549E000866
:1019300008B50A4628B90549054805F056FF034889
:1019400008BD0249024805F050FFF8E7D80A002018
:10195000689E000808B50A4628B90549054805F0FB
:1019600044FF034808BD0249024805F03EFFF8E77E
:10197000D80A0020749E000800207047002070479D
:101980000020704710B50146044C204606F0CDF902
:10199000204606F0F3F9002010BD00BFFC07002030
:1019A00010B5064C00220649204606F0B0F905495C
:1019B000204606F0BAF9002010BD00BFFC07002049
:1019C000D8140020D80C0020094BD3F8BC32D3F82F
:1019D00014320BB10120704710B5054C0A46014680
:1019E000204606F094F9204606F0ABF910BD00BF82
:1019F000FC070020704708B50021012006F0FAF925
:101A000008BD000008B5064B93F88030052B00D1C7
:101A100008BD04F012FA024B002283F88020F7E799
:101A2000DC1C002000B583B0054B0093054B0193EF
:101A30006946054804F064FF03B05DF804FB00BF8D
:101A400028000320671A00084D1A000810B5044644
:101A50004068083005F04CF910B10123237010BD27
:101A600000232370FBE708B510B1012804D008BD9E
:101A7000032006F0D3F9FAE7032006F0DDF9F6E7D4
:101A800008B50F4BD3F88025B2F1FF3F10D0D3F843
:101A900084350C480270C2F3072242708370C3F38E
:101AA0000722C270C3F3074202711B0E437108BDC7
:101AB000002004F067F90028F9D10348F7E700BFD8
:101AC0000070FF1F641D0020B49E000870B588B030
:101AD0000024ADF8184004F0F7FCFFF7D1FF0546ED
:101AE00002460621204604F06FFC6A79304B1A72D8
:101AF0002A795A72EA789A72AA78DA726A781A732C
:101B00002A785A732B4A1021182004F05DFC2A4AC7
:101B10001021082004F058FC1821012004F084FC56
:101B200004F0F9FA0DF11A03019307AB00930DF1DC
:101B30001E0307222146012004F060FA1F4B009388
:101B400007232246BDF81C10BDF81E0004F0B5FBAB
:101B500006AB009302232246BDF81A10BDF81E0002
:101B600004F0ABFB02221146204604F032FD144D76
:101B700001262E70304604F0DBF96E7008232B71BD
:101B800010226A71EC700F49A960AE700494039141
:101B9000029401920093234632463146304604F0C7
:101BA000EDF9AB780BB908B070BD04F093FAFAE721
:101BB000700000209C9E00088C9E0008849E0008F7
:101BC000DC1C002007B2010070B588B00446012873
:101BD00028D04FF47A664FF4C8651D4B93F8810006
:101BE000FFF71CFB022C22D0194B83F88040002009
:101BF0000690059003F1190204921B7E0393154B86
:101C0000029308230193009003463246294604F0CC
:101C100035F911490E2004F030FA08B9012C10D022
:101C200008B070BD0D4B1D880D4B1E88D5E7084BC5
:101C300093F88030013BDBB2012BD5D804F0FDF8DE
:101C4000D2E70849024B93F88100FFF747FBE7E72B
:101C5000DC1C0020AC9E000870000020DA1C002074
:101C6000D81C002046E0010030B591B00DF1040C05
:101C7000284C0FCCACE80F000FCCACE80F000FCC19
:101C8000ACE80F0094E80700ACE80300ACF80020D3
:101C9000FFF7C8FE0121022006F096F81E4A002137
:101CA000022006F0BFF901A803F0F8FF78BBFFF7A8
:101CB0000DFF05F007F8194D002485F880404FF618
:101CC000FF73EB82164A2146012006F0ABF906208D
:101CD00004F0D3FB00F0CBF8124B224605F1810152
:101CE0002046FFF763FA104B224605F18201204699
:101CF000FFF75CFA6C762C760C4B80221A800C4B2A
:101D0000A0221A800120FFF75FFF11B030BDFEF75F
:101D10006FFBCCE7149C000825690008DC1C002040
:101D2000051A0008F7190008F5190008DA1C002048
:101D3000D81C002030B583B0044643783E2B1DD01C
:101D4000FF2B4FD0052B02D0012003B030BD82887D
:101D50002A4BDB8A9A420BD00120FFF735FF284837
:101D600001230370254BDB8A438000F07FF8EBE70B
:101D7000224B0022DA8283F88020EDE7C378012B22
:101D80000AD00C2BE0D10DF106020DF107011B4B1F
:101D9000D88A04F0ECFBD7E7184D95F88100FFF7DF
:101DA0003DFA95F88030042B18D0144B052283F8A7
:101DB0008020B4F80530114AD382114C00222270E1
:101DC0006380204600F052F8608804F0ABFA40F6D9
:101DD00048029C21608804F097FBB5E7062285F84D
:101DE0008020E6E7B0F8032040F60E439A42ABD1DC
:101DF000024BD88A04F0C0FAA6E700BFDC1C002022
:101E0000601D002008B50021022005F0F3FF08BD89
:101E100008B5012006F01CF808BD08B5012006F041
:101E2000D5F808BD08B50378012B0AD0032B0FD0D5
:101E300003B108BD094B01221A700948FEF7B6FA32
:101E4000F7E7064B00221A700648FEF7AFFAF0E7F4
:101E500043681A78044B1A70EBE700BF6A1D002034
:101E6000BC9E0008D89E00087E0000207047704786
:101E700010B5064C636843F400236360044B1B6891
:101E800098474FF40023A36010BD00BF000C00581A
:101E90006C1D002082B04FF0B043D3F8502142F4C3
:101EA0008012C3F85021D3F8503103F4801301930A
:101EB000019B0A4B1A6A42F400721A62D3F8D420CA
:101EC00042F40072C3F8D42040BF20BF044AD36854
:101ED00043F40043D36002B0704700BF00080058CD
:101EE0000004005800B583B04FF0B0431A6D42F4BF
:101EF00080121A651B6D03F480130193019B094B3B
:101F00001A6842F001021A601A6842F480321A60BC
:101F10002C2003F0D3F92D2003F0D0F903B05DF8A5
:101F200004FB00BF000C0058024A536823F0010371
:101F300053607047000C0058024B4FF480329A6097
:101F4000704700BF000C005808B5044A536843F4BA
:101F50000013536003F0F0FD08BD00BF000C0058F3
:101F600008B503F0D1FD024B01229A6008BD00BF05
:101F7000000C0058024A536823F002035360704774
:101F8000000C0058044B4FF400329A605A6822F457
:101F900000325A60704700BF000C005808B5044A70
:101FA000536843F40033536003F0FAFD08BD00BFEB
:101FB000000C005808B5144BDB6813F0020F04D175
:101FC000114B5B6813F4003F14D00F4BDB6813F028
:101FD000080F04D10C4B5B6813F4002F0DD00A4B93
:101FE000DB6813F0200F04D1074B5B6813F4001F6C
:101FF00006D008BDFFF7D2FFFBE7FFF739FFF8E790
:10200000FFF7A2FFF5E700BF000C005808B503F08A
:10201000D5FD024B02229A6008BD00BF000C00589B
:1020200008B5094BDB6813F0080F05D18047064B54
:102030004FF400229A6008BD044B1860024A5368AE
:1020400023F400235360F6E7000C00586C1D0020B9
:10205000024A536823F0080353607047000C00588D
:1020600008B503F007FE024B08229A6008BD00BFC6
:10207000000C005808B5144BDB6913F0020F0AD1AD
:10208000114BDB6913F0010F0DD10F4BDB6913F01E
:10209000080F10D108BD0C4B5B6813F0020FEFD195
:1020A000FFF7B4FFF6E7084B5B6813F0010FECD1C4
:1020B000FFF756FFEEE7044B5B6813F0080FE9D11A
:1020C000FFF7CEFFE6E700BF000C005838B512F46A
:1020D000804F43D00468B4F8503091F800C04FEA04
:1020E000CC0E1EFA83F32344B3F80244C4F309046C
:1020F0008B69A34228D31B1B8B618B697BB9056855
:1021000035F82C309BB223F4804323F0700383F422
:10211000005343F4004343F0800325F82C3012F0C1
:10212000400F0ED002680D7832F825309BB223F4B0
:10213000E04323F0700343F4004343F0C00322F86C
:10214000253024B9204638BD00238B61D5E72346CE
:102150000A894969006801F02CFFF3E70468B4F8C4
:10216000503091F800C04FEACC0E1EFA83F323449E
:10217000B3F80644C4F309048B69A3422FD31B1B95
:102180008B618B697BB9056835F82C309BB223F4E1
:10219000804323F0700383F4005343F4004343F07F
:1021A000800325F82C3012F0400F0FD1026891F80F
:1021B00000C032F82C309BB223F4E04323F07003CC
:1021C00043F4004343F0C00322F82C30002CB9D074
:1021D00023464A894969006801F0EBFEB2E7002313
:1021E0008B61CEE7002856D010B5044690F89132A6
:1021F0003BB1032384F89132206800F067FF00238D
:1022000015E080F89032FFF779F9F2E703EB8302EB
:1022100004EBC2020121517413740021D1741162C4
:102220005162013303EB8302D200A150DBB220796B
:102230009842EBD8002316E003EB830204EBC202C2
:10224000002182F8511182F8503182F85311C2F8FE
:102250006011C2F8641103EB830204EBC202C2F8FE
:1022600068110133DBB29842E6D8234653F8040BD9
:1022700093E8060000F034FF00232373012384F861
:102280009132A37A012B01D0002010BD204600F02E
:10229000FEFE0020F9E70120704790F89032012BF4
:1022A0000ED010B50446012380F89032006800F08B
:1022B00004FF206801F073FA002084F8900210BD3A
:1022C0000220704770B505460C46164612F0400FC6
:1022D00000F00A810268B2F850300978C80010FA9C
:1022E00083F31344B3F80224C2F30902A3699342AF
:1022F0004DD99B1AA361A369002B64D16378002B8D
:1023000048D12A68B2F8503012FA83F30344B3F884
:102310000224C2F30902A3F80224B3F802246FEAEC
:1023200042426FEA524292B2A3F8022429686278CC
:10233000002A3BD1B1F8503011FA83F3227803EB35
:10234000C203B3F80624C2F30902A3F80624B3F8C3
:1023500006246FEA42426FEA524292B2A3F8062480
:1023600021782846FFF72AF916F4804F40D02A68D2
:10237000217832F821309BB223F4E04323F070033C
:1023800043F4404343F0800322F8213030E000233F
:10239000A361B0E7012BC9D12A68B2F8503012FA14
:1023A00083F303440022A3F80224BFE7012AD7D114
:1023B000B1F8503011FA83F3217803EBC103002206
:1023C000A3F80624CCE716F4804F0DD0286830F827
:1023D00021309BB223F4E04323F0700343F44043E5
:1023E00043F0800320F8213094F82430012B12D0E0
:1023F0002A68217832F821309BB223F4E04323F09D
:10240000400383F0300343F4004343F0800322F899
:102410002130002070BD636913446361E369134494
:10242000E361216A2369994224D3C91A216262783F
:10243000002A44D12968B1F8502011FA82F221789B
:1024400002EBC102B2F80214C1F30901A2F80214AE
:102450003E2B1BD9580913F01F0F00D10138B2F8D9
:10246000021489B2800280B2014341F40041A2F813
:10247000021426E021B9002384F824301346D6E75D
:10248000002384F8243023620B46D0E74BB9B2F81E
:1024900002146FEA41416FEA514189B2A2F8021475
:1024A0000FE0590813F0010F00D00131B2F8020417
:1024B00080B2890289B20143A2F8021401E0012A24
:1024C00006D09BB222896169286801F077F98FE70D
:1024D0002968B1F8502011FA82F2217802EBC1028A
:1024E00099B2A2F80214ECE70268B2F85030097809
:1024F000C80010FA83F31344B3F80624C2F30902A8
:10250000A36993424ED39B1AA361A369002B65D1A3
:102510006378002B49D12A68B2F8503012FA83F35D
:102520001844B0F80234C3F30903A0F80234B0F839
:1025300002346FEA43436FEA53439BB2A0F802347C
:1025400029686278002A3CD1B1F8503011FA83F33F
:10255000227803EBC203B3F80624C2F30902A3F8FE
:102560000624B3F806246FEA42426FEA524292B25E
:10257000A3F8062421782846FFF720F816F4804FA8
:102580007FF436AF2A68217832F821309BB223F4E9
:10259000E04323F0700343F4404343F0800322F808
:1025A000213025E70023A361AFE7012BC8D12A68BA
:1025B000B2F8503012FA83F318440023A0F8023422
:1025C000BEE7012AD6D1B1F8503011FA83F3217851
:1025D00003EBC1030022A3F80624CBE716F4804FD7
:1025E0000DD1286830F821309BB223F4E04323F06A
:1025F000700343F4404343F0800320F8213094F803
:102600002430012B7FF4F4AE636913446361E36902
:102610001344E361216A2369994224D3C91A2162D0
:1026200029686278002A43D1B1F8502011FA82F269
:10263000217802EBC102B2F80614C1F30901A2F835
:1026400006143E2B1BD9580913F01F0F00D1013877
:10265000B2F8061489B2800280B2014341F400410D
:10266000A2F8061426E021B9002384F8243013468A
:10267000D6E70023236284F824300B46D0E74BB919
:10268000B2F806146FEA41416FEA514189B2A2F8EB
:1026900006140FE0590813F0010F00D00131B2F811
:1026A000060480B2890289B20143A2F8061401E04F
:1026B000012A06D09BB262896169286801F07EF820
:1026C00096E6B1F8502011FA82F2217802EBC102AD
:1026D00099B2A2F80614EDE72DE9F0410546286805
:1026E000B0F8443013F4004F00F08A82B0F8444050
:1026F000A3B214F00F0440F0D88013F0100F69D08B
:1027000003889AB213F4006F40F0958012F4004FE2
:10271000E5D0038823F070031B051B0D43F08003F5
:1027200003802868B0F8503095F85021D20012FA92
:1027300083F30344B3F80634C3F30903C5F86C31DB
:102740008BB1D5F8641171B1B5F8562101F031FCA7
:10275000D5F86C21D5F864311344C5F864310021F3
:102760002846FEF71FFF2A68138899B213F4006FFA
:10277000B5D101F44051B1F5405FB0D0B2F850305E
:1027800012FA83F2B2F80634C3F30903A2F806344E
:10279000D5F860313E2B6FD9590913F01F0F00D1C6
:1027A0000139B2F806349BB2890289B20B4343F473
:1027B0000043A2F806342A6813889BB223F48043AE
:1027C00023F0700383F4405343F4004343F0800349
:1027D000138084E703889BB223F4E14323F0700362
:1027E0006FEA43436FEA53439BB203802968B1F811
:1027F00050302A7CD20012FA83F30B44B3F802342F
:10280000C3F30903EB626A6A13446B620021284632
:10281000FEF7D4FE2B7B002B3FF461AFAB6A002B9D
:102820007FF45DAF2B7B2A6843F08003A2F84C3025
:1028300000232B7353E7B0F8503095F85021D200A5
:1028400012FA83F30344B3F80634C3F30903C5F85B
:102850006C31B5F8562105F5267101F0AAFB2A68FE
:10286000138823F070031B051B0D43F080031380B6
:102870002846FEF78FFE32E74BB9B2F806346FEA0E
:1028800043436FEA53439BB2A2F8063493E75908D7
:1028900013F0010F00D00131B2F8063498B28B0268
:1028A0009BB20343A2F8063485E730F824309EB289
:1028B00013F4004F4ED116F0800F3FF410AF04EB2D
:1028C0008401C900103129442A6832F824309BB2AF
:1028D00023F4E14323F070036FEA43436FEA534369
:1028E0009BB222F8243004EB840305EBC303DB7CAA
:1028F000012B00F0E98016F4807F40F07C8128688D
:10290000B0F8503004EB840205EBC202167CF200F2
:1029100012FA83F30344B3F80234C3F30903621CCD
:1029200002EB820255F832209A4240F24B81671C3A
:1029300007EB8707D21A45F83720621C02EB8202A8
:1029400055F83220002A40F0448131462846FEF7EF
:1029500035FEC4E630F8243023F070031B051B0D50
:1029600043F0800320F8243004EB8401C90001F512
:10297000A87105EB010804EB840305EBC30393F88E
:102980005C31002B40D12868B0F8503004EB840251
:1029900005EBC20292F85021D20012FA83F30344ED
:1029A000B3F80674C7F3090717BB04EB840305EB00
:1029B000C303D3F86C213A44C3F86C21D3F86421E3
:1029C0003A44C3F86421D3F868313BB104EB840383
:1029D00005EBC303D3F860319F4270D204EB84034C
:1029E00005EBC30393F850112846FEF7DBFD62E7C1
:1029F00004EB840105EBC1013B46B1F85621D1F847
:102A0000641101F0D6FAD0E704EB840305EBC303AD
:102A100093F85331022B33D0296804EB840205EB81
:102A2000C20292F8500131F820309BB223F4E04307
:102A300023F0700343F4004343F0C00321F8203037
:102A4000286892F8503130F8232012F4804F1ED0BD
:102A5000B0F85020DB0013FA82F30344B3F8027499
:102A6000C7F30907002FA0D004EB840105EBC101D7
:102A70003B46B1F85821D1F8641101F09AFA94E775
:102A8000324641462846FFF721FB07468DE7B0F85E
:102A90005020DB0013FA82F30344B3F80674C7F343
:102AA0000907002F81D004EB840105EBC1013B46EF
:102AB000B1F85A21D1F8641101F07BFA75E741466B
:102AC000286800F08FFEF6E6631C03EB8303DB004F
:102AD0000022EA5004EB840305EBC3031B7F1BB306
:102AE00016F0400F3BD004EB840305EBC3035B7C83
:102AF0001BBB2A68B2F8503012FA83F304EB84024D
:102B000005EBC202127C03EBC203B3F80224C2F34A
:102B10000902A3F80224B3F802246FEA42426FEAE2
:102B2000524292B2A3F8022404EB840405EBC404DD
:102B3000217C2846FEF742FDD1E5012BF4D12A681D
:102B4000B2F8503012FA83F304EB840205EBC202B0
:102B5000127C03EBC2030022A3F80224E4E72A68F4
:102B600004EB840305EBC3035B7CD3B9B2F85030AC
:102B700012FA83F304EB840205EBC202127C03EB2E
:102B8000C203B3F80624C2F30902A3F80624B3F87B
:102B900006246FEA42426FEA524292B2A3F8062438
:102BA000C2E7012BC0D1B2F8503012FA83F304EB24
:102BB000840205EBC202127C03EBC2030022A3F8DD
:102BC0000624B1E7621C02EB8202D2000027AF505C
:102BD000B3E604EB840205EBC202566A1E44566259
:102BE000013404EB840205EBC202546823445360B1
:102BF00000F0F8FD73E532462846FFF763FB6EE50B
:102C00000020BDE8F08190F89032012B0CD010B577
:102C10000446012380F890320173006800F0B9FD8A
:102C2000002084F8900210BD0220704710B50446C1
:102C3000006800F0BFFD10F4004F23D110F4806F46
:102C400024D110F4804F32D110F4005F39D110F448
:102C5000805F40D110F4006F67D110F0800F40F01A
:102C6000818010F4007F40F0AD8010F4807F27D089
:102C70002268B2F844309BB223F480739BB2A2F86E
:102C800044301DE02046FFF727FD19E02268B2F826
:102C900044309BB223F480639BB2A2F844302046B8
:102CA000FEF79DFC00212046FFF7ADFF08E02268FB
:102CB000B2F844309BB223F480439BB2A2F8443074
:102CC00010BD2268B2F844309BB223F400539BB28B
:102CD000A2F84430F4E72268B2F840309BB223F007
:102CE00004039BB2A2F840302268B2F840309BB295
:102CF00023F008039BB2A2F8403094F8C832012BAD
:102D00000CD02046FEF78EFC2268B2F844309BB20D
:102D100023F480539BB2A2F84430D1E7002184F819
:102D2000C8122046FEF73AFDEBE72268B2F84030C1
:102D30009BB243F00803A2F840302268B2F8443056
:102D40009BB223F400639BB2A2F844302268B2F82D
:102D500040309BB243F00403A2F840302046FEF717
:102D600051FCADE72268B2F844309BB223F08003F7
:102D70009BB2A2F8443094F8C832FBB92268B2F88A
:102D800040309BB243F00403A2F840302268B2F80E
:102D900040309BB243F00803A2F84030012184F890
:102DA000C8122368B3F85430C3F38D0303F03C0317
:102DB000C4F8CC322046FEF7F1FC81E72046FEF74E
:102DC00021FC7DE72268B2F844309BB223F4007303
:102DD0009BB2A2F844302046FEF7FBFB70E710B52B
:102DE0000446084611F0800F26D101F0070C0CEBC9
:102DF0008C0E4FEACE0E0EF5A87E04EB0E010CEB06
:102E00008C0C04EBCC0C4FF0000E8CF851E100F070
:102E1000070008700A61CB70022B1DD094F8903225
:102E2000012B1CD0012384F89032206800F069F94E
:102E3000002084F8900210BD01F0070C0CEB8C010F
:102E4000C900103121440CEB8C0C04EBCC0C4FF07E
:102E5000010E8CF811E0DAE700230B71DEE70220A7
:102E6000E9E710B504460A4611F0800F1FD101F0C2
:102E7000070000EB8003DB0003F5A873E11800EB0B
:102E8000800004EBC000002380F8513102F00702FB
:102E90000A7094F89032012B17D0012384F89032F5
:102EA000206800F015FB002084F8900210BD01F0AE
:102EB000070000EB8003DB001033E11800EB80001B
:102EC00004EBC00001234374E0E70220EEE710B5F5
:102ED00001F0070C0CEB8C01C90001F5A8710CEB9B
:102EE0008C0E00EBCE0ECEF86421CEF868310024B3
:102EF000CEF86C418EF851418EF850C10144006803
:102F000000F070FC204610BD01F0070101EB8101CB
:102F100000EBC101D1F86C01704738B501F0070C26
:102F20000CEB8C01C90010310CEB8C0E00EBCE0EBB
:102F3000CEF824200CF1010202EB820440F8343078
:102F400001258EF83450CEF8303000EBC402002456
:102F500054608EF811508EF810C00144006800F0E3
:102F600041FC204638BD0B4601F007020179914231
:102F70002ED310B5044613F0800F1DD103EB83014F
:102F8000C90001F5A871014403EB830300EBC303FF
:102F9000002083F8510101238B700A7094F890325D
:102FA000012B17D0012384F89032206800F07BFBBE
:102FB000002084F8900210BD02EB8201C90010319C
:102FC000014402EB820300EBC30301205874E2E7E3
:102FD000012070470220EEE70B46017903F00F0253
:102FE000914234D310B5044613F0800F21D103F081
:102FF000070202EB8201C90001F5A871014402EB4E
:10300000820200EBC202002082F8510100228A7085
:1030100003F007030B7094F89032012B19D00123B1
:1030200084F89032206800F063FB002084F890025E
:1030300010BD03F0070202EB8201C9001031014408
:1030400002EB820200EBC20201205074DEE7012095
:1030500070470220ECE711F0800F0BD001F0070160
:1030600001EB8101C9001031014452B90A73CB80D0
:103070000020704701EB8101C90001F5A8710144EE
:10308000F3E701220A730B811B0C4B81F0E7034627
:1030900002680121C0F8D012002083F8C802B2F8FB
:1030A00054309BB20B43A2F85430B2F854309BB268
:1030B00043F00203A2F85430704703460020A3F8FF
:1030C00044004BF68072A3F840207047B0F84030BF
:1030D00023F47E535B045B0CA0F840300020704763
:1030E00082B0034602A800E906000122A3F84020AE
:1030F0000020A3F84000A3F84400A3F8500002B059
:10310000704710B503460A7830F822C01FFA8CFCCD
:103110002CF4EC4C2CF0700C1FFA8CFCC8780328B3
:1031200062D8DFE800F0565D0259002048F2800EB8
:103130004CEA0E0C23F822C091F800C033F82C2082
:1031400012B222F4E04222F070024CEA020292B281
:1031500042EA0E0223F82C200A7B002A40F0DC8091
:103160004A78002A51D0B3F8502013FA82F20C7832
:1031700002EBC402B1F806C04FEA5C0C4FEA4C0CFB
:10318000A2F800C40C7833F8242012F0400F0CD0C1
:1031900033F8242092B222F4E04222F0700242F48A
:1031A000004242F0C00223F82420CA78012A1DD030
:1031B000097833F8212092B222F4E04222F0400252
:1031C00082F0200242F4004242F0800223F82120E3
:1031D00017E14CF4007CA9E74CF4C06C0020A5E793
:1031E0004CF4806C0020A1E701209FE7097833F8B8
:1031F000212092B222F4E04222F0400242F4004246
:1032000042F0800223F82120FBE0B3F8502013FAAB
:1032100082F20C7802EBC402B1F806C04FEA5C0CF3
:103220004FEA4C0CA2F804C4B3F8502013FA82F20F
:103230000C7802EBC402B2F806C4CCF3090CA2F875
:1032400006C40C693E2C39D94FEA541E14F01F0FE6
:1032500001D10EF1FF3EB2F806C41FFA8CFC4FEA12
:103260008E2E1FFA8EFE4CEA0E0C4CF4004CA2F887
:1032700006C40C7833F8242012F4804F0CD033F8B5
:10328000242092B222F4E04222F0700242F4404242
:1032900042F0800223F82420097869BB33F821200A
:1032A00092B222F4804222F0700282F4405242F440
:1032B000004242F0800223F82120A2E04CB9B2F88B
:1032C00006446FEA44446FEA5444A4B2A2F80644A8
:1032D000CFE74FEA540C14F0010F01D00CF1010CB0
:1032E000B2F80644A4B24FEA8C2C1FFA8CFC44EAD4
:1032F0000C0CA2F806C4BCE733F8212092B222F4E9
:10330000804222F0700282F4005242F4004242F005
:10331000800223F8212074E0CA78022A72D00C7847
:1033200033F8242092B222F4E24222F0700242F4F6
:10333000004242F0800223F82420B3F8502013FA10
:1033400082F291F800C002EBCC02B1F808C04FEA5B
:103350005C0C4FEA4C0CA2F800C4B3F8502013FAEE
:1033600082F291F800C002EBCC02B1F80AC04FEA39
:103370005C0C4FEA4C0CA2F804C44A78002A50D1E5
:103380000C7833F8242012F4804F0CD033F824202A
:1033900092B222F4E04222F0700242F4404242F043
:1033A000800223F824200C7833F8242012F0400FF8
:1033B0000CD033F8242092B222F4E04222F07002C2
:1033C00042F4004242F0C00223F8242091F800C0E9
:1033D00033F82C2092B222F4804222F0700282F460
:1033E000405248F28004224323F82C20097833F815
:1033F000212092B222F4E04222F04002224323F83C
:10340000212010BD0C7833F8242092B222F4E0423F
:1034100022F0700242F4014242F0800223F824209C
:103420008BE70C7833F8242012F4804F0CD033F85B
:10343000242092B222F4E04222F0700242F4404290
:1034400042F0800223F824200C7833F8242012F074
:10345000400F0CD033F8242092B222F4E04222F044
:10346000700242F4004242F0C00223F82420CA78DD
:10347000012A1ED00C7833F8242092B222F4E042C4
:1034800022F0400282F0200242F4004242F0800228
:1034900023F82420097833F8212092B222F48042C4
:1034A00022F0700242F4004242F0800223F8212010
:1034B000A7E70C7833F8242092B222F4E04222F0FD
:1034C000400242F4004242F0800223F82420E1E767
:1034D0000B7B002B46D14B7813B30A7830F822309F
:1034E00013F0400F0CD030F822309BB223F4E043AD
:1034F00023F0700343F4004343F0C00320F822306C
:103500000A7830F822309BB223F4E04323F04003E2
:1035100043F4004343F0800320F82230002070473A
:103520000A7830F8223013F4804F0CD030F8223073
:103530009BB223F4E04323F0700343F4404343F091
:10354000800320F822300A7830F822309BB223F42E
:10355000804323F0700343F4004343F0800320F8DA
:103560002230DBE74B78002B4ED10A7830F822303E
:1035700013F4804F0CD030F822309BB223F4E04398
:1035800023F0700343F4404343F0800320F82230DB
:103590000A7830F8223013F0400F0CD030F8223087
:1035A0009BB223F4E04323F0700343F4004343F061
:1035B000C00320F822300A7830F822309BB223F47E
:1035C000E04323F0700343F4004343F0C00320F8CA
:1035D00022300B7830F8232092B222F4804222F07D
:1035E000700248F2800C42EA0C0220F823200A788C
:1035F00030F822309BB223F4E04323F0400343EA47
:103600000C0320F8223089E70A7830F8223013F4CE
:10361000804F0CD030F822309BB223F4E04323F0EB
:10362000700343F4404343F0800320F822300A78CB
:1036300030F8223013F0400F0CD030F822309BB21B
:1036400023F4E04323F0700343F4004343F0C0034A
:1036500020F822300A7830F822309BB223F4E0437D
:1036600023F0700343F4404343F0800320F82230FA
:103670000B7830F8232092B222F4E04222F040028C
:1036800048F2800C42EA0C0220F823200A7830F835
:1036900022309BB223F4804323F0700343EA0C03EF
:1036A00020F822303AE74B788BB10A7830F8223094
:1036B0009BB223F4E04323F0400383F0100343F470
:1036C000004343F0800320F82230002070470A783E
:1036D00030F822309BB223F4804323F0700383F44C
:1036E000805343F4004343F0800320F82230ECE79A
:1036F0000B7B002B4BD14B7833B30A7830F8223058
:1037000013F0400F0CD030F822309BB223F4E0438A
:1037100023F0700343F4004343F0C00320F8223049
:10372000CB78012B33D00A7830F822309BB223F4C7
:10373000E04323F0400383F0200343F4004343F0CD
:10374000800320F8223022E00A7830F8223013F487
:10375000804F0CD030F822309BB223F4E04323F0AA
:10376000700343F4404343F0800320F822300A788A
:1037700030F822309BB223F4804323F0700383F4AB
:10378000405343F4004343F0800320F822300020EC
:10379000704711B98023A0F84C3000207047B0F872
:1037A00058306FEA43436FEA53439BB2A0F8583056
:1037B00000207047B0F8440080B2704710B45C1C21
:1037C0006408024402F5806207E00B78487843EA17
:1037D000002322F8023B0231013C002CF5D15DF8B8
:1037E000044B704770B505460C464A78012A3BD019
:1037F0000B7B002B40F0A6828B690A69934240F252
:1038000084829B1A8B61B5F8503015FA83F32178C6
:1038100003EBC103B3F80614C1F30901A3F80614BE
:103820003E2A40F27682510912F01F0F00D1013971
:10383000B3F8062492B2890289B20A4342F40042E4
:10384000A3F80624227835F822309BB223F4804373
:1038500023F0700383F4405343F4004343F08003A8
:1038600025F82230002070BD8E6909698E4200D98A
:103870000E46237B73B3E378022B4DD0236A9B1B48
:103880002362237835F8231011F0400F00F0F58102
:10389000002A40F0E281B5F8502015FA82F202EBDE
:1038A000C303B3F80624C2F30902A3F806243E2E8C
:1038B00040F2BA81710916F01F0F00D10139B3F837
:1038C000062492B2890289B20A4342F40042A3F864
:1038D0000624CBE1B6B23346E28861692846FFF799
:1038E0006DFFB5F8503015FA83F3227803EBC2036D
:1038F000A3F80264227835F822309BB223F4E04327
:1039000023F0400383F0300343F4004343F080038B
:1039100025F822300020A6E7236A994280F06681CC
:10392000227835F822309BB223F4E04323F0700371
:1039300043F4014343F0800325F82230236A9B1BA4
:103940002362237835F8232012F0400F00F0A7807F
:103950006278B2BBB5F8502015FA82F202EBC303CD
:10396000B3F80624C2F30902A3F806243E2E0FD9A9
:10397000710916F01F0F00D10139B3F8062492B275
:10398000890289B20A4342F40042A3F806241AE0ED
:103990004EB9B3F806246FEA42426FEA524292B23D
:1039A000A3F806240FE0720816F0010F00D00132D0
:1039B000B3F8061489B2920292B20A43A3F806241D
:1039C00001E0012A30D0B3B2628961692846FFF76D
:1039D000F5FE636933446361236A226993422DD9FA
:1039E0009B1B23626378002B45D1B5F8503015FA44
:1039F00083F3227803EBC203B3F80224C2F3090273
:103A0000A3F802243E2E1DD9710916F01F0F00D114
:103A10000139B3F8022492B2890289B20A4342F40E
:103A20000042A3F8022428E0B5F8502015FA82F2EB
:103A300002EBC303B2B2A3F80624C4E70022226259
:103A40001E46CFE74EB9B3F802246FEA42426FEA4E
:103A5000524292B2A3F802240FE0720816F0010F4E
:103A600000D00132B3F8021489B2920292B20A4332
:103A7000A3F8022401E0012B06D0B3B222896169C8
:103A80002846FFF79BFE35E7B5F8503015FA83F36B
:103A9000227803EBC203B2B2A3F80224EDE7627806
:103AA000B2BBB5F8502015FA82F202EBC303B3F8AB
:103AB0000224C2F30902A3F802243E2E0FD9710991
:103AC00016F01F0F00D10139B3F8022492B2890217
:103AD00089B20A4342F40042A3F802241AE04EB924
:103AE000B3F802246FEA42426FEA524292B2A3F85C
:103AF00002240FE0720816F0010F00D00132B3F873
:103B0000021489B2920292B20A43A3F8022401E09D
:103B1000012A30D0B3B2228961692846FFF74EFEF0
:103B2000636933446361236A226993422DD99B1BE5
:103B300023626378002B45D1B5F8503015FA83F332
:103B4000227803EBC203B3F80624C2F30902A3F8F8
:103B500006243E2E1DD9710916F01F0F00D1013920
:103B6000B3F8062492B2890289B20A4342F40042B1
:103B7000A3F8062428E0B5F8502015FA82F202EBEB
:103B8000C303B2B2A3F80224C4E7002222621E4695
:103B9000CFE74EB9B3F806246FEA42426FEA5242C9
:103BA00092B2A3F806240FE0720816F0010F00D0BD
:103BB0000132B3F8061489B2920292B20A43A3F812
:103BC000062401E0012B06D0B3B262896169284660
:103BD000FFF7F4FD8EE6B5F8503015FA83F322783E
:103BE00003EBC203B2B2A3F80624EDE7217835F85F
:103BF000212092B222F4E24222F0700242F400420A
:103C000042F0800225F82120B5F8502015FA82F202
:103C1000217802EBC1029BB2A2F8023422896169C9
:103C20002846FFF7CBFD65E64EB9B3F806246FEAE8
:103C300042426FEA524292B2A3F8062416E072089A
:103C400016F0010F00D00132B3F8061489B29202C7
:103C500092B20A43A3F8062408E0B5F8502015FAFA
:103C600082F202EBC303B2B2A3F80624B3B26289B4
:103C700061692846FFF7A2FD3CE6B2BBB5F85020CB
:103C800015FA82F202EBC303B3F80224C2F309026D
:103C9000A3F802243E2E0FD9710916F01F0F00D190
:103CA0000139B3F8022492B2890289B20A4342F47C
:103CB0000042A3F8022421E04EB9B3F802246FEACF
:103CC00042426FEA524292B2A3F8022416E072080E
:103CD00016F0010F00D00132B3F8021489B292023B
:103CE00092B20A43A3F8022408E0B5F8502015FA6E
:103CF00082F202EBC303B2B2A3F80224B3B2228968
:103D000061692846FFF75AFDF4E500228A611A46E8
:103D100079E54AB9B3F806246FEA42426FEA5242A3
:103D200092B2A3F806248DE5510812F0010F00D0DD
:103D30000131B3F8062492B2890289B21143A3F883
:103D400006147FE5CB78022B4DD0012B40F02F815C
:103D500089692369994240F2E680C91AA161F2B9E2
:103D6000B5F8502015FA82F2217802EBC102B2F8C0
:103D70000214C1F30901A2F802143E2B40F2D780CD
:103D8000580913F01F0F00D10138B2F8021489B29C
:103D9000800280B2014341F40041A2F8021462782B
:103DA000002A40F0F680B5F8502015FA82F221780A
:103DB00002EBC102B2F80614C1F30901A2F806141D
:103DC0003E2B40F2CD80590913F01F0F00D101396D
:103DD000B2F806349BB2890289B20B4343F4004324
:103DE000A2F806342EE5F2B9B0F8503010FA83F399
:103DF0000A7803EBC203B3F80224C2F30902A3F862
:103E000002240A693E2A31D9510912F01F0F00D14C
:103E10000139B3F8022492B2890289B20A4342F40A
:103E20000042A3F802246378002B51D1B5F850303A
:103E300015FA83F3227803EBC203B3F80624C2F326
:103E40000902A3F8062422693E2A28D9510912F052
:103E50001F0F00D10139B3F8062492B2890289B24A
:103E60000A4342F40042A3F8062433E04AB9B3F807
:103E700002246FEA42426FEA524292B2A3F802244D
:103E8000D1E7510812F0010F00D00131B3F802243C
:103E900090B28A0292B20243A3F80224C3E74AB95D
:103EA000B3F806246FEA42426FEA524292B2A3F894
:103EB00006240FE0510812F0010F00D00131B3F8D1
:103EC000062490B28A0292B20243A3F8062401E0CB
:103ED000012B1DD0E369002B3FF4B4AC227835F8F8
:103EE000221044F2400303EA01008B4302D0002871
:103EF0007FF4A8AC35F822309BB223F4E04323F0E2
:103F0000700343F4004343F0C00325F8223099E4E2
:103F1000B5F8503015FA83F3227803EBC203228AF6
:103F2000A3F80624D6E70023A3610B4617E74BB995
:103F3000B2F802146FEA41416FEA514189B2A2F826
:103F400002142CE7590813F0010F00D00131B2F828
:103F5000020480B2890289B20143A2F802141EE76A
:103F60004BB9B2F806346FEA43436FEA53439BB24E
:103F7000A2F8063466E4590813F0010F00D00131AD
:103F8000B2F8063498B28B029BB20343A2F806340F
:103F900058E4012A7FF456ACB5F8502015FA82F2A5
:103FA000217802EBC1029BB2A2F806344AE4012058
:103FB00059E410B45C08104400F5806007E030F864
:103FC000022B0A70C2F307224A700231013C002C16
:103FD000F5D113F0010F01D003880B705DF8044B8D
:103FE0007047000030B58DB005468E462B4C94E8E6
:103FF0000F000DF1300C0CE90F0005AB04F11002BD
:1040000007CA83E807000DF1040C1C3494E80F0084
:104010008CE80F00BEF5007F07D0002314E00CAA47
:1040200002EB830353F82C5C1EE00023032B08D81B
:104030000CAA02EB830252F8102CAA42EFD20133F1
:10404000F4E7002510E00133022B0CD80CAA02EB98
:10405000830252F81C2CAA42F5D30CAA02EB83036C
:1040600053F82C5C00E000250D4A136823F0070389
:104070002B43136001F0BCF90446094B1B6803F0A5
:104080000703AB4206D001F0B3F9001B0228F4D9B4
:10409000032000E000200DB030BD00BF509C0008A0
:1040A0000040005810B5B02816D90E4BDC6A4FF00E
:1040B000B043D3F8083103F00F030B4A52F8230042
:1040C000B4FBF0F401F0A0F801460848A0FB04306E
:1040D000800CFFF787FF10BDC0F30310014B53F8AE
:1040E0002040E4E7389F0008F89E000883DE1B4369
:1040F0004FF0B0439B6813F00C030DD14FF0B04369
:104100001B6803F0F003B02B04D81B09254A52F8B2
:1041100023007047B023F8E7042B3ED0082B10D0C3
:104120004FF0B043DB6803F00303022B31D0032BC5
:104130000FD14FF0B0431B6813F4801F2BD11A48E6
:1041400012E04FF0B0431B6813F4801F27D01748CC
:1041500070474FF0B0431B6803F0F003B02B16D844
:104160001B09104A52F823004FF0B042D368C3F342
:10417000062303FB00F0D368C3F302130133B0FB43
:10418000F3F0D3685B0F0133B0FBF3F07047B0235B
:10419000E6E70648E8E70548E6E7044870470248CE
:1041A000704700BF389F00080048E8010024F40071
:1041B00008B5FFF79DFF4FF0B0439B68C3F30313AF
:1041C000024A52F82330B0FBF3F008BDF89E000815
:1041D000002800F0728338B50446036813F0200FFE
:1041E0002DD04FF0B0429368D26802F0030213F072
:1041F0000C0358D00C2B54D0E369002B00F0A080A6
:104200004FF0B042136843F00103136001F0F0F87F
:1042100005464FF0B0431B6813F0020F00F0888092
:10422000636A4FF0B042116821F0F0010B43136054
:10423000216A536823F47F4343EA012353602368D0
:1042400013F0010F00F09A804FF0B042936803F032
:104250000C03D26802F00302082B00F08B800C2BB9
:1042600000F085806368B3F5803F00F0B0804FF0C8
:10427000B042136823F4803313606368002B00F0AE
:10428000AD8001F0B5F805464FF0B0431B6813F45C
:10429000003F73D101F0ACF8401B6428F4D903202F
:1042A00016E3012AA8D1E369002B00F00883606AB5
:1042B0004FF0B0431B6803F0F003B02B21D89842B5
:1042C00021D9FFF7EFFE002840F0FB82636A4FF030
:1042D000B042116821F0F0010B431360216A53686A
:1042E00023F47F4343EA01235360FFF761FFBF4B91
:1042F0001860BF4B186801F031F800289FD00120EA
:10430000E6E2B023DBE74FF0B042136823F0F0039E
:1043100018431060216A536823F47F4343EA012362
:104320005360606AFFF7BEFE0028DED00120CFE2B6
:1043300001F05EF8401B02287FF66BAF0320C7E256
:104340004FF0B042136823F00103136001F050F8FE
:1043500005464FF0B0431B6813F0020F3FF46FAFF8
:1043600001F046F8401B0228F3D90320B0E2032AEB
:104370007FF478AF6368002B00F0A582236813F008
:10438000020F54D04FF0B042936803F00C03D26890
:1043900002F00302042B33D00C2B2FD0E368002B48
:1043A00071D04FF0B042136843F48073136001F092
:1043B0001FF805464FF0B0431B6813F4806F2DD1F2
:1043C00001F016F8401B0228F4D9032080E24FF0D8
:1043D000B042136843F4803313604EE701F008F8ED
:1043E00005464FF0B0431B6813F4003FC6D000F001
:1043F000FFFF401B6428F4D9032069E2022ACDD1D3
:10440000E368002B00F0618221694FF0B0425368ED
:1044100023F0FE4343EA0163536008E021694FF053
:10442000B042536823F0FE4343EA016353602368BC
:1044300013F0180F00F0DE806269002A00F0A380FC
:1044400013F0100F70D04FF0B043D3F8943013F046
:10445000020F2ED14FF0B042D2F8943043F0010356
:10446000C2F8943000F0C4FF05464FF0B043D3F8D3
:10447000943013F0020F1CD100F0BAFF401B022849
:10448000F3D9032024E24FF0B042136823F4807381
:10449000136000F0ADFF05464FF0B0431B6813F406
:1044A000806FC4D000F0A4FF401B0228F4D9032081
:1044B0000EE24FF0B042D2F8943043F00403C2F859
:1044C000943000F095FF05464FF0B043D3F8943098
:1044D00013F0080F06D100F08BFF401B0328F3D91F
:1044E0000320F5E1A1694FF0B042D2F8943023F4F3
:1044F000706343EA0123C2F89430D2F8943023F079
:104500000103C2F8943000F073FF05464FF0B0434A
:10451000D3F8943013F0020F6CD000F069FF401B09
:104520000228F3D90320D3E14FF0B042D2F89430FF
:1045300043F00103C2F8943000F05AFF05464FF0F3
:10454000B043D3F8943013F0020F06D100F050FFBF
:10455000401B0228F3D90320BAE14FF0B042D2F851
:10456000943023F00403C2F894304FF0B043D3F8F2
:10457000943013F0080F3DD000F03AFF401B0328A1
:10458000F3D90320A4E14FF0B042D2F8943023F0E5
:104590000403C2F8943000F02BFF05464FF0B043FF
:1045A000D3F8943013F0080F18D14FF0B042D2F87E
:1045B000943023F00103C2F8943000F019FF05464F
:1045C0004FF0B043D3F8943013F0020F12D000F044
:1045D0000FFF401B0228F3D9032079E100F008FF08
:1045E000401B0328DAD9032072E100BF84000020B9
:1045F00080000020236813F0040F68D0B74B1B68BD
:1046000013F4807F27D0A368012B35D0052B3CD035
:104610004FF0B043D3F8902022F00102C3F890206D
:10462000D3F8902022F00402C3F89020A368DBB3F3
:1046300000F0DEFE05464FF0B043D3F8903013F0A3
:10464000020F44D100F0D4FE401B41F2883398425F
:10465000F1D903203CE100F0CFFD00F0C9FE054692
:104660009E4B1B6813F4807FCDD100F0C1FE401B30
:104670000228F5D903202BE14FF0B042D2F8903058
:1046800043F00103C2F89030D0E74FF0B043D3F8C5
:10469000902042F00402C3F89020D3F8902042F01A
:1046A0000102C3F89020C1E700F0A2FE05464FF0DA
:1046B000B043D3F8903013F0020F08D000F098FE0A
:1046C000401B41F288339842F1D9032000E123686E
:1046D00013F0400F33D0A36AC3B14FF0B042D2F809
:1046E000983043F00103C2F8983000F081FE05468F
:1046F0004FF0B043D3F8983013F0020F1FD100F001
:1047000077FE401B0228F3D90320E1E04FF0B042CE
:10471000D2F8983023F00103C2F8983000F068FE18
:1047200005464FF0B043D3F8983013F0020F06D08F
:1047300000F05EFE401B0228F3D90320C8E0E36AC4
:10474000002B00F0C4804FF0B042916801F00C01E2
:10475000D268022B19D00C2900F0BD804FF0B04276
:10476000136823F08073136000F042FE04464FF09C
:10477000B0431B6813F0007F00F0978000F038FE14
:10478000001B0228F3D90320A2E002F00303206BF0
:1047900083420AD00C2900F09C804FF0B0431B6884
:1047A00013F0806F22D0012092E002F07003606B62
:1047B0008342EFD1C2F30623A06B8342EAD102F415
:1047C0007813E06B8342E5D102F06063206C834292
:1047D000E0D102F06042636C9A42DBD14FF0B0430B
:1047E0001B6813F0007F44D0002071E04FF0B0420E
:1047F000136823F08073136000F0FAFD05464FF054
:10480000B0431B6813F0007F06D000F0F1FD401BA1
:104810000228F4D903205BE04FF0B042D36830495E
:104820001940236B606B0343A06B43EA0023E06BEA
:104830000343206C0343606C03430B43D360136852
:1048400043F080731360D36843F08053D36000F06B
:10485000CFFD04464FF0B0431B6813F0007F06D134
:1048600000F0C6FD001B0228F4D9032030E0002030
:104870002EE04FF0B0431A6842F080721A60DA6896
:1048800042F08052DA6000F0B3FD04464FF0B043CE
:104890001B6813F0007F06D100F0AAFD031B022B5A
:1048A000F4D9032014E0002012E04FF0B042D168A8
:1048B0000C4B0B40D36000200AE001207047012020
:1048C00006E0012004E0012002E0012000E00020D9
:1048D00038BD0120FCE70120FAE700BF00040058C2
:1048E0008C80C111FCFFFEEE002800F0278170B51E
:1048F0000C460546934B1B6803F007038B422DD3F0
:104900002B6813F0020F3FD12B6813F0200F53D107
:104910002B6813F0400F6AD12B6813F0040F40F09E
:1049200083802B6813F0080F40F097802B6813F0FA
:10493000010F00F0DE806B68022B00F0A880032BD3
:1049400000F0AD80002B40F0B2804FF0B042126812
:1049500012F0020F40F0B1800120EEE0794A1368B6
:1049600023F007030B43136000F042FD0646754B2E
:104970001B6803F00703A342C2D000F039FD801B7F
:104980000228F4D90320D8E0AB684FF0B0418A6820
:1049900022F0F00213438B6000F02AFD06464FF030
:1049A000B0439B6813F4803FAED100F021FD801B23
:1049B0000228F4D90320C0E06B694FF0B041D1F870
:1049C000082122F0F0021343C1F8083100F010FD75
:1049D00006464FF0B043D3F8083113F4003F97D1A7
:1049E00000F006FD801B0228F3D90320A5E0A96989
:1049F0004FF0B042D2F8083123F00F0343EA11130D
:104A0000C2F8083100F0F4FC06464FF0B043D3F88A
:104A1000083113F4803F7FF47FAF00F0E9FC801B86
:104A20000228F2D9032088E0EB684FF0B0418A6891
:104A300022F4E06213438B6000F0DAFC06464FF08C
:104A4000B0439B6813F4003F7FF46BAF00F0D0FCE1
:104A5000801B0228F3D903206FE029694FF0B04290
:104A6000936823F4605343EAC103936000F0C0FCF1
:104A700006464FF0B0439B6813F4802F7FF456AF87
:104A800000F0B6FC801B0228F3D9032055E04FF05C
:104A9000B042126812F4003F0FD101204DE04FF0F8
:104AA000B042126812F0007F07D1012045E04FF0BC
:104AB000B042126812F4806F42D04FF0B0418A6861
:104AC00022F0030213438B6000F092FC06464FF085
:104AD000B0439B6803F00C036A68B3EB820F08D005
:104AE00000F086FC801B41F288339842EFD9032006
:104AF00023E0144B1B6803F00703A34215D9114AA6
:104B0000136823F007032343136000F071FC05468C
:104B10000C4B1B6803F00703A34206D000F068FCAF
:104B2000401B0228F4D9032007E0FFF741FB064BA6
:104B3000186000F063FC00F011FC70BD01207047AC
:104B40000120FAE7004000588400002070B50546B7
:104B50004FF0B042136823F08063136000F048FC0C
:104B600004464FF0B0431B6813F0006F06D000F00E
:104B70003FFC001B0228F4D9032400E000240CB100
:104B8000204670BD4FF0B0431A6922F4FE422968F6
:104B900042EA01221A611A6922F4781269680A430A
:104BA0001A611A6842F080621A6000F021FC064621
:104BB0004FF0B0431B6813F0006F05D100F018FCF4
:104BC000801B0228F4D90324002CD9D14FF0B04225
:104BD000136929690B431361D2E770B505464FF09D
:104BE000B042136823F08063136000F001FC0446B8
:104BF0004FF0B0431B6813F0006F06D000F0F8FBD5
:104C0000001B0228F4D9032400E000240CB1204644
:104C100070BD4FF0B0431A6922F4FE42296842EA9F
:104C200001221A611A6922F06062A9680A431A61B6
:104C30001A6842F080621A6000F0DAFB06464FF014
:104C4000B0431B6813F0006F05D100F0D1FB801B4F
:104C50000228F4D90324002CD9D14FF0B0421369B3
:104C600029690B431361D2E770B505464FF0B04296
:104C7000136823F08063136000F0BAFB04464FF022
:104C8000B0431B6813F0006F06D000F0B1FB001BAF
:104C90000228F4D9032400E000240CB1204670BDA2
:104CA0004FF0B0431A6922F4FE42296842EA012219
:104CB0001A611A6922F06042E9680A431A611A68A7
:104CC00042F080621A6000F093FB06464FF0B0435A
:104CD0001B6813F0006F05D100F08AFB801B0228CF
:104CE000F4D90324002CD9D14FF0B04213692969BB
:104CF0000B431361D2E770B50446036813F0400F0D
:104D00002FD0036BB3F5800F21D00AD833B904300C
:104D1000FFF71CFF064658B1054624E001252E4644
:104D200021E0B3F5000F1AD0B3F5400F0CD10026E7
:104D3000236B4FF0B041D1F8882022F44002134396
:104D4000C1F8883000250EE001252E460BE04FF01B
:104D5000B042D36843F48033D3600026E8E70026EE
:104D6000E6E700252E46236813F4006F0AD04FF0C3
:104D7000B043D3F8905005F44075236CAB4240F03B
:104D8000B7803546236813F0010F09D0A3694FF0AF
:104D9000B041D1F8882022F003021343C1F88830D3
:104DA000236813F0020F09D0E3694FF0B041D1F846
:104DB000882022F440621343C1F88830236813F03E
:104DC000100F0CD0A06A4FF0B041D1F88830020C1F
:104DD000120423EA020343EA0043C1F8883023683F
:104DE00013F0200F0CD0E06A4FF0B041D1F88830BA
:104DF000020C120423EA020343EA0043C1F888309C
:104E0000236813F0040F40F0B480236813F0080FF8
:104E100040F0C080236813F4807F13D0636B4FF0A1
:104E2000B041D1F8882022F040621343C1F88830A5
:104E3000636BB3F1006F00F0BE80636BB3F1806F02
:104E400000F0BE80236813F4007F17D0A36BB3F18A
:104E5000804F05D0B3F1004F02D0002B40F0B88056
:104E60004FF0B041D1F8882022F040421343C1F8FE
:104E70008830A36BB3F1C05F00F0BC80236813F4EB
:104E8000806F13D0E36B4FF0B041D1F8882022F04F
:104E900040521343C1F88830E36BB3F1005F00F078
:104EA000B080E36BB3F1805F00F0B080236813F44F
:104EB000805F09D0636C4FF0B041D1F8942022F4A8
:104EC00040421343C1F89430236813F4005F0DD0BF
:104ED000E26C4FF0B043596A21F030010A435A6244
:104EE000A26C596A21F003010A435A62284670BD38
:104EF00000F082F95DB9236C4FF0B041D1F89020F9
:104F000022F440721343C1F8903035463AE74FF02F
:104F1000B043D3F89020D3F8901041F48031C3F817
:104F20009010D3F8901021F48031C3F8901022F43F
:104F30004072216C0A43C3F89020D3F8903013F0EC
:104F4000010F12D000F054FA05464FF0B043D3F8E9
:104F5000903013F0020F0AD100F04AFA401B41F2E0
:104F600088339842F1D903250CE735460AE73546E0
:104F700008E7236A4FF0B040D0F88820190901F4FF
:104F80007F2122EA01021B0103F47F231343C0F8AF
:104F900088303AE7636A4FF0B040D0F888201909AA
:104FA00001F47F2122EA01021B0103F47F23134352
:104FB000C0F888302EE7CB6843F08073CB603CE7C5
:104FC000201DFFF70AFE00283FF43CAF054639E7F5
:104FD00023F080534FF0B042D2F8881021F04041C6
:104FE000C2F88810D2F8881021F040610B43C2F853
:104FF00088303EE74FF0B042D36843F08073D3600F
:105000003CE7CB6843F48033CB604AE7201DFFF7D1
:105010002BFE00283FF44AAF054647E7F0B50023D2
:1050200066E085685E000324B44025EA0405CC6888
:10503000B4402C438460446824EA0C0C4C68C4F3EC
:1050400000149C4044EA0C04446062E0DD0808352A
:1050500050F8256003F007044FEA840C0F2404FA8B
:105060000CF426EA040E0C6904FA0CF444EA0E046B
:1050700040F8254064E0042400E0002404FA0EF423
:105080002C430CF1020C4F4D45F82C404E4C25683A
:10509000D44325EA02064F6817F4801F01D042EA84
:1050A0000506494D2E606D6804EA05064F6817F441
:1050B000001F01D042EA0506434D6E60D5F88050CE
:1050C00004EA05064F6817F4803F01D042EA05065E
:1050D0003D4DC5F88060D5F884502C404E6816F4DC
:1050E000003F01D042EA0504374AC2F88440013348
:1050F0000A6832FA03F464D04FF0010C0CFA03FC96
:105100001CEA0202F3D04C6804F00304013C012CB9
:1051100087D94C6804F00304032C0CD0C4685D00EC
:105120004FF0030C0CFA05FC24EA0C0C8C68AC4024
:1051300044EA0C04C4604C6804F00304022C85D0DB
:1051400004684FEA430E4FF0030C0CFA0EFC24EAFD
:105150000C0C4C6804F0030404FA0EF444EA0C044A
:1051600004604C6814F4403FC1D04FEA930C0CF13A
:105170000205144C54F8255003F003044FEA840E42
:105180000F2404FA0EF425EA0405B0F1904F3FF421
:1051900074AF0E4CA0420ED004F58064A0420CD037
:1051A00004F58064A0420AD004F58064A0423FF474
:1051B00062AF072462E7012460E702245EE703246C
:1051C0005CE7F0BD00000140000800580004004802
:1051D0000AB18161704781627047704708B5054B1D
:1051E000D8681A6822EA00021A605860FFF7F5FFD3
:1051F00008BD00BF00150058024A136843F48073CD
:105200001360704700040058024B186800F4C06037
:10521000704700BF00040058024A536843F480639B
:105220005360704700040058074AD36823F4E063D2
:105230001B041B0C000200F4E060034343F0BF6357
:1052400043F40033D360704700ED00E000B5194B24
:10525000DB68C3F30223C3F1070CBCF1040F28BFC2
:105260004FF0040C03F1040EBEF1060F18D9033BF6
:105270004FF0FF3E0EFA0CFC21EA0C0199400EFAA9
:1052800003F322EA0303194300280BDB0901C9B227
:1052900000F1604000F5614080F800135DF804FB08
:1052A0000023E5E700F00F000901C9B2024B1954D1
:1052B000F4E700BF00ED00E014ED00E0002807DB9C
:1052C00000F01F02400901239340024A42F82030B7
:1052D000704700BF00E100E000280CDB00F01F0277
:1052E0004009012393402030034A42F82030BFF3A5
:1052F0004F8FBFF36F8F704700E100E00138B0F1CE
:10530000807F0BD24FF0E0235861054AF02182F8EC
:1053100023100020986107221A617047012070470E
:1053200000ED00E0002808DB00F01F024009012327
:1053300093404030014A42F82030704700E100E0DD
:10534000002808DB00F01F02400901239340603071
:10535000014A42F82030704700E100E0114B1B7811
:105360000BB90120704710B50446FEF721FF0D4B25
:105370001A784FF47A73B3FBF2F3B0FBF3F0FFF754
:10538000BDFF68B90F2C01D901200AE00022214697
:105390004FF0FF30FFF75AFF034B1C60002000E086
:1053A000012010BD7F0000208000002010B5094AB8
:1053B000136843F4807313600320FFF735FF0F2059
:1053C000FFF7CCFF10B10124204610BD0446FCF7C6
:1053D0006FF8F9E700400058034B1B78034A116847
:1053E0000B441360704700BF7F000020701D002039
:1053F000014B1868704700BF701D0020014B1868F2
:10540000704700BF80000020014B1878704700BF34
:105410007F000020024A536843F001035360704745
:10542000002004E0024A536843F0020353607047CF
:10543000002004E070477047002309E000EB83027E
:10544000054951609A1D00EB820204495160013305
:10545000052BF3D9704700BF3554000837540008B6
:10546000002303604FF03F1343603F238360704786
:10547000C0B138B5044690F8383083B10A4D28469B
:10548000FFF7EEFF2B6843F001132B602046FFF778
:10549000D3FF00206063012384F8383038BDFBF768
:1054A00041F9EBE701207047000C005838B504467D
:1054B0000268D36823F0A003D360FFF799FF054685
:1054C0002368DB6813F0200F07D1FFF791FF401B23
:1054D000B0F57A7FF4D9032000E0002038BD38B55C
:1054E0000368DA6812F0400F01D0002038BD04468E
:1054F0004FF0FF32DA60FFF77BFF05462368DB6879
:1055000013F0400F07D1FFF773FF431BB3F57A7F0A
:10551000F4D90320EAE70020E8E7000000286BD078
:1055200010B5044690F8213063B1022384F821308D
:10553000324BDB6813F0100F09D0012384F82130BF
:10554000002010BD80F82030FBF76AF9EDE72368F2
:10555000CA225A62236853225A622046FFF7BFFFCD
:1055600038B12368FF225A62042384F821300120D5
:10557000E7E72268936823F4E00323F04003936095
:1055800021688A68636820690343A0690343134361
:105590008B602368E2681A6122681369A16843EA94
:1055A000014313612268D36823F08003D36022682B
:1055B000D36C23F00303D3642168CB6CE269606988
:1055C00002431343CB6423689B6813F0200F03D07E
:1055D0002368FF225A62B0E72046FFF767FF0028E2
:1055E000F6D02368FF225A62042384F82130002376
:1055F00084F820300120A4E70120704700280040F3
:10560000002302E001330A38C0B20928FAD81B018E
:10561000DBB218437047F8B590F82030012B00F04A
:10562000818004460E46012380F82030022380F852
:105630002130002A49D103689B6813F0400F01D143
:105640000023CB703078FFF7DBFF05047078FFF79D
:10565000D7FF45EA0025B078FFF7D2FF0543F07881
:1056600045EA00452368CA225A62236853225A62D7
:105670002046FFF734FF0746002838D1236805F09D
:105680007F3525F0FE451D602268936823F4802352
:10569000936021688B68F2683069024313438B6022
:1056A0002268D36823F08003D36023689B6813F0DB
:1056B000200F27D02368FF225A62012384F821306B
:1056C000002384F820303846F8BD03689B6813F047
:1056D000400F01D10023CB7035787078000240EA8A
:1056E0000540B5782843F57840EA0545BAE72368D0
:1056F000FF225A62042384F82130002384F82030EA
:105700000127E0E72046FFF7D1FE0028D2D023682A
:10571000FF225A62042384F82130002384F82030C9
:105720000127D0E70227CEE770B590F82030012B93
:105730006ED004460E46012380F82030022380F804
:1057400021303AB94B7813F0100F03D003F0EF0378
:105750000A334B70002A35D1F078FFF751FF05046A
:105760007078FFF74DFF45EA0025B078FFF748FF56
:105770000543307845EA40352368CA225A622368D7
:1057800053225A622046FFF7AAFE064628BB23682A
:1057900025F07F4525F0C0055D602268D36823F0C1
:1057A0008003D36023689B6813F0200F20D0236808
:1057B000FF225A62012384F82130002384F820302C
:1057C000304670BDF5787078000240EA0540B57843
:1057D0002843357840EA4535CEE72368FF225A62F0
:1057E000042384F82130002384F820300126E7E7E1
:1057F0002046FFF75BFE0028D9D02368FF225A62BB
:10580000042384F82130002384F820300126D7E7D0
:105810000226D5E7030903EB830300F00F0000EB3A
:105820004300C0B2704770B50C4603689B6A4B607A
:1058300003681B69C3F30E038B6003681D68C5F31F
:105840000641C5F305402070C5F30626667005F0D5
:105850007F05A57001F04003E37052B9FFF7DAFF4E
:1058600020703046FFF7D6FF60702846FFF7D2FF62
:10587000A070002070BD70B503685B68C3F307407B
:10588000C870C3F304264E7003F03F058D70C3F358
:1058900042330B705AB90C46FFF7BCFFE07030463C
:1058A000FFF7B8FF60702846FFF7B4FFA070002034
:1058B00070BD0000F8B590F82030012B77D0044679
:1058C0000E461546012380F82030022380F821304F
:1058D0000368CA225A62036853225A6203689B68AB
:1058E00013F4806F17D0FFF783FD07462368DB684A
:1058F00013F0040F0FD0FFF77BFDC01BB0F57A7FCC
:10590000F4D92368FF225A62032084F8210000237F
:1059100084F820304AE02268936823F4806393601F
:105920002268D368DBB263F49063D360FFF760FD55
:1059300007462368DA6812F0040F0FD1FFF758FD0D
:10594000C01BB0F57A7FF4D92368FF225A62032086
:1059500084F82100002384F8203027E05E6122686B
:10596000936823F007039360226893681D43956052
:10597000104BD3F8802042F40022C3F880201A682C
:1059800042F400221A602268936843F480439360D3
:105990002268936843F4806393602368FF225A620D
:1059A000012384F82130002084F82000F8BD022073
:1059B000FCE700BF00080058164AD2F8883043F4CC
:1059C0007003C2F888304FF0B0431A6842F0010209
:1059D0001A604FF4E0229A601968A2F1A262A2F262
:1059E00005120A401A60D3F8942022F00502C3F889
:1059F0009420D3F8982022F00102C3F89820064A98
:105A0000DA601A611A6822F480221A6000229A6110
:105A1000704700BF00ED00E00010042200B583B025
:105A200009E001A9084800F0F4F9084B1B69019945
:105A3000186900F0D6F9044800F0BBF90028F0D04E
:105A400003B05DF804FB00BF7C1D002000000320B4
:105A500008B5FCF71FFA08BD08B5104A104B1360D3
:105A600003F12001516003F13001916003F1400125
:105A7000116203F14801516203F15001D16003F159
:105A80005801116103F17401516103F178019161D1
:105A90008433D361FCF726FA08BD00BF0000032061
:105AA0003401032038B504460B4D284600F07EF93A
:105AB0000A4B5B68A2681A60E268DA60084A5A60BA
:105AC0009D60FCF731FA2268064B1A606268064B4B
:105AD0001A60002038BD00BFC4010320000003206D
