:020000040800F2
:1000000000000320695B000811170008131700089F
:10001000151700081717000819170008000000003E
:100020000000000000000000000000001B17000896
:100030001D170008000000001F1700082117000806
:10004000C15B0008C15B0008C15B000829170008FC
:10005000C15B0008C15B0008C15B0008C15B000810
:10006000C15B0008C15B0008C15B0008C15B000800
:10007000C15B0008C15B0008C15B0008C15B0008F0
:10008000C15B0008C15B0008C15B0008C15B0008E0
:10009000C15B0008C15B0008C15B0008C15B0008D0
:1000A000C15B0008C15B0008C15B0008C15B0008C0
:1000B000C15B0008C15B0008C15B0008C15B0008B0
:1000C000C15B0008C15B0008C15B0008C15B0008A0
:1000D000C15B0008C15B0008C15B0008C15B000890
:1000E000C15B0008C15B0008C15B0008C15B000880
:1000F000311700083917000841170008C15B0008D4
:10010000C15B0008C15B0008C15B0008C15B00085F
:10011000C15B0008C15B0008C15B0008C15B00084F
:10012000C15B0008C15B0008C15B0008C15B00083F
:0C013000C15B0008C15B0008C15B000857
:1001400010B5054C237833B9044B13B10448AFF311
:1001500000800123237010BDDC000020000000009F
:100160000465000808B5034B1BB103490348AFF30E
:10017000008008BD00000000E000002004650008C9
:1001800001F0FF01102A2BDB10F0070F08D010F848
:10019000013B013A8B422DD010F0070F42B3F6D14C
:1001A000F0B441EA012141EA014122F007047FF065
:1001B00000070023F0E80256083C85EA010586EABC
:1001C000010685FA47F5A3FA87F586FA47F6A5FAF8
:1001D00087F68EB9EED1F0BC01F0FF0102F0070204
:1001E00032B110F8013B013A83EA010313B1F8D1AF
:1001F0000020704701387047002D06BF3546033890
:10020000073815F0010F07D1013015F4807F02BFC8
:10021000013015F4C03F0130F0BC0138704700BF19
:1002200084460022FF200DE04000C0B20133072BBE
:1002300007DC10F0800FF7D0400080F03100C0B232
:10024000F4E701328A4204DA1CF8023058400023F5
:10025000EDE7704710B584B04BF69423ADF80C3041
:1002600064230093022303AA882105F087FA044639
:1002700010B1204604B010BD012000F02BFCF8E7BF
:1002800008B5FFF7E7FF08BDF0B585B004460F4697
:100290001646FD238DF80F306423009301230DF1E2
:1002A0000F02882105F06AFA054610B1284605B00C
:1002B000F0BD0A2000F00EFC64230093062302AA7E
:1002C0008821204605F02CFB05460028EED10221AE
:1002D00002A8FFF7A5FF9DF80A30834217D102213B
:1002E0000DF10B00FFF79CFF9DF80D30834210D1FC
:1002F0009DF808209DF8093043EA02233B809DF8D1
:100300000B209DF80C3043EA02233380CEE7012511
:10031000CCE70125CAE7000007EE900AF8EEE77A7D
:100320009FED060A67EE807A9FED050A67EE807AF8
:100330009FED040A37EEC00A704700BF0000803707
:1003400000002F430000344207EE900AF8EEE77AEF
:100350009FED060A67EE807A9FED050A67EE807AC8
:10036000B1EE080A37EEC00A704700BF00008037C0
:100370000000FA4230B583B0B1B10D4601AA0DF1CB
:100380000601FFF781FF044658B9BDF80600FFF7E4
:10039000C3FF85ED000ABDF80400FFF7D5FF85ED2A
:1003A000010A204603B030BD0124FAE730B587B01A
:1003B000054600220023CDE9042300240194029481
:1003C000039402F0B3FD02230193CD230293012392
:1003D0000393694601A802F089FE0EE02A1904ABD6
:1003E0002859516803C3DDE9042304F1006101F5D4
:1003F0004D21012002F000FE0834132CEED902F04A
:10040000ADFD07B030BD72B6FEE700B59BB0482227
:10041000002108A805F00EFC00230193029303932A
:10042000049305930693079302F088FF4FF0B042C0
:10043000D2F8903023F0180343F01003C2F8903044
:1004400002F58062136823F4C06343F40073136001
:10045000136803F4C0630093009B072308934FF4D1
:100460008033099301230A934FF480730B93402345
:100470000C9302231393032314931023159308233F
:1004800016934FF4003317934FF0005319934FF026
:100490000073189308A801F013FE88B96F23019325
:1004A0000321029100230393049305938022069273
:1004B000079301A802F090F920B91BB05DF804FB86
:1004C000FFF7A1FFFFF79FFF00B595B05022002175
:1004D000684605F0AFFB4FF4405300934FF4804360
:1004E00011930223129310231393684602F07BFBAF
:1004F00010B915B05DF804FBFFF785FFF0B59BB0B0
:1005000002F0EEFF00F0BCFAFFF77FFFFFF7DCFF21
:1005100000F046F900F00AF900F07CF904F0ACFEB6
:1005200000F076F9754BD3F894204FF480625A614D
:100530004FF0B043DA6C42F00102DA64DB6C03F096
:1005400001030893089B012210214FF0904002F014
:10055000E1FE00240B940C940D940E940F9410253E
:100560000B9501230C930BA94FF0904002F0F8FD7E
:10057000224629464FF0904002F0CCFE4FF4FA603C
:1005800000F0A8FA5E48FFF77BFE15E001224FF469
:1005900080614FF0904002F0BDFE642000F09AFAB6
:1005A00000224FF480614FF0904002F0B3FE6420CF
:1005B00000F090FA0134E4B2042CE7D900F07AFAA2
:1005C000002500F0A1FA02F0ADFF854203D94D4BA2
:1005D0001B78002BF5D000244A4B1C7000F56A45AF
:1005E00060353C2221460BA805F024FB464E2246EE
:1005F0004649304603F0BFF922464549304603F0EC
:10060000E2F9224610214FF0904002F083FE0220D2
:1006100000F060FA09A93A48FFF7ACFE044601224F
:1006200010214FF0904002F075FE002C60D1F2EEE8
:10063000046A9DED097A27EE267ABDEEC77A17EE99
:10064000103A1BB2DDED0A7A67EEA67AFCEEE77A85
:1006500017EE902A92B22E4988782C4F3C787E78FB
:10066000BF78DFF8C4C0ACFB02EC4FEADC0C0CEB4B
:100670008C0EA2EB4E0292B20792CDF818C0254A1A
:1006800082FB032CDA17C2EBAC0202EB820CA3EB69
:100690004C031BB2059312B2049203970296019485
:1006A00000904B78CA781C490BA805F0CBFA1B4B7D
:1006B0001B78002B85D0C2B20BA94FF6426004F024
:1006C000CBF9174B1B78002B3FF47BAF01224FF483
:1006D00080614FF0904002F01DFE0F2000F0FAF90B
:1006E00000224FF480614FF0904002F013FE68E763
:1006F00022460C490BA805F0A5FAD8E700140058CB
:10070000F4030020F8000020500100200001002028
:10071000FC00002067666666D8650008B10200200C
:10072000160000200C660008CDCCCCCC10B588B0EB
:100730000024039404940594069407944FF0B04366
:10074000DA6C42F00402DA64DA6C02F0040202921B
:10075000029ADA6C42F00202DA64DA6C02F0020207
:100760000192019ADA6C42F00102DA64DB6C03F068
:1007700001030093009B22464FF482614FF09040AA
:1007800002F0C8FD4FF482630393012304930594A0
:10079000069403A94FF0904002F0E2FC08B010BDAF
:1007A00008B50548054B036002F00AFF00B908BD13
:1007B000FFF729FEFBE700BF14010020000C0058E2
:1007C0000268124B9A4200D0704700B583B04FF0D8
:1007D000B0431A6D42F480121A651B6D03F4801346
:1007E0000193019B002202212C2002F0C9FD2C2044
:1007F00002F0FEFD002202212D2002F0C1FD2D207D
:1008000002F0F6FD03B05DF804FB00BF000C0058D9
:100810007047000000B587B0002301930293039353
:100820000493059300932348234A026043600F22F8
:10083000826047F6FF72C26003618361C3614361F6
:1008400002F014FF48BB00238DF804308DF805300A
:100850008DF80630029304930593012201A91548EF
:1008600002F081FFE0B905238DF8003003238DF8F5
:10087000013001228DF8022024238DF803306946CF
:100880000C4802F0F9FF70B900221146094803F044
:10089000B9F858B907B05DF804FBFFF7B4FDD2E72B
:1008A000FFF7B1FDDFE7FFF7AEFDEDE7FFF7ABFDCB
:1008B000F0E700BF500100200028004010B596B0BE
:1008C00004465022002102A805F0B4F92268164B14
:1008D0009A4201D016B010BD4FF4006302934FF45A
:1008E0008073129302A802F07EF9C8B94FF0B043AA
:1008F000D3F8902042F40042C3F890209A6D42F45D
:1009000080629A659B6D03F480630193019B0022D2
:100910000221032002F034FD032002F069FDD9E733
:10092000FFF771FDE2E700BF00280040054BCA2237
:100930005A6253225A629A6822F007029A60FF2292
:100940005A627047002800407047000008B5002038
:1009500003F022FB68B181794FF0B042054BC2F839
:100960009C30D2F89C3023F47C5343EA0123C2F834
:100970009C3008BDFECAFECA08B54FF0B04293686D
:1009800043F40043936004F0E7FA054AD2F880305C
:1009900023F0070343F00403C2F8803008BD00BF12
:1009A0000004005810B588B003F060F90F4A002128
:1009B000042004F02DFC0E4C00940E4B019369466C
:1009C0000D4804F0BBF904F58673029304F5067331
:1009D000039304F54974049440F23C53059302A830
:1009E00003F00EFA03F03EF908B010BD614D0008A7
:1009F000E4010320490900085D0A000800B585B03C
:100A00000023009301930293039343685B7B23B11C
:100A1000012B1ED005B05DF804FB00F055F90F2343
:100A20008DF800307F238DF802300B4A13681B0CC1
:100A3000ADF80C301368C3F30B03ADF80E30684605
:100A400003F054FA00F0D2FF0021012004F08EFAE6
:100A5000E0E700230370DDE7002004E04368B3F81B
:100A60000B30B3F5124F00D0704710B584B0044678
:100A7000684603F049FA2046FFF7C0FF04B010BDF6
:100A800008B5034B4FF400421A61FFF75FFF08BD42
:100A900000400058034AD2F8903043F05003C2F8A7
:100AA000903070470008005808B5FFF7F3FFFFF7D4
:100AB0003DFF08BD08B5FFF7F7FFFFF75DFF0449ED
:100AC000002000F01BFB00F0EDF8FFF76BFF08BD06
:100AD0005001002038B5044602F024FD0546B4F16B
:100AE000FF3F09D002F02AFD044405E0054A1369DE
:100AF00023F00403136130BF02F014FD401BA04239
:100B0000F4D338BD00ED00E008B54FF0FF3004F03D
:100B1000C1FA08BD08B504F03FFA08BD08B54FF0AA
:100B2000FF3004F0B7FA08BD08B50021042004F036
:100B300057FA08BD08B5022004F080FA08BD08B5D0
:100B4000022004F039FB08BD70B58CB00023079378
:100B5000089309930A930B931C461D461E4606E014
:100B60004D4A02EBC3018A8815430133DBB2252BC2
:100B70001ED8494A02EBC3029279002AF5D0464AB0
:100B800052F8332045488242EAD000F58060824224
:100B900008D0B2F1904FE8D13F4A02EBC3018A88F6
:100BA0001643E2E73C4A02EBC3018A881443DCE7C0
:100BB0000123089303230A9326B93DBB002C48D197
:100BC0000CB070BD07964FF0B043DA6C42F00102F2
:100BD000DA64DA6C02F001020292029AD3F84C2134
:100BE00042F00102C3F84C21D3F84C3103F0010369
:100BF0000193019B07A94FF0904002F0B1FA002247
:100C000031464FF0904002F085FBD6E707954FF054
:100C1000B043DA6C42F00202DA64DA6C02F00202EB
:100C20000492049AD3F84C2142F00202C3F84C21FA
:100C3000D3F84C3103F002030393039B174E07A92B
:100C4000304602F08DFA00222946304602F062FB5F
:100C5000B4E707944FF0B043DA6C42F00402DA6470
:100C6000DA6C02F004020692069AD3F84C2142F0A4
:100C70000402C3F84C21D3F84C3103F0040305936C
:100C8000059B074D07A9284602F06AFA0022214673
:100C9000284602F03FFB93E71C660008000400486A
:100CA0000008004808B502F05DFC02F063FC054A4C
:100CB000D2F8903043F48033C2F89030FFF744FF0D
:100CC00008BD00BF0008005810B588B00DF1040C35
:100CD000094C0FCCACE80F0094E80700ACE8030027
:100CE0002CF8022B120C8CF8002003F0BBF801A8A2
:100CF00003F0EDF808B010BD54650008064A936A89
:100D00009BB2906A80B203E0034B9A6A034690B2AA
:100D10008342F9D1704700BF0028004010B401EBB6
:100D200041020F4B03EBC2035B7DDBB2062B05D008
:100D300003EB43020A4C04EBC2021075084A00EBB5
:100D4000400C02EBCC0C8CF815308CF8141001EB35
:100D5000410102EBC10148755DF8044B704700BFCB
:100D600084010020174B1B78DBB28B421DD0164B41
:100D700001EB410203EBC202127D5FFA82FC02EB3F
:100D8000420203EBC202507500EB400203EBC202C9
:100D9000517500EB400203EBC20282F814C001EB74
:100DA000410103EBC10318757047074B00EB40028C
:100DB00003EBC202517501EB410103EBC101087560
:100DC000704700BF750100208401002010B4234B40
:100DD0001B78DBB283422CD0214C00EB400204EBA9
:100DE000C20292F814C0537DDBB2527DD2B20CEB3A
:100DF0004C0C04EBCC046275062B0BD0184A00EBAC
:100E0000400402EBC404247DE4B203EB430302EB91
:100E1000C3031C7500EB4000114B03EBC000012322
:100E200003730E4B1B78DBB2062B10D05DF8044B1E
:100E300070470A4C2378DBB20A4A137000EB400378
:100E4000074A02EBC3035B7DDBB22370E2E70029B4
:100E5000ECD1054B4FF0FF321A60E7E77501002037
:100E600084010020780100207C01002008B5104B8F
:100E70001B68B3F1FF3F02D1002080B208BDFFF72D
:100E80003DFF0B4B1B6883420AD3094B1B681B1A9F
:100E9000084A107803FB00F0074B1B78D840ECE7BA
:100EA000064B1B881B1A024A10680344F0E700BF78
:100EB0007C010020740100208201002080010020BC
:100EC00070B50446314B1B78DBB2062B13D12F4A89
:100ED0001378DBB22E490B70107000EB40042D4BE1
:100EE00003EBC404062363752B4B4FF0FF321A60EB
:100EF0000025284670BDFFF7B9FF0546254B04EBDA
:100F0000440203EBC20291680144916004EB440285
:100F100003EBC20290681D4A127802EB420203EB17
:100F2000C2039B68834225D8184B1B78D9B203EBC8
:100F30004303184A02EBC3035B7DDBB20CE0154AA6
:100F400001EB410102EBC1014B7DD9B203EB43033D
:100F500002EBC3035B7DDBB2062B07D003EB43033D
:100F60000C4A02EBC3039B688342E8D92046FFF793
:100F7000D5FEBEE7054E31782046FFF7F3FE337805
:100F8000DBB2034A13703470B3E700BF7501002071
:100F900078010020840100207C01002010B548B3B6
:100FA000044601282ED9013CA4B2194B1B68DA680B
:100FB00012F0040FF9D0DA68D2B262F49062DA600B
:100FC000144B4FF40022DA60032002F053FA124A65
:100FD00053691B0C1B041C435461FFF78FFE0F4B1E
:100FE00018600B4B1A68936843F480639360AFF307
:100FF000008010BDFFF782FE084B1860032002F04E
:101000002BFAF6E7064B1B78012BCCD1CDE700BFBE
:101010005001002000080058002800407C010020FA
:101020008201002038B52F4B9B6813F4806F05D0E8
:101030002D4B1B68DB6813F0040FF9D12A4B1A689B
:10104000936823F480639360284B1B78DCB203EB36
:101050004303274A02EBC3039D68FFF707FF84465B
:10106000A84204D9234B01221A70002024E0224B0D
:101070001B8810FA83F3AB4206D21F4B188880B24C
:101080001C4B00221A7017E0A8B2A0EB0C0080B233
:10109000184B01221A700FE004EB4404144A02EBCF
:1010A000C404A268A2EB0C02A26003EB4303104A43
:1010B00002EBC3035C7DE4B2062C0FD0234604EBA5
:1010C00044020B4901EBC20292689445E4D904EB57
:1010D000440401EBC4040022A260E6E7FFF75EFFD0
:1010E00038BD00BF002800405001002075010020DD
:1010F00084010020830100207601002010B5484BB8
:101100001B68CA225A6253225A6246498B6843F0CE
:1011100020038B608B6803F00703C3F10403DAB28A
:10112000414B1A700B6903F4FE034FF4FE0191FA70
:10113000A1F1002931D0B1FA81F1CB40DBB201330A
:10114000DBB23A490B7037490969C1F30E0101312D
:10115000374C2180013901FB03F3A3F5A073D34081
:101160004FF6FE7293421AD9324B4FF6FF721A8035
:10117000314B1A6842F400221A60D3F8802042F4FE
:101180000022C3F8802000283FD12C4B01221A7086
:101190002B4B4FF0FF321A600EE02021CDE79BB2BF
:1011A000244A1380E4E700EB4002264B03EBC20322
:1011B00000221A730130C0B20528F4D9224B06224E
:1011C0001A70174C2268936823F480639360D36885
:1011D000DBB263F49063D360174B4FF40022DA6004
:1011E000032002F047F92268936843F48043936038
:1011F0000B4B1B68FF225A6200220321084602F0B3
:10120000BFF8032002F0F4F810BD054B1B68DB6843
:1012100013F4806FECD0032002F01EF9E8E700BF62
:1012200050010020002800408201002074010020AD
:101230008001002076010020000800588301002072
:101240007C0100208401002075010020F0B5EFF33F
:10125000108572B64FF0000CBCF1050F0CD80CEBEA
:101260004C0E154C04EBCE0E9EF80C4024B10CF144
:10127000010C5FFA8CFCEFE7BCF1060F17D00E4EA5
:101280004FEA4C040CEB4C0E06EBCE0E01278EF809
:101290000C7085F31088CEF810008EF80D2004EB4A
:1012A0000C02D200B35081F800C00020F0BD85F3DD
:1012B00010880120FAE700BF8401002038B50446F9
:1012C000EFF3108572B6032002F0A0F8254B1B68DF
:1012D000CA225A6253225A6204EB4402224B03EBA5
:1012E000C2031B7BDBB2022B09D01E4B1B68FF2203
:1012F0005A62032002F07CF885F3108838BD002183
:101300002046FFF763FD194B1B78DBB2062B07D095
:10131000174A1278D2B29A42E7D0FFF783FEE4E789
:10132000144B9B6813F4806F05D00E4B1B68DB6871
:1013300013F0040FF9D10B4B1A68936823F4806300
:101340009360D36813F0040FFBD0D368DBB263F46F
:101350009063D360084B4FF40022DA60032002F060
:1013600089F8C2E7500100208401002075010020A7
:1013700078010020002800400008005870B504469D
:101380000D4600EB4002214B03EBC2031B7BDBB29B
:10139000022B35D0EFF3108672B6032002F036F838
:1013A0001B4B1B68CA225A6253225A6204EB440345
:1013B000164A02EBC30302221A739D605D60204649
:1013C000FFF77EFD134B1B78DBB2134A1278D2B2C3
:1013D0009A4218D10D4B04EB440203EBC20292680F
:1013E000101A04EB440403EBC404A060084B1B6810
:1013F000FF225A62032001F0FBFF86F3108870BDC4
:10140000FFF75CFFC6E7FFF70DFEEFE78401002062
:1014100050010020750100207801002008B5904798
:1014200008BD0000F8B5EFF3108472B6314B1B68AD
:10143000CA225A6253225A629A6822F480629A60DF
:101440002D4A1278D5B202EB4202D1002B4A0A444F
:10145000127BD2B2022A13D0DA6812F0040FFBD04A
:10146000DA68D2B262F49062DA60254B4FF400225F
:10147000DA6084F310881F4B1B68FF225A62F8BDA4
:101480001E4A05EB4501CB00D118D7580E691D4BFC
:101490001B7853B34B7BDBB2012B10D084F3108845
:1014A0002846FFF70BFF134B1B68CA225A625322D0
:1014B0005A623A4629463046FFF7B0FFDBE7012182
:1014C0002846FFF783FC84F3108805EB4503DA0018
:1014D0000A4B134459682846FFF750FF054B1B6819
:1014E000CA225A6253225A62E3E7FFF79BFD84F354
:1014F0001088C0E750010020750100208401002001
:1015000000080058830100204FF0B042136843F4F4
:10151000807313604FF0B0431B6813F4806FF9D0F1
:101520004FF0B042936823F0030343F0010393604C
:10153000536A23F0030353624FF0B0439B6803F0F8
:101540000C03042BF8D1704708B5184BD3F88C2046
:10155000174B9A42F9D1154BD3F89020144B9A426D
:101560000BD0FFF7D1FF134A136823F00703136072
:101570000E4B4FF48062DA6008BD03F15843D3F894
:10158000883013F4004F05D10B4BD3F8883013F497
:10159000806FEDD0054B4FF480621A61FFF7B4FF06
:1015A000044A136823F007031360E1E700140058AE
:1015B00000040080004000580004005808B501F005
:1015C000C3FFFFF7C1FF084A1F239361136823F08D
:1015D000070343F003031360044A136943F0040351
:1015E000136130BF08BD00BF0004005800ED00E0EB
:1015F00008B501F0A9FFFFF7A7FF074A136823F01A
:10160000070343F002031360044A136943F0040321
:10161000136130BF08BD00BF0004005800ED00E0BA
:1016200008B501F091FF034A136923F00403136125
:1016300030BF08BD00ED00E008B501F08CFF08BD2B
:1016400008B501F088FF08BD08B52B4B4FF4806248
:101650001A61294BD3F88C20284B9A42F9D14FF0CC
:10166000B0439B6803F00C03042B04D0224B4FF4CF
:101670008062DA6008BD4FF0B042136843F48033F3
:1016800013604FF0B0431B6813F4003FF9D04FF0E4
:10169000B0431A6842F080721A60DA6842F08052F1
:1016A000DA604FF0B0431B6813F0007FF9D0144AA2
:1016B000136823F0070343F003031360104B1B6808
:1016C00003F00703032BF9D14FF0B042936843F0C6
:1016D000030393604FF0B0439B6803F00C030C2BA3
:1016E000F8D14FF0B042536A23F0030343F00203F2
:1016F000536202F03BFAB9E700140058000400807E
:101700000040005808B5FFF79FFF01F024FF08BD17
:10171000FEE7FEE7FEE7FEE7FEE77047704770472B
:1017200008B501F0F3FE08BD08B5FFF77BFE08BD64
:1017300008B500F0A3FB08BD08B500F03FFB08BDED
:1017400008B501F0EDFD08BD00B583B04FF0B04322
:101750001A6D42F400221A651B6D03F400230193F5
:10176000019B002202212E2001F00AFE2E2001F012
:101770003FFE03B05DF804FB704708B5002101206F
:1017800003F02EFC08BD000008B5064B93F880302E
:10179000052B00D108BD02F05AFC024B002283F851
:1017A0008020F7E71802002000B583B0054B0093B6
:1017B000054B01936946054803F0ACF903B05DF8A9
:1017C00004FB00BF28000320EB170008D117000816
:1017D00010B504464068083003F094FB10B10123B3
:1017E000237010BD00232370FBE708B510B101285A
:1017F00004D008BD032003F007FCFAE7032003F040
:1018000011FCF6E708B50F4BD3F88025B2F1FF3F86
:1018100010D0D3F884350C480270C2F3072242700E
:101820008370C3F30722C270C3F3074202711B0E19
:10183000437108BD002002F0AFFB0028F9D1034836
:10184000F7E700BF0070FF1FA002002094670008A8
:1018500070B588B00024ADF8184002F03FFFFFF7E4
:10186000D1FF054602460621204602F0B7FE6A79FE
:10187000304B1A722A795A72EA789A72AA78DA7216
:101880006A781A732A785A732B4A1021182002F0AA
:10189000A5FE2A4A1021082002F0A0FE18210120EE
:1018A00002F0CCFE02F041FD0DF11A03019307ABEB
:1018B00000930DF11E0307222146012002F0A8FC2F
:1018C0001F4B009307232246BDF81C10BDF81E00D5
:1018D00002F0FDFD06AB009302232246BDF81A106C
:1018E000BDF81E0002F0F3FD02221146204602F070
:1018F0007AFF144D01262E70304602F023FC6E70E4
:1019000008232B7110226A71EC700F49A960AE7028
:101910000494039102940192009323463246314687
:10192000304602F035FCAB780BB908B070BD02F060
:10193000DBFCFAE7080000207C6700086C67000801
:10194000646700081802002007B2010070B588B073
:101950000446012828D04FF47A664FF4C8651D4B21
:1019600093F88100FFF7AAFC022C22D0194B83F8D0
:10197000804000200690059003F1190204921B7E1E
:101980000393154B029308230193009003463246BC
:10199000294602F07DFB11490E2002F078FC08B9BF
:1019A000012C10D008B070BD0D4B1D880D4B1E884A
:1019B000D5E7084B93F88030013BDBB2012BD5D83B
:1019C00002F045FBD2E70849024B93F88100FFF78C
:1019D000D5FCE7E7180200208C670008080000200B
:1019E000160200201402002046E0010030B591B03C
:1019F0000DF1040C284C0FCCACE80F000FCCACE878
:101A00000F000FCCACE80F0094E80700ACE803002F
:101A1000ACF80020FFF7C8FE0121022003F0A6FA6F
:101A20001E4A0021022003F0F3FB01A802F040FA55
:101A300078BBFFF70DFF03F04FFA194D002485F82E
:101A400080404FF6FF73EB82164A2146012003F0D7
:101A5000DFFB062002F01BFE00F00DF9124B2246C0
:101A600005F181012046FFF7F1FB104B224605F1FD
:101A700082012046FFF7EAFB6C762C760C4B802225
:101A80001A800C4BA0221A800120FFF75FFF11B0D3
:101A900030BDFEF7B8FCCCE770650008394B000894
:101AA00018020020891700087B1700087917000822
:101AB000160200201402002070B582B0044643785C
:101AC0003E2B1DD0FF2B4FD0052B02D0012002B0A2
:101AD00070BD8288384BDB8A9A420BD00120FFF719
:101AE00035FF364801230370334BDB8A438000F017
:101AF000C1F8EBE7304B0022DA8283F88020EDE773
:101B0000C378012B0AD00C2BE0D10DF106020DF1A8
:101B10000701294BD88A02F034FED7E7264D95F805
:101B20008100FFF7CBFB95F88030042B18D0224BB7
:101B3000052283F88020B4F805301F4AD3821F4C59
:101B4000002222706380204600F094F8608802F042
:101B5000F3FC40F648029C21608802F0DFFDB5E707
:101B6000062285F88020E6E7B0F8033040F601420F
:101B7000934208D040F60E429342A7D10E4BD88A2A
:101B800002F004FDA2E7B0F80730012B9ED1B0F8B7
:101B90000B50EDB2082D00D90825094E2A4604F154
:101BA0000D01304604F038F80023735529463046BD
:101BB000FEF7FCFB8AE700BF180200209C02002011
:101BC000A802002070B582B00E460C4D00242C6097
:101BD0006C602C720A460146284604F01DF8AC558C
:101BE00031462846FEF7E2FB009533462246214661
:101BF000204602F06CFC02B070BD00BFA8020020BD
:101C000008B50021022003F0EBF908BD08B501205A
:101C100003F014FA08BD08B5012003F0CDFA08BDA1
:101C200008B50378012B09D0032B0BD003B108BDF5
:101C300001230D4A13700D4A1370F8E70A4B002276
:101C40001A70F4E742681378022B02D0084A137026
:101C5000EDE7017A0139C9B2082900D90821501CE1
:101C6000FFF7B0FFE3E700BFB1020020F80000205B
:101C7000160000207047704710B5064C636843F4A7
:101C800000236360044B1B6898474FF40023A36054
:101C900010BD00BF000C0058B402002082B04FF00D
:101CA000B043D3F8502142F48012C3F85021D3F846
:101CB000503103F480130193019B0A4B1A6A42F4DA
:101CC00000721A62D3F8D42042F40072C3F8D42010
:101CD00040BF20BF044AD36843F40043D36002B03E
:101CE000704700BF000800580004005800B583B0DA
:101CF0004FF0B0431A6D42F480121A651B6D03F465
:101D000080130193019B094B1A6842F001021A608B
:101D10001A6842F480321A602C2001F069FB2D20F1
:101D200001F066FB03B05DF804FB00BF000C005837
:101D3000024A536823F0010353607047000C0058B7
:101D4000024B4FF480329A60704700BF000C00587D
:101D500008B5044A536843F40013536001F0F6FFDA
:101D600008BD00BF000C005808B501F0D7FF024BBA
:101D700001229A6008BD00BF000C0058024A536857
:101D800023F0020353607047000C0058044B4FF4DB
:101D900000329A605A6822F400325A60704700BFDD
:101DA000000C005808B5044A536843F400335360EC
:101DB00002F000F808BD00BF000C005808B5144B35
:101DC000DB6813F0020F04D1114B5B6813F4003F82
:101DD00014D00F4BDB6813F0080F04D10C4B5B6879
:101DE00013F4002F0DD00A4BDB6813F0200F04D141
:101DF000074B5B6813F4001F06D008BDFFF7D2FF46
:101E0000FBE7FFF739FFF8E7FFF7A2FFF5E700BFB1
:101E1000000C005808B501F0DBFF024B02229A606B
:101E200008BD00BF000C005808B5094BDB6813F073
:101E3000080F05D18047064B4FF400229A6008BD79
:101E4000044B1860024A536823F400235360F6E7FA
:101E5000000C0058B4020020024A536823F0080323
:101E600053607047000C005808B502F00DF8024BA3
:101E700008229A6008BD00BF000C005808B5144B3A
:101E8000DB6913F0020F0AD1114BDB6913F0010F6C
:101E90000DD10F4BDB6913F0080F10D108BD0C4BAF
:101EA0005B6813F0020FEFD1FFF7B4FFF6E7084BC2
:101EB0005B6813F0010FECD1FFF756FFEEE7044B20
:101EC0005B6813F0080FE9D1FFF7CEFFE6E700BF2C
:101ED000000C005830B58DB005468E462B4C94E86A
:101EE0000F000DF1300C0CE90F0005AB04F11002EE
:101EF00007CA83E807000DF1040C1C3494E80F00B6
:101F00008CE80F00BEF5007F07D0002314E00CAA78
:101F100002EB830353F82C5C1EE00023032B08D84C
:101F20000CAA02EB830252F8102CAA42EFD2013322
:101F3000F4E7002510E00133022B0CD80CAA02EBC9
:101F4000830252F81C2CAA42F5D30CAA02EB83039D
:101F500053F82C5C00E000250D4A136823F00703BA
:101F60002B43136001F0DEFA0446094B1B6803F0B3
:101F70000703AB4206D001F0D5FA001B0228F4D9C2
:101F8000032000E000200DB030BD00BFAC650008AC
:101F90000040005810B5B02816D90E4BDC6A4FF03F
:101FA000B043D3F8083103F00F030B4A52F8230073
:101FB000B4FBF0F401F0CAF901460848A0FB043074
:101FC000800CFFF787FF10BDC0F30310014B53F8DF
:101FD0002040E4E7DC6700089C67000883DE1B43C1
:101FE0004FF0B0439B6813F00C030DD14FF0B0439A
:101FF0001B6803F0F003B02B04D81B09254A52F8E4
:1020000023007047B023F8E7042B3ED0082B10D0F4
:102010004FF0B043DB6803F00303022B31D0032BF6
:102020000FD14FF0B0431B6813F4801F2BD11A4817
:1020300012E04FF0B0431B6813F4801F27D01748FD
:1020400070474FF0B0431B6803F0F003B02B16D875
:102050001B09104A52F823004FF0B042D368C3F373
:10206000062303FB00F0D368C3F302130133B0FB74
:10207000F3F0D3685B0F0133B0FBF3F07047B0238C
:10208000E6E70648E8E70548E6E7044870470248FF
:10209000704700BFDC6700080048E8010024F40036
:1020A00008B5FFF79DFF4FF0B0439B68C3F30313E0
:1020B000024A52F82330B0FBF3F008BD9C670008D9
:1020C000002800F0728338B50446036813F0200F2F
:1020D0002DD04FF0B0429368D26802F0030213F0A3
:1020E0000C0358D00C2B54D0E369002B00F0A080D7
:1020F0004FF0B042136843F00103136001F012FA8D
:1021000005464FF0B0431B6813F0020F00F08880C3
:10211000636A4FF0B042116821F0F0010B43136085
:10212000216A536823F47F4343EA01235360236801
:1021300013F0010F00F09A804FF0B042936803F063
:102140000C03D26802F00302082B00F08B800C2BEA
:1021500000F085806368B3F5803F00F0B0804FF0F9
:10216000B042136823F4803313606368002B00F0DF
:10217000AD8001F0D7F905464FF0B0431B6813F46A
:10218000003F73D101F0CEF9401B6428F4D903203D
:1021900016E3012AA8D1E369002B00F00883606AE6
:1021A0004FF0B0431B6803F0F003B02B21D89842E6
:1021B00021D9FFF7EFFE002840F0FB82636A4FF061
:1021C000B042116821F0F0010B431360216A53689B
:1021D00023F47F4343EA01235360FFF761FFBF4BC2
:1021E0001860BF4B186801F053F900289FD00120F8
:1021F000E6E2B023DBE74FF0B042136823F0F003D0
:1022000018431060216A536823F47F4343EA012393
:102210005360606AFFF7BEFE0028DED00120CFE2E7
:1022200001F080F9401B02287FF66BAF0320C7E264
:102230004FF0B042136823F00103136001F072F90C
:1022400005464FF0B0431B6813F0020F3FF46FAF29
:1022500001F068F9401B0228F3D90320B0E2032AF9
:102260007FF478AF6368002B00F0A582236813F039
:10227000020F54D04FF0B042936803F00C03D268C1
:1022800002F00302042B33D00C2B2FD0E368002B79
:1022900071D04FF0B042136843F48073136001F0C3
:1022A00041F905464FF0B0431B6813F4806F2DD100
:1022B00001F038F9401B0228F4D9032080E24FF0E6
:1022C000B042136843F4803313604EE701F02AF9FB
:1022D00005464FF0B0431B6813F4003FC6D001F031
:1022E00021F9401B6428F4D9032069E2022ACDD1E8
:1022F000E368002B00F0618221694FF0B04253681F
:1023000023F0FE4343EA0163536008E021694FF084
:10231000B042536823F0FE4343EA016353602368ED
:1023200013F0180F00F0DE806269002A00F0A3802D
:1023300013F0100F70D04FF0B043D3F8943013F077
:10234000020F2ED14FF0B042D2F8943043F0010387
:10235000C2F8943001F0E6F805464FF0B043D3F8E8
:10236000943013F0020F1CD101F0DCF8401B02285E
:10237000F3D9032024E24FF0B042136823F48073B2
:10238000136001F0CFF805464FF0B0431B6813F41B
:10239000806FC4D001F0C6F8401B0228F4D9032096
:1023A0000EE24FF0B042D2F8943043F00403C2F88A
:1023B000943001F0B7F805464FF0B043D3F89430AD
:1023C00013F0080F06D101F0ADF8401B0328F3D934
:1023D0000320F5E1A1694FF0B042D2F8943023F424
:1023E000706343EA0123C2F89430D2F8943023F0AA
:1023F0000103C2F8943001F095F805464FF0B04360
:10240000D3F8943013F0020F6CD001F08BF8401B1E
:102410000228F3D90320D3E14FF0B042D2F8943030
:1024200043F00103C2F8943001F07CF805464FF008
:10243000B043D3F8943013F0020F06D101F072F8D4
:10244000401B0228F3D90320BAE14FF0B042D2F882
:10245000943023F00403C2F894304FF0B043D3F823
:10246000943013F0080F3DD001F05CF8401B0328B6
:10247000F3D90320A4E14FF0B042D2F8943023F016
:102480000403C2F8943001F04DF805464FF0B04314
:10249000D3F8943013F0080F18D14FF0B042D2F8AF
:1024A000943023F00103C2F8943001F03BF8054664
:1024B0004FF0B043D3F8943013F0020F12D001F074
:1024C00031F8401B0228F3D9032079E101F02AF802
:1024D000401B0328DAD9032072E100BF1C00002052
:1024E00018000020236813F0040F68D0B74B1B6856
:1024F00013F4807F27D0A368012B35D0052B3CD067
:102500004FF0B043D3F8902022F00102C3F890209E
:10251000D3F8902022F00402C3F89020A368DBB324
:1025200001F000F805464FF0B043D3F8903013F0B7
:10253000020F44D100F0F6FF401B41F2883398426D
:10254000F1D903203CE100F0F9FE00F0EBFF054675
:102550009E4B1B6813F4807FCDD100F0E3FF401B3E
:102560000228F5D903202BE14FF0B042D2F8903089
:1025700043F00103C2F89030D0E74FF0B043D3F8F6
:10258000902042F00402C3F89020D3F8902042F04B
:102590000102C3F89020C1E700F0C4FF05464FF0E8
:1025A000B043D3F8903013F0020F08D000F0BAFF18
:1025B000401B41F288339842F1D9032000E123689F
:1025C00013F0400F33D0A36AC3B14FF0B042D2F83A
:1025D000983043F00103C2F8983000F0A3FF05469D
:1025E0004FF0B043D3F8983013F0020F1FD100F032
:1025F00099FF401B0228F3D90320E1E04FF0B042DD
:10260000D2F8983023F00103C2F8983000F08AFF26
:1026100005464FF0B043D3F8983013F0020F06D0C0
:1026200000F080FF401B0228F3D90320C8E0E36AD2
:10263000002B00F0C4804FF0B042916801F00C0113
:10264000D268022B19D00C2900F0BD804FF0B042A7
:10265000136823F08073136000F064FF04464FF0AA
:10266000B0431B6813F0007F00F0978000F05AFF22
:10267000001B0228F3D90320A2E002F00303206B21
:1026800083420AD00C2900F09C804FF0B0431B68B5
:1026900013F0806F22D0012092E002F07003606B93
:1026A0008342EFD1C2F30623A06B8342EAD102F446
:1026B0007813E06B8342E5D102F06063206C8342C3
:1026C000E0D102F06042636C9A42DBD14FF0B0433C
:1026D0001B6813F0007F44D0002071E04FF0B0423F
:1026E000136823F08073136000F01CFF05464FF061
:1026F000B0431B6813F0007F06D000F013FF401BAF
:102700000228F4D903205BE04FF0B042D36830498F
:102710001940236B606B0343A06B43EA0023E06B1B
:102720000343206C0343606C03430B43D360136883
:1027300043F080731360D36843F08053D36000F09C
:10274000F1FE04464FF0B0431B6813F0007F06D142
:1027500000F0E8FE001B0228F4D9032030E000203E
:102760002EE04FF0B0431A6842F080721A60DA68C7
:1027700042F08052DA6000F0D5FE04464FF0B043DC
:102780001B6813F0007F06D100F0CCFE031B022B68
:10279000F4D9032014E0002012E04FF0B042D168D9
:1027A0000C4B0B40D36000200AE001207047012051
:1027B00006E0012004E0012002E0012000E000200A
:1027C00038BD0120FCE70120FAE700BF00040058F3
:1027D0008C80C111FCFFFEEE002800F0278170B54F
:1027E0000C460546934B1B6803F007038B422DD321
:1027F0002B6813F0020F3FD12B6813F0200F53D139
:102800002B6813F0400F6AD12B6813F0040F40F0CF
:1028100083802B6813F0080F40F097802B6813F02B
:10282000010F00F0DE806B68022B00F0A880032B04
:1028300000F0AD80002B40F0B2804FF0B042126843
:1028400012F0020F40F0B1800120EEE0794A1368E7
:1028500023F007030B43136000F064FE0646754B3C
:102860001B6803F00703A342C2D000F05BFE801B8D
:102870000228F4D90320D8E0AB684FF0B0418A6851
:1028800022F0F00213438B6000F04CFE06464FF03E
:10289000B0439B6813F4803FAED100F043FE801B31
:1028A0000228F4D90320C0E06B694FF0B041D1F8A1
:1028B000082122F0F0021343C1F8083100F032FE83
:1028C00006464FF0B043D3F8083113F4003F97D1D8
:1028D00000F028FE801B0228F3D90320A5E0A96997
:1028E0004FF0B042D2F8083123F00F0343EA11133E
:1028F000C2F8083100F016FE06464FF0B043D3F898
:10290000083113F4803F7FF47FAF00F00BFE801B93
:102910000228F2D9032088E0EB684FF0B0418A68C2
:1029200022F4E06213438B6000F0FCFD06464FF09A
:10293000B0439B6813F4003F7FF46BAF00F0F2FDEF
:10294000801B0228F3D903206FE029694FF0B042C1
:10295000936823F4605343EAC103936000F0E2FDFF
:1029600006464FF0B0439B6813F4802F7FF456AFB8
:1029700000F0D8FD801B0228F3D9032055E04FF06A
:10298000B042126812F4003F0FD101204DE04FF029
:10299000B042126812F0007F07D1012045E04FF0ED
:1029A000B042126812F4806F42D04FF0B0418A6892
:1029B00022F0030213438B6000F0B4FD06464FF093
:1029C000B0439B6803F00C036A68B3EB820F08D036
:1029D00000F0A8FD801B41F288339842EFD9032014
:1029E00023E0144B1B6803F00703A34215D9114AD7
:1029F000136823F007032343136000F093FD05469B
:102A00000C4B1B6803F00703A34206D000F08AFDBD
:102A1000401B0228F4D9032007E0FFF741FB064BD7
:102A2000186000F085FD00F033FD70BD0120704797
:102A30000120FAE7004000581C00002070B5054650
:102A40004FF0B042136823F08063136000F06AFD1A
:102A500004464FF0B0431B6813F0006F06D000F03F
:102A600061FD001B0228F4D9032400E000240CB10E
:102A7000204670BD4FF0B0431A6922F4FE42296827
:102A800042EA01221A611A6922F4781269680A433B
:102A90001A611A6842F080621A6000F043FD06462F
:102AA0004FF0B0431B6813F0006F05D100F03AFD02
:102AB000801B0228F4D90324002CD9D14FF0B04256
:102AC000136929690B431361D2E770B505464FF0CE
:102AD000B042136823F08063136000F023FD0446C6
:102AE0004FF0B0431B6813F0006F06D000F01AFDE2
:102AF000001B0228F4D9032400E000240CB1204676
:102B000070BD4FF0B0431A6922F4FE42296842EAD0
:102B100001221A611A6922F06062A9680A431A61E7
:102B20001A6842F080621A6000F0FCFC06464FF022
:102B3000B0431B6813F0006F05D100F0F3FC801B5D
:102B40000228F4D90324002CD9D14FF0B0421369E4
:102B500029690B431361D2E770B505464FF0B042C7
:102B6000136823F08063136000F0DCFC04464FF030
:102B7000B0431B6813F0006F06D000F0D3FC001BBD
:102B80000228F4D9032400E000240CB1204670BDD3
:102B90004FF0B0431A6922F4FE42296842EA01224A
:102BA0001A611A6922F06042E9680A431A611A68D8
:102BB00042F080621A6000F0B5FC06464FF0B04368
:102BC0001B6813F0006F05D100F0ACFC801B0228DD
:102BD000F4D90324002CD9D14FF0B04213692969EC
:102BE0000B431361D2E770B50446036813F0400F3E
:102BF0002FD0036BB3F5800F21D00AD833B904303E
:102C0000FFF71CFF064658B1054624E001252E4675
:102C100021E0B3F5000F1AD0B3F5400F0CD1002618
:102C2000236B4FF0B041D1F8882022F440021343C7
:102C3000C1F8883000250EE001252E460BE04FF04C
:102C4000B042D36843F48033D3600026E8E700261F
:102C5000E6E700252E46236813F4006F0AD04FF0F4
:102C6000B043D3F8905005F44075236CAB4240F06C
:102C7000B7803546236813F0010F09D0A3694FF0E0
:102C8000B041D1F8882022F003021343C1F8883004
:102C9000236813F0020F09D0E3694FF0B041D1F877
:102CA000882022F440621343C1F88830236813F06F
:102CB000100F0CD0A06A4FF0B041D1F88830020C50
:102CC000120423EA020343EA0043C1F88830236870
:102CD00013F0200F0CD0E06A4FF0B041D1F88830EB
:102CE000020C120423EA020343EA0043C1F88830CD
:102CF000236813F0040F40F0B480236813F0080F2A
:102D000040F0C080236813F4807F13D0636B4FF0D2
:102D1000B041D1F8882022F040621343C1F88830D6
:102D2000636BB3F1006F00F0BE80636BB3F1806F33
:102D300000F0BE80236813F4007F17D0A36BB3F1BB
:102D4000804F05D0B3F1004F02D0002B40F0B88087
:102D50004FF0B041D1F8882022F040421343C1F82F
:102D60008830A36BB3F1C05F00F0BC80236813F41C
:102D7000806F13D0E36B4FF0B041D1F8882022F080
:102D800040521343C1F88830E36BB3F1005F00F0A9
:102D9000B080E36BB3F1805F00F0B080236813F480
:102DA000805F09D0636C4FF0B041D1F8942022F4D9
:102DB00040421343C1F89430236813F4005F0DD0F0
:102DC000E26C4FF0B043596A21F030010A435A6275
:102DD000A26C596A21F003010A435A62284670BD69
:102DE00000F0ACFA5DB9236C4FF0B041D1F89020FF
:102DF00022F440721343C1F8903035463AE74FF061
:102E0000B043D3F89020D3F8901041F48031C3F848
:102E10009010D3F8901021F48031C3F8901022F470
:102E20004072216C0A43C3F89020D3F8903013F01D
:102E3000010F12D000F076FB05464FF0B043D3F8F7
:102E4000903013F0020F0AD100F06CFB401B41F2EE
:102E500088339842F1D903250CE735460AE7354611
:102E600008E7236A4FF0B040D0F88820190901F430
:102E70007F2122EA01021B0103F47F231343C0F8E0
:102E800088303AE7636A4FF0B040D0F888201909DB
:102E900001F47F2122EA01021B0103F47F23134383
:102EA000C0F888302EE7CB6843F08073CB603CE7F6
:102EB000201DFFF70AFE00283FF43CAF054639E726
:102EC00023F080534FF0B042D2F8881021F04041F7
:102ED000C2F88810D2F8881021F040610B43C2F884
:102EE00088303EE74FF0B042D36843F08073D36040
:102EF0003CE7CB6843F48033CB604AE7201DFFF703
:102F00002BFE00283FF44AAF054647E710B4064CB5
:102F1000616941F0010161610260BFF36F8F43603D
:102F20005DF8044B704700BF00400058094B5B69D7
:102F3000002B01DB00207047064B074A9A6002F124
:102F400088329A605B69002B01DB0020704701200A
:102F5000704700BF0040005823016745054B5A6980
:102F600042F000425A615B69002B01DB012070478F
:102F7000002070470040005838B5054600F0D2FAEE
:102F800004461B4B1B6913F4803F06D000F0CAFABD
:102F9000001BA842F5D3032038BD154B1B6913F065
:102FA000010F02D0124A0121116113F4004F05D024
:102FB0000F4A4FF40041116123F400434CF2FA32FE
:102FC000134001D00A4A13615BB9094B1B6913F422
:102FD000802F0AD000F0A6FA001BA842F5D30320E8
:102FE000DAE7044A53600120D6E70020D4E700BFA7
:102FF00000400058B8020020F8B51F46154B1B785A
:10300000012B25D004460D461646124B01221A709C
:1030100000225A604FF47A70FFF7AEFF70B9012CAE
:1030200010D03146284603F079FA4FF47A70FFF752
:10303000A3FF094A536923EA04045461054B0022A3
:103040001A70F8BD32463B462846FFF75FFFECE7B3
:103050000220F6E7B802002000400058164B1B681B
:1030600013F4007F10D0144B1A6822F400721A6017
:103070001A6842F400621A601A6822F400621A6048
:103080001A6842F400721A600B4B1B6813F4806FCD
:1030900010D0094B1A6822F480621A601A6842F450
:1030A00080521A601A6822F480521A601A6842F438
:1030B00080621A60704700BF00400058034A53699D
:1030C00023F4FF6323F0020353617047004000586C
:1030D000054A536923F4FF6343EAC00040F480309B
:1030E00040F002005061704700400058F8B51B4B9B
:1030F0001B78012B2FD004460E46184B01221A7064
:1031000000225A604FF47A70FFF736FF074620B965
:103110002368022B06D0FFF7A1FF104B00221A7084
:103120003846F8BD4FF0FF333360656800E0013585
:103130006368A2681344AB420AD92846FFF7C8FF68
:103140004FF47A70FFF718FF07460028EFD035607C
:10315000FFF7B4FFDFE70227E2E700BFB802002075
:10316000F0B5002366E085685E000324B44025EADC
:103170000405CC68B4402C438460446824EA0C0CF9
:103180004C68C4F300149C4044EA0C04446062E0C0
:10319000DD08083550F8256003F007044FEA840C79
:1031A0000F2404FA0CF426EA040E0C6904FA0CF459
:1031B00044EA0E0440F8254064E0042400E00024C2
:1031C00004FA0EF42C430CF1020C4F4D45F82C4040
:1031D0004E4C2568D44325EA02064F6817F4801F39
:1031E00001D042EA0506494D2E606D6804EA0506E5
:1031F0004F6817F4001F01D042EA0506434D6E6088
:10320000D5F8805004EA05064F6817F4803F01D0D6
:1032100042EA05063D4DC5F88060D5F884502C4043
:103220004E6816F4003F01D042EA0504374AC2F85E
:10323000844001330A6832FA03F464D04FF0010C81
:103240000CFA03FC1CEA0202F3D04C6804F00304FD
:10325000013C012C87D94C6804F00304032C0CD0EA
:10326000C4685D004FF0030C0CFA05FC24EA0C0C5A
:103270008C68AC4044EA0C04C4604C6804F003045D
:10328000022C85D004684FEA430E4FF0030C0CFA71
:103290000EFC24EA0C0C4C6804F0030404FA0EF44F
:1032A00044EA0C0404604C6814F4403FC1D04FEA77
:1032B000930C0CF10205144C54F8255003F0030450
:1032C0004FEA840E0F2404FA0EF425EA0405B0F147
:1032D000904F3FF474AF0E4CA0420ED004F58064C2
:1032E000A0420CD004F58064A0420AD004F58064AA
:1032F000A0423FF462AF072462E7012460E70224A2
:103300005EE703245CE7F0BD0000014000080058C0
:10331000000400480AB181617047816270477047BC
:1033200008B5054BD8681A6822EA00021A6058608E
:10333000FFF7F5FF08BD00BF00150058024A1368EB
:1033400043F480731360704700040058024B186800
:1033500000F4C060704700BF00040058074AD368FB
:1033600023F4E0631B041B0C000200F4E060034341
:1033700043F0BF6343F40033D360704700ED00E0D7
:1033800000B5194BDB68C3F30223C3F1070CBCF192
:10339000040F28BF4FF0040C03F1040EBEF1060F1A
:1033A00018D9033B4FF0FF3E0EFA0CFC21EA0C014A
:1033B00099400EFA03F322EA0303194300280BDBBA
:1033C0000901C9B200F1604000F5614080F80013C6
:1033D0005DF804FB0023E5E700F00F000901C9B226
:1033E000024B1954F4E700BF00ED00E014ED00E0DB
:1033F000002807DB00F01F02400901239340024A26
:1034000042F82030704700BF00E100E000280CDBEC
:1034100000F01F024009012393402030034A42F884
:103420002030BFF34F8FBFF36F8F704700E100E094
:103430000138B0F1807F0BD24FF0E0235861054A8C
:10344000F02182F823100020986107221A6170474A
:103450000120704700ED00E0002808DB00F01F02AB
:103460004009012393404030014A42F82030704720
:1034700000E100E0002808DB00F01F024009012302
:1034800093406030014A42F82030704700E100E08C
:10349000114B1B780BB90120704710B50446FEF79D
:1034A000FFFD0D4B1A784FF47A73B3FBF2F3B0FBC8
:1034B000F3F0FFF7BDFF68B90F2C01D901200AE036
:1034C000002221464FF0FF30FFF75AFF034B1C60EC
:1034D000002000E0012010BD17000020180000208F
:1034E00010B5094A136843F4807313600320FFF793
:1034F00035FF0F20FFF7CCFF10B10124204610BD8F
:103500000446FEF721F9F9E700400058034B1B7809
:10351000034A11680B441360704700BF1700002076
:10352000D0020020014B1868704700BFD002002075
:10353000014B1868704700BF18000020014B187835
:10354000704700BF170000204FF0E022136923F0FE
:103550000203136170474FF0E022136943F0020346
:1035600013617047024A536843F001035360704788
:10357000002004E0024A536843F00203536070479E
:10358000002004E070477047002309E000EB83024D
:10359000054951609A1D00EB8202044951600133D4
:1035A000052BF3D9704700BF853500088735000823
:1035B000002303604FF03F1343603F238360704755
:1035C000C0B138B5044690F8383083B10A4D28466A
:1035D000FFF7EEFF2B6843F001132B602046FFF747
:1035E000D3FF00206063012384F8383038BDFDF735
:1035F000E7F8EBE701207047000C005838B50446A7
:103600000268D36823F0A003D360FFF78BFF054661
:103610002368DB6813F0200F07D1FFF783FF401BFF
:10362000B0F57A7FF4D9032000E0002038BD38B52A
:103630000368DA6812F0400F01D0002038BD04465C
:103640004FF0FF32DA60FFF76DFF05462368DB6855
:1036500013F0400F07D1FFF765FF431BB3F57A7FE7
:10366000F4D90320EAE70020E8E7000000286BD047
:1036700010B5044690F8213063B1022384F821305C
:10368000324BDB6813F0100F09D0012384F821308E
:10369000002010BD80F82030FDF710F9EDE7236819
:1036A000CA225A62236853225A622046FFF7BFFF9C
:1036B00038B12368FF225A62042384F821300120A4
:1036C000E7E72268936823F4E00323F04003936064
:1036D00021688A68636820690343A0690343134330
:1036E0008B602368E2681A6122681369A16843EA63
:1036F000014313612268D36823F08003D3602268FA
:10370000D36C23F00303D3642168CB6CE269606956
:1037100002431343CB6423689B6813F0200F03D04C
:103720002368FF225A62B0E72046FFF767FF0028B0
:10373000F6D02368FF225A62042384F82130002344
:1037400084F820300120A4E70120704700280040C1
:10375000002302E001330A38C0B20928FAD81B015D
:10376000DBB218437047F8B590F82030012B00F019
:10377000818004460E46012380F82030022380F821
:103780002130002A49D103689B6813F0400F01D112
:103790000023CB703078FFF7DBFF05047078FFF76C
:1037A000D7FF45EA0025B078FFF7D2FF0543F07850
:1037B00045EA00452368CA225A62236853225A62A6
:1037C0002046FFF734FF0746002838D1236805F06C
:1037D0007F3525F0FE451D602268936823F4802321
:1037E000936021688B68F2683069024313438B60F1
:1037F0002268D36823F08003D36023689B6813F0AA
:10380000200F27D02368FF225A62012384F8213039
:10381000002384F820303846F8BD03689B6813F015
:10382000400F01D10023CB7035787078000240EA58
:103830000540B5782843F57840EA0545BAE723689E
:10384000FF225A62042384F82130002384F82030B8
:103850000127E0E72046FFF7D1FE0028D2D02368F9
:10386000FF225A62042384F82130002384F8203098
:103870000127D0E70227CEE770B590F82030012B62
:103880006ED004460E46012380F82030022380F8D3
:1038900021303AB94B7813F0100F03D003F0EF0347
:1038A0000A334B70002A35D1F078FFF751FF050439
:1038B0007078FFF74DFF45EA0025B078FFF748FF25
:1038C0000543307845EA40352368CA225A622368A6
:1038D00053225A622046FFF7AAFE064628BB2368F9
:1038E00025F07F4525F0C0055D602268D36823F090
:1038F0008003D36023689B6813F0200F20D02368D7
:10390000FF225A62012384F82130002384F82030FA
:10391000304670BDF5787078000240EA0540B57811
:103920002843357840EA4535CEE72368FF225A62BE
:10393000042384F82130002384F820300126E7E7AF
:103940002046FFF75BFE0028D9D02368FF225A6289
:10395000042384F82130002384F820300126D7E79F
:103960000226D5E7030903EB830300F00F0000EB09
:103970004300C0B2704770B50C4603689B6A4B6049
:1039800003681B69C3F30E038B6003681D68C5F3EE
:103990000641C5F305402070C5F30626667005F0A4
:1039A0007F05A57001F04003E37052B9FFF7DAFF1D
:1039B00020703046FFF7D6FF60702846FFF7D2FF31
:1039C000A070002070BD70B503685B68C3F307404A
:1039D000C870C3F304264E7003F03F058D70C3F327
:1039E00042330B705AB90C46FFF7BCFFE07030460B
:1039F000FFF7B8FF60702846FFF7B4FFA070002003
:103A000070BD0000F8B590F82030012B77D0044647
:103A10000E461546012380F82030022380F821301D
:103A20000368CA225A62036853225A6203689B6879
:103A300013F4806F17D0FFF775FD07462368DB6826
:103A400013F0040F0FD0FFF76DFDC01BB0F57A7FA8
:103A5000F4D92368FF225A62032084F8210000234E
:103A600084F820304AE02268936823F480639360EE
:103A70002268D368DBB263F49063D360FFF752FD32
:103A800007462368DA6812F0040F0FD1FFF74AFDEA
:103A9000C01BB0F57A7FF4D92368FF225A62032055
:103AA00084F82100002384F8203027E05E6122683A
:103AB000936823F007039360226893681D43956021
:103AC000104BD3F8802042F40022C3F880201A68FB
:103AD00042F400221A602268936843F480439360A2
:103AE0002268936843F4806393602368FF225A62DC
:103AF000012384F82130002084F82000F8BD022042
:103B0000FCE700BF00080058164AD2F8883043F49A
:103B10007003C2F888304FF0B0431A6842F00102D7
:103B20001A604FF4E0229A601968A2F1A262A2F230
:103B300005120A401A60D3F8942022F00502C3F857
:103B40009420D3F8982022F00102C3F89820064A66
:103B5000DA601A611A6822F480221A6000229A61DF
:103B6000704700BF00ED00E0001004224FF0B042AB
:103B70001368C3F30313294951F82310936803F022
:103B80000C030C2B46D8DFE803F0074545451745E5
:103B900045451B4545451F00214B19604FF0B0437B
:103BA0009B68C3F303131F4A52F823101C4A13687F
:103BB000B3FBF1F313607047194B1B4A1A60EDE732
:103BC000174B1A4A1A60E9E74FF0B043DA6802F07F
:103BD0000302DB68C3F302130133022A12D0032A63
:103BE00014D0B1FBF3F24FF0B041CB68C3F306231E
:103BF00002FB03F3CA68520F0132B3FBF2F3084A27
:103C00001360CBE7084AB2FBF3F2ECE7074AB2FBDA
:103C1000F3F2E8E7024B1960C0E700BFDC67000879
:103C20001C0000209C6700080024F4000048E80104
:103C300000B583B009E001A9084800F0F4F9084B89
:103C40001B690199186900F0D6F9044800F0BBF926
:103C50000028F0D003B05DF804FB00BFDC020020B8
:103C60000000032008B5FEF719F808BD08B5104A92
:103C7000104B136003F12001516003F1300191609A
:103C800003F14001116203F14801516203F1500157
:103C9000D16003F15801116103F17401516103F125
:103CA000780191618433D361FEF720F808BD00BF2D
:103CB000000003203401032038B504460B4D28468C
:103CC00000F07EF90A4B5B68A2681A60E268DA606D
:103CD000084A5A609D60FEF72BF82268064B1A606E
:103CE0006268064B1A60002038BD00BFC401032083
:103CF00000000320580A0320D8020020D40200202C
:103D000008B5054B5A681268012111725B68FEF70D
:103D100017F8002008BD00BF0000032000B583B0E5
:103D200007E001A9074800F07EF9074B1B680198DE
:103D30009847044800F047F90028F2D003B05DF836
:103D400004FB00BFC4010320D802002008B5024BC9
:103D50001B68984708BD00BFD402002038B5044650
:103D6000094D284600F02CF9084BDB68A2681A6060
:103D70005D60FEF703F82268054B1A606268054B28
:103D80001A60002038BD00BFCC01032000000320D2
:103D9000E4020020E802002008B5054BDA6812684A
:103DA00010211172DB68FDF7F1FF002008BD00BF94
:103DB0000000032008B5044BDA68DA68034B1B687F
:103DC0001068984708BD00BF00000320E4020020EF
:103DD00000B583B007E001A9074800F024F9074BBC
:103DE0001B6801989847044800F0EDF80028F2D0CD
:103DF00003B05DF804FB00BFCC010320E802002003
:103E000038B504460C4D284600F0DAF80B4800F0AF
:103E1000D7F80B4B1B690B4A1360A2689A60E268E3
:103E2000DA601D6122681A6062685A6022695A610C
:103E300062699A6138BD00BFD4010320DC02002012
:103E400000000320EC02002008B50146034800F002
:103E5000D2F80348FDF7E8FF08BD00BFDC020020F0
:103E6000313C000810B5054C204600F0A9F8044B81
:103E70005B691C60FDF7F0FF10BD00BFDC01032093
:103E8000000003207047000000B583B006E001A9E0
:103E9000064800F0C8F80198FFF7F4FF034800F067
:103EA00092F80028F3D003B05DF804FBDC01032096
:103EB00000B585B06B4600F10C022E214FF666402E
:103EC00000F08EFF9DF80E0005B05DF804FB00B514
:103ED00085B06B4600F10C020F214FF6684000F0F0
:103EE0007FFF9DF80E0005B05DF804FB00B585B0BE
:103EF00002466B4610214FF6754000F071FF9DF8A9
:103F00000E0005B05DF804FB30B4214BDB6BC3F34E
:103F10000D039B0003F1005303F540331A68116849
:103F20001C4B99422DD01369546995695168926868
:103F30004FEA136C80F800C04FEA134C80F801C0C0
:103F40004FEA132C80F802C0C3F3031C80F803C0AF
:103F500003F00F030371230E4371230C8371230AB3
:103F6000C371047245720B0E83720B0CC372090A83
:103F70000173130E4373130C8373C273002030BCA0
:103F8000704753699469D569D1681269D0E700BF59
:103F900000400058B95646A901460748C3798B42EC
:103FA00004D0064A904201D00838F7E78B4200D18E
:103FB00070470020FCE700BFF873FF1F0070FF1F71
:103FC000006040607047EFF3108372B6026882426F
:103FD00003D0002083F3108870470120FAE7EFF345
:103FE000108372B602680A60486001600A68516016
:103FF00083F310887047EFF3108372B6086042684D
:104000004A6041604A68116083F310887047EFF39B
:10401000108372B64268016811600268416851609D
:1040200083F31088704710B5EFF3108472B60368FD
:104030000B600068FFF7EBFF84F3108810BD08B534
:1040400001F0EAFD08BD08B501F0F4FD08BD10B5AA
:1040500088B000248DF807401822214602A8FFF7F7
:10406000F2FF3F23ADF808308123ADF80A300DF19F
:104070000703069301230793214602A800F09CFD45
:10408000A04203DB9DF8070008B010BDFF20FBE74E
:104090002DE9F04FCBB09C469DF854619DF85C51E2
:1040A00006F1080A04AC04EB0A0B77190937E31987
:1040B00001930DF10F094FF000088DF80F808DF876
:1040C0001000ADF81110ADF813208DF815C09DF853
:1040D00050318DF816308DF817603246569906A883
:1040E000FFF7ADFF04F80A5009362A4658990BF13C
:1040F0000100FFF7A4FF3544BDF86431E353BDF878
:104100006831019A538004351822414644A8FFF7CC
:104110009AFF3F23ADF810318323ADF81231469456
:104120004795CDF8209101234993414644A800F0DA
:1041300043FD404504DB9DF80F004BB0BDE8F08F18
:10414000FF20FAE770B5C8B00DF1070500248DF81F
:10415000074002AE8DF808001822214642A8FFF75A
:1041600072FF3F23ADF808318523ADF80A3144963C
:104170000123459346954793214642A800F01CFD34
:10418000A04203DB9DF8070048B070BDFF20FBE7AD
:1041900070B5C8B00DF1070600258DF8075002ACC8
:1041A0008DF808008DF809108DF80A208DF80B3075
:1041B0009DF830318DF80C309DF834318DF80D308C
:1041C0009DF838318DF80E304F9BCDF80F309DF8AB
:1041D00040318DF813301822294642A8FFF733FFEB
:1041E0003F23ADF808318623ADF80A3144940C23FF
:1041F0004593469601234793294642A800F0DCFCEC
:10420000A84203DB9DF8070048B070BDFF20FBE724
:104210002DE9F041C8B007460E46154698460722DC
:1042200000216846FFF70FFF02AC8DF808708DF88B
:1042300009608DF80A501822002142A8FFF703FFF9
:104240003F23ADF808318A23ADF80A3144940323A3
:104250004593CDF818D107234793002142A800F0D9
:10426000ABFC002811DB9DF8000058B9BDF8013007
:10427000A8F80030BDF803204E9B1A80BDF8052039
:104280004F9B1A8048B0BDE8F081FF20FAE7F0B5F7
:10429000C9B004460DF1070600258DF8075002AF9E
:1042A0008DF8080002460DF10900FFF7C8FE013441
:1042B0001822294642A8FFF7C6FE3F23ADF8083171
:1042C0008E23ADF80A3144974594469601234793CF
:1042D000294642A800F070FCA84203DB9DF80700C5
:1042E00049B0F0BDFF20FBE710B588B000248DF881
:1042F00007401822214602A8FFF7A5FE3F23ADF88C
:1043000008309223ADF80A300DF10703069301231C
:104310000793214602A800F04FFCA04203DB9DF862
:10432000070008B010BDFF20FBE710B588B00024DF
:104330008DF807401822214602A8FFF784FE3F238C
:10434000ADF8083040F20113ADF80A300DF1070363
:10435000069301230793214602A800F02DFCA042FA
:1043600003DB9DF8070008B010BDFF20FBE72DE937
:10437000F041C8B00446884617461E4601283CD086
:10438000022838D0012502AB1D440322002101A8D8
:10439000FFF759FE8DF80840012C30D0022C30D1A7
:1043A0001024224641460DF10900FFF748FE2F7008
:1043B0006E7003341822002142A8FFF744FE3F2309
:1043C000ADF808314FF48173ADF80A3102AB449374
:1043D000459401AB469303234793002142A800F084
:1043E000EBFB002811DB9DF8040058B9BDF805204F
:1043F0004E9B1A8006E01125C5E70325C3E702247A
:10440000CFE7972048B0BDE8F081FF20FAE72DE91B
:10441000F041C8B006460C4690461F4601294CD0D4
:10442000022948D0032502AB1D440322002101A824
:10443000FFF709FEADF808608DF80A40012C3ED068
:10444000022C3ED11024224641460DF10B00FFF70D
:10445000F6FD2F809DF83831AB709DF83C31EB7044
:104460009DF840312B719DF844316B719DF84831B6
:10447000AB710A341822002142A8FFF7E4FD3F2364
:10448000ADF808314FF48273ADF80A3102AB4493B2
:10449000459401AB469303234793002142A800F0C3
:1044A0008BFB002811DB9DF8040058B9BDF80520EE
:1044B000539B1A8006E01325B5E70525B3E70224D0
:1044C000C1E7972048B0BDE8F081FF20FAE7F0B5DA
:1044D000C9B01C460DF1070700268DF8076002AD34
:1044E000ADF80800ADF80A108DF80C208DF80D30ED
:1044F0001A464E990DF10E00FFF7A1FD0634182261
:10450000314642A8FFF79FFD3F23ADF808314FF435
:104510008373ADF80A314495459446970123479338
:10452000314642A800F048FBB04203DB9DF807008B
:1045300049B0F0BDFF20FBE770B5C8B00DF107052D
:1045400000248DF8074002AEADF80800182221467D
:1045500042A8FFF778FD3F23ADF8083140F20B1376
:10456000ADF80A310F2343934496022345934695B1
:1045700001234793214642A800F01EFBA04203DB23
:104580009DF8070048B070BDFF20FBE770B5C8B0CC
:104590000DF1070500248DF8074002AEADF80800C4
:1045A0001822214642A8FFF74EFD3F23ADF80831FF
:1045B00040F22513ADF80A314496022345934695FF
:1045C00001234793214642A800F0F6FAA04203DBFC
:1045D0009DF8070048B070BDFF20FBE7F0B5C9B0FB
:1045E0000C4611460DF1070700258DF8075002AE65
:1045F0008DF808008DF8094022460DF10A00FFF7FA
:104600001EFD02341822294642A8FFF71CFD3F2355
:10461000ADF808310C23ADF80A314496459446971D
:1046200001234793294642A800F0C6FAA84203DBBB
:104630009DF8070049B0F0BDFF20FBE770B5C8B09A
:104640000DF1070600248DF8074002AD8DF8080033
:104650008DF809101822214642A8FFF7F4FC3F23E9
:10466000ADF808310F23ADF80A3144950223459384
:10467000469601234793214642A800F09DFAA042A6
:1046800003DB9DF8070048B070BDFF20FBE770B565
:10469000C8B00DF1070500248DF8074002AEADF853
:1046A00008001822214642A8FFF7CDFC3F23ADF8B1
:1046B00008311823ADF80A314496022345934695F4
:1046C00001234793214642A800F076FAA04203DB7B
:1046D0009DF8070048B070BDFF20FBE710B588B01B
:1046E00000248DF807401822214602A8FFF7ABFCF2
:1046F0000323ADF80830ADF80A300DF10703069337
:1047000001230793214602A800F056FAA04203DBDA
:104710009DF8070008B010BDFF20FBE72DE9F04130
:10472000C8B007460E4615460DF1040803220021C5
:104730004046FFF788FC02ACADF80870ADF80A609F
:10474000ADF80C501822002142A8FFF77CFC08238A
:10475000ADF808312223ADF80A314494062345937D
:10476000CDF8188103234793002142A800F024FAD2
:10477000002804DB9DF8040048B0BDE8F081FF206C
:10478000FAE7F0B5C9B004460E46154605220021E9
:104790006846FFF758FC02AFADF808401822002128
:1047A00042A8FFF750FC0823ADF808313023ADF8DC
:1047B0000A31449702234593CDF818D10523479336
:1047C000002142A800F0F8F900280ADB9DF800005B
:1047D00028B99DF8033033709DF804302B7049B030
:1047E000F0BDFF20FBE770B5C8B00DF1070600254E
:1047F0008DF8075002AC8DF808008DF809108DF87F
:104800000A201822294642A8FFF71DFC0823ADF80C
:1048100008313123ADF80A31449403234593469679
:1048200001234793294642A800F0C6F9A84203DBBA
:104830009DF8070048B070BDFF20FBE74378FF2BD1
:1048400001D000207047B0F8032040F601439A429F
:1048500001D00020704710B584B0B0F80720174B86
:104860009B8802339A4207D0144B5B8801339A42EB
:1048700016D0002004B010BD437B13F0010F07D009
:1048800000238DF800306846FDF7CAF90120F1E7F2
:1048900001248DF800406846FDF7C2F92046E9E79B
:1048A00003238DF80030B0F80B308DF808300D3050
:1048B00001906846FDF7B4F90020DBE78C0000208A
:1048C0002DE9F04F8BB0624800F012FB8F238DF87A
:1048D0001830E5238DF81930B3238DF81A30D5231D
:1048E0008DF81B302E238DF81C307F238DF81D3062
:1048F0004A238DF81E3098238DF81F302A238DF817
:10490000203048238DF821307A238DF82230CC23B3
:104910008DF8233040238DF82430FE278DF8257044
:1049200000248DF826408DF827404A4B009306233B
:10493000012206A90220FFF71AFD4FF0190B8DF88E
:1049400018B0ED268DF819604FF0820A8DF81AA084
:104950006FF051038DF81B308DF81C604FF0210271
:104960008DF81D204FF04C018DF81E106FF0620085
:104970008DF81F004FF041088DF820804FF045055D
:104980008DF821504FF0220C8DF822C04FF08E0987
:104990008DF823908DF824808DF825708DF82640B1
:1049A0008DF827402B4B33F8020B05930125049516
:1049B0004FF00A0ECDF80CE0029501940623009307
:1049C00028230DF1180E72460221FFF720FD8DF805
:1049D00018B08DF819608DF81AA06FF051038DF89A
:1049E0001B308DF81C604FF021028DF81D204FF018
:1049F0004C018DF81E106FF062008DF81F008DF8CD
:104A000020804FF045038DF821304FF0220C8DF8B7
:104A100022C08DF8239042238DF824308DF8257024
:104A20008DF826408DF827400A4B33F8040B059388
:104A300004950A2303930295019410230093022303
:104A400006AA1946FFF7E3FC0BB0BDE8F08F00BFE4
:104A50003D4800088C0000204FF64263984201D088
:104A60009220704700B583B005480091134600229C
:104A700081880088FFF72BFD03B05DF804FB00BFC1
:104A80008C00002008B520B9054B1B6803B198477E
:104A900008BD034B1B68002BFAD001209847F7E7AD
:104AA000FC02002030B585B004460A48FFF788FABA
:104AB000094D284640F8044BFFF782FA01232B7377
:104AC000064B1B6823B10294054A0092684698473A
:104AD00005B030BDF4020020940000200003002047
:104AE000694C000810B50B461146084A1468A4F832
:104AF0000900E3721A4604F10C0001F08DF8044B32
:104B00001B6900210846984710BD00BF9400002093
:104B10000003002010B50C464A68054B1A60054B8F
:104B2000D861184600F0BAF82068FFF7BBFF10BD47
:104B3000FC0200200003002000B585B01B48FFF7F1
:104B400042FA10B91A4B1B7B4BB91848FFF73BFAD6
:104B500010B9174B1B7B23BB05B05DF804FB03A901
:104B60001248FFF760FA134BDB698BB1039A02928C
:104B700001228DF8042001A898479DF804200C4BD1
:104B80001A730B4B1B7B3BB10398FFF75DF9DCE716
:104B9000074B01221A73F4E703990448FFF71FFA41
:104BA000D3E70248FDF72CF8D6E700BF98000020B5
:104BB0009400002000030020F0B583B007460020D9
:104BC000FFF760FFB7F90250C5F309053B8845EAD6
:104BD0008325ADB2224B01221A70BA68397B284670
:104BE000FFF780FF0026002E33D148F2E800FDF7E2
:104BF00012F805E0B4F80D30AB4216D0237B33BB7E
:104C00001848FFF7E0F90028EDD101A91548FFF792
:104C10000AFA019C637A0F2BECD0A389AB4208D02F
:104C2000E37A002BECD00126EAE73B69E27A1A70BE
:104C3000E4E7A27A033AD2B27B699A42A8BF1A4645
:104C40007A6104F10E01386900F0E6FFE8E7012619
:104C5000D6E70120FFF716FF002003B0F0BD00BF2C
:104C6000F0020020F402002010B50146437A0E3B0A
:104C7000DBB2012B07D9074C2046FFF7BCF92046D1
:104C8000FCF7BEFF10BD0448FFF7B5F90020FCF7A4
:104C9000BDFFF7E798000020F4020020024B0360FC
:104CA000024B0361704700BFB93C0008013D00089A
:104CB00008B538B9084B1B6803B19847074B002269
:104CC0001A7008BD054B01221A70034B1B68002B9C
:104CD000F7D010469847F4E724030020C8000020CE
:104CE00030B585B004460B4D686005F10800FFF74C
:104CF00067F90120FFF7DCFF01232B74064B1B68CB
:104D000033B10394054A0192054A029201A89847DB
:104D100005B030BDC800002028030020494E00081F
:104D2000254D000810B50146034C2046FFF763F9F6
:104D30002046FBF7F9FE10BDD000002010B50C4650
:104D40004A68054B1A60054BD861184600F082F896
:104D50002068FFF7C5FF10BD2403002028030020B2
:104D600000B585B01B48FFF72EF910B91A4B1B7C14
:104D70004BB91848FFF727F910B9174B1B7C23BB19
:104D800005B05DF804FB03A91248FFF74CF9134B7B
:104D9000DB698BB1039A029201228DF8042001A8ED
:104DA00098479DF804200C4B1A740B4B1B7C3BB1AD
:104DB0000398FFF749F8DCE7074B01221A74F4E780
:104DC00003990448FFF70BF9D3E70248FBF7ACFE61
:104DD000D6E700BFD0000020C80000202803002034
:104DE0002DE9F04107460C4616461D460020FFF708
:104DF0005FFFDFF85080D8F80400A0F80970C47293
:104E0000224631460C3000F007FF01240B4B1C708A
:104E10000B4B1B6900210846984748F2E800FBF756
:104E20008EFED8F804108A78033205F1080000F0ED
:104E3000F3FE2046FFF73CFFBDE8F0812003002091
:104E400028030020C800002008B50020FBF772FEF0
:104E500008BD0000024B0360024B0361704700BFB6
:104E60005D3D0008993D00087047704770477047E6
:104E7000704770477047704770477047704770477A
:104E80007047704770477047704708B5FFF7ECFFF1
:104E9000FFF7EBFFFFF7EAFFFFF7E9FFFFF7E8FF98
:104EA000FFF7E7FFFFF7E6FFFFF7E5FFFFF7E4FF98
:104EB000FFF7E3FFFFF7E2FFFFF7E1FFFFF700FD7A
:104EC000FFF7DEFFFFF7DDFFFFF7DDFFFFF7DAFF9C
:104ED000FFF7DAFF08BD000008B5044B00221A777F
:104EE00083F82020FFF7D1FF08BD00BFA4000020F9
:104EF000034A137F42F8230001331377704700BF42
:104F0000A400002038B505464378FF2B06D1B0F841
:104F1000033003F47F43B3F5406F03D02846FCF71A
:104F2000CBFD38BD002422460A4B1B7FA34209D982
:104F3000084B53F8243028469847024610B90134EC
:104F4000E4B2F1E7002AE9D0022A01D10020E8E723
:104F50000120E6E7A40000200023024A1360024A71
:104F6000136070474C03002048030020EFF31083C8
:104F700072B641B1012903D106490A68104308609D
:104F800083F31088704703490A6822EA000008602A
:104F9000F6E700BF4803002038B5EFF3108472B67F
:104FA0000C4B1B683BB10C4D2B6898476B689847BE
:104FB00084F3108838BD094B1B682BB1064DAB68D4
:104FC0009847EB689847F3E7034D2B6998476B695F
:104FD0009847EDE74C0300204C6700084803002089
:104FE000EFF3108C72B6064A136803431360054A48
:104FF00052F83130184342F831008CF31088704772
:10500000EC030020DC030020EFF3108172B6044AA9
:10501000136823EA0000106081F31088704700BF16
:1050200024000020EFF3108172B6034A136818437E
:10503000106081F31088704724000020EFF3108186
:1050400072B6034A13681843106081F310887047E2
:105050005403002070477047030C1B04B3B90004CD
:10506000102310F07F4F02D10833DBB2000210F0A2
:10507000704F02D10433DBB20001000F044A105C10
:105080001844C0B2C0F11F00C0B270470023E8E767
:105090001C68000838B5404B1C68204018603F4B26
:1050A0001A683F4B1B683F4909683F48056849E05B
:1050B00001333E4A52F833200A400242F8D03B4DB9
:1050C00055F833200A40024005EBC30569681142D8
:1050D00002D14FF0FF306860344D05EBC3056868BE
:1050E0001040FFF7B9FF324908606A68012303FAEC
:1050F00000F022EA00006860EFF3108572B60A68DB
:105100009340D84325490A6822EA03030B6002232F
:1051100006E0013B254951F83320024041F8332095
:10512000002BF6D185F31088214B1A68214B53F8D8
:1051300022309847194B1A68194B1B68194909689E
:10514000194805680A4014480068024201D02B4003
:10515000AFD0174B4FF0FF321A60FFF77BFFEFF332
:10516000108572B60D4B1B680D4A11680D4A126806
:105170001340094A1268134203D10B4B1B680B42C0
:1051800006D085F31088FFF766FF034B1C6038BD1F
:10519000FBF7C0FCF5E700BF20000020EC03002077
:1051A000540300202400002058030020DC030020CA
:1051B000500300205C030020F8B50446114B1E6824
:1051C000B6F1FF3F05D00125B5400F4B1F681C60AD
:1051D00005E00025F9E721462846FBF79FFC0B4B2D
:1051E0001B682342F7D0074B1E60EFF3108272B6A4
:1051F000064B186820EA04041C6082F31088024BF6
:105200001F60F8BD50030020580300205403002005
:1052100038B51446EFF3108572B6FFF71DFF034B48
:1052200043F8204085F3108838BD00BF5C030020A0
:1052300010B503460C4A0D490D48006840B10C48B2
:1052400000680344521A934206D8094A136010BDFD
:105250000748084C0460F2E700F0B4FC0C2303603C
:105260004FF0FF30F3E700BF000003200010000004
:10527000F00300205804002008B51248124B0360C8
:10528000124B4360002383600122C26003614361CB
:105290008361C361036200F00CFA50B90021094830
:1052A00000F0FCFB40B90021064800F025FC30B9B5
:1052B00008BDFBF7A8F8F1E7FBF7A5F8F3E7FBF764
:1052C000A2F8F5E7F403002000540040B57DB110CA
:1052D00010B59CB0044600211791189119911A91AC
:1052E0001B91502203A800F0A5FC2268194B9A429A
:1052F00001D01CB010BD042303934FF440330B9333
:1053000003A8FDF770FC10BB4FF0B044E36C43F012
:105310000203E364E36C03F002030293029B4FF485
:105320004073179312231893002319931A9304239D
:105330001B9317A90848FDF713FFA36D43F400134F
:10534000A365A36D03F400130193019BD1E7FBF761
:105350005AF8D9E7005400400004004803689A69ED
:1053600012F0020F01D000229A6203689A6912F0CB
:10537000010F03D19A6942F001029A61704710B49B
:10538000019CC1F3090141EA02411943214321F083
:10539000004102685368640D04F4806444F07F7433
:1053A00044F4583444F47F7444F0030423EA0404BE
:1053B000214351605DF8044B70472DE9F0410446EC
:1053C00003689E6916F010067CD00D4690461022A8
:1053D000DA61002637462368986910F0200F30D133
:1053E0007FBBB5F1FF3FF6D0FEF79CF8A0EB0800BD
:1053F000A84201D8002DEED121684B6803F4804308
:1054000094F84220D2B2886910F4004F02D00BB950
:10541000202A0ED123689B6913F0200FDBD1FEF701
:1054200081F8A0EB08001928F4D946F020060127DE
:10543000D1E74B6843F480434B60FEF773F8804636
:10544000E8E70FB92022DA6146F004060125226858
:10545000936913F4807F05D046F001064FF4807104
:10546000D161012513F4806F06D046F0080622684A
:105470004FF48061D161012513F4007F24D046F000
:10548000020623684FF40072DA6101252046FFF717
:1054900065FF2268536823F0FF7323F48B3323F4F2
:1054A000FF7323F001035360636C1E436664202383
:1054B00084F84130002384F8423084F84030284694
:1054C000BDE8F0810025C2E7002DF8D0DEE770B519
:1054D00004460D46164623689B6913F0020F22D13D
:1054E000324629462046FFF768FFF0B9B5F1FF3F85
:1054F000F1D0FEF717F8801BA84201D8002DEAD1A1
:1055000023689B6913F0020FE5D1636C43F020031D
:105510006364202384F84130002384F8423084F807
:105520004030012000E0002070BD0120FCE72DE9A3
:10553000F04104460F4616461D46DDF818802368E4
:105540009B6937EA03030CBF01230023B34227D131
:10555000424629462046FFF730FF20BBB5F1FF3F0A
:10556000EDD0FDF7DFFFA0EB0800A84201D8002D29
:10557000E5D123689B6937EA03030CBF01230023AD
:10558000B342DCD1636C43F020036364202384F8CE
:105590004130002384F8423084F84030012000E09C
:1055A0000020BDE8F0810120FBE770B504460D4600
:1055B000164604E023689B6913F0200F12D023687D
:1055C0009B6913F0200F1BD1324629462046FFF776
:1055D000F4FEB8B9FDF7A6FF801BA842EAD8002D5B
:1055E000EDD1E7E7636C43F020036364202384F884
:1055F0004130002384F8423084F84030012000E03C
:10560000002070BD0120FCE7F8B504460E461746A1
:10561000002518E000236364FDF784FFC01BB0423F
:1056200000D886B97DB923689B6913F0040F0AD1AD
:10563000636C43F020036364202384F8413000232B
:1056400084F84030012523689B6913F0040F2ED1A4
:105650006DBB3A4631462046FFF7AFFE00B101254B
:1056600023689A6912F0200FD6D0002DD4D19A6900
:105670009A6912F0100FCDD01022DA61042363640E
:1056800023682022DA6121684B6823F0FF7323F43A
:105690008B3323F4FF7323F001034B6084F8412024
:1056A000002384F8423084F840300125B4E72846CE
:1056B000F8BD00285FD010B5044690F84130002BAB
:1056C00048D0242384F841302268136823F0010372
:1056D00013606368226823F0706313612268936823
:1056E00023F400439360E368012B38D0A368226859
:1056F00043F404439360E368022B36D02268536876
:1057000023F4006353602268536843F0007343F44A
:10571000004353602268D36823F40043D3602369B5
:1057200062691343A169226843EA0123D360E369F4
:10573000216A22680B4313602268136843F0010357
:10574000136000206064202384F84130206384F8D3
:10575000420010BD80F84030FFF7BAFDB1E7A36802
:10576000226843F400439360C5E72268536843F41A
:1057700000635360C7E70120704700002DE9F04740
:1057800082B00F460A9E90F84110C9B2202940F01D
:10579000B78004469046994690F84030012B00F0BF
:1057A000B3804FF0010A80F840A0FDF7BBFE05462C
:1057B0000090192352464FF400412046FFF7B7FEF0
:1057C000002840F0A380212384F84130102384F87E
:1057D000423000236364C4F82480A4F82A906363F1
:1057E000638D9BB2FF2B1ED9FF2323854FF080735F
:1057F000228DEAB1226898F800109162626A013243
:105800006262628D92B2013A92B26285228D013A51
:1058100092B22285013241490091D2B239462046E6
:10582000FFF7ADFD18E0638D23854FF00073DFE7D0
:105830003A490091D2B239462046FFF7A0FD0BE06D
:10584000628D92B22285002300934FF00073D2B292
:1058500039462046FFF793FD638D9BB2002B33D072
:105860002A4631462046FFF732FE002850D1626AB0
:10587000236812789A62636A01336362638D9BB214
:10588000013B9BB26385238D013B9BB22385628DD7
:1058900092B2002AE0D0002BDED1009533460022E0
:1058A00080212046FFF743FEA0BB638D9BB2FF2BF8
:1058B000C6D9FF222285002300934FF0807339461A
:1058C0002046FFF75CFDC7E72A4631462046FFF732
:1058D0006CFE08BB23682022DA6121684B6823F044
:1058E000FF7323F48B3323F4FF7323F001034B6026
:1058F00084F84120002384F8423084F8403000E0EE
:10590000022002B0BDE8F0870220FAE70120F8E7A4
:105910000120F6E70120F4E70120F2E700200080F3
:105920002DE9F04782B00F460A9E90F84110C9B2A7
:10593000202940F0A28004469046994690F84030D5
:10594000012B00F09E804FF0010A80F840A0FDF787
:10595000E9FD05460090192352464FF400412046C8
:10596000FFF7E5FD002840F08E80222384F84130C7
:10597000102384F8423000236364C4F82480A4F820
:105980002A906363638D9BB2FF2B0AD9FF22228585
:10599000414B00934FF0807339462046FFF7EFFCF0
:1059A00018E0628D92B222853B4B00934FF000735A
:1059B000D2B239462046FFF7E2FC0BE0628D92B28C
:1059C0002285002300934FF00073D2B2394620465F
:1059D000FFF7D5FC638D9BB2002B32D02A463146AF
:1059E0002046FFF711FE00284FD123685A6A636AE8
:1059F0001A70636A01336362228D013A92B2228582
:105A0000638D9BB2013B9BB26385638D9BB2002B80
:105A1000E0D0002ADED10095334680212046FFF7F2
:105A200086FDA0BB638D9BB2FF2BC7D9FF222285C9
:105A3000002300934FF0807339462046FFF79FFC08
:105A4000C8E72A4631462046FFF7AFFD08BB23686A
:105A50002022DA6121684B6823F0FF7323F48B3333
:105A600023F4FF7323F001034B6084F841200023EB
:105A700084F8423084F8403000E0022002B0BDE8F3
:105A8000F0870220FAE70120F8E70120F6E701207D
:105A9000F4E70120F2E700BF0024008090F84130D5
:105AA000DBB2202B24D190F84030012B22D00123EF
:105AB00080F84030242380F841300268136823F0D6
:105AC000010313600268136823F4805313600268B3
:105AD0001368194311600268136843F001031360EF
